{
	"contracts/DAO.sol": {
		"DAO": {
			"abi": [
				{
					"inputs": [
						{
							"internalType": "uint256",
							"name": "_contributionTimeEnd",
							"type": "uint256"
						},
						{
							"internalType": "uint256",
							"name": "_voteTime",
							"type": "uint256"
						},
						{
							"internalType": "uint256",
							"name": "_quorum",
							"type": "uint256"
						}
					],
					"stateMutability": "nonpayable",
					"type": "constructor"
				},
				{
					"inputs": [],
					"name": "availableFunds",
					"outputs": [
						{
							"internalType": "uint256",
							"name": "",
							"type": "uint256"
						}
					],
					"stateMutability": "view",
					"type": "function"
				},
				{
					"inputs": [],
					"name": "contribution",
					"outputs": [],
					"stateMutability": "payable",
					"type": "function"
				},
				{
					"inputs": [],
					"name": "contributionTimeEnd",
					"outputs": [
						{
							"internalType": "uint256",
							"name": "",
							"type": "uint256"
						}
					],
					"stateMutability": "view",
					"type": "function"
				},
				{
					"inputs": [
						{
							"internalType": "string",
							"name": "_description",
							"type": "string"
						},
						{
							"internalType": "uint256",
							"name": "_amount",
							"type": "uint256"
						},
						{
							"internalType": "address payable",
							"name": "_receipient",
							"type": "address"
						}
					],
					"name": "createProposal",
					"outputs": [],
					"stateMutability": "nonpayable",
					"type": "function"
				},
				{
					"inputs": [
						{
							"internalType": "uint256",
							"name": "id",
							"type": "uint256"
						}
					],
					"name": "executeProposal",
					"outputs": [],
					"stateMutability": "view",
					"type": "function"
				},
				{
					"inputs": [
						{
							"internalType": "uint256",
							"name": "",
							"type": "uint256"
						}
					],
					"name": "investorsList",
					"outputs": [
						{
							"internalType": "address",
							"name": "",
							"type": "address"
						}
					],
					"stateMutability": "view",
					"type": "function"
				},
				{
					"inputs": [
						{
							"internalType": "address",
							"name": "",
							"type": "address"
						},
						{
							"internalType": "uint256",
							"name": "",
							"type": "uint256"
						}
					],
					"name": "isVoted",
					"outputs": [
						{
							"internalType": "bool",
							"name": "",
							"type": "bool"
						}
					],
					"stateMutability": "view",
					"type": "function"
				},
				{
					"inputs": [],
					"name": "manager",
					"outputs": [
						{
							"internalType": "address",
							"name": "",
							"type": "address"
						}
					],
					"stateMutability": "view",
					"type": "function"
				},
				{
					"inputs": [],
					"name": "nextProposalId",
					"outputs": [
						{
							"internalType": "uint256",
							"name": "",
							"type": "uint256"
						}
					],
					"stateMutability": "view",
					"type": "function"
				},
				{
					"inputs": [
						{
							"internalType": "address",
							"name": "",
							"type": "address"
						}
					],
					"name": "numberOfTokens",
					"outputs": [
						{
							"internalType": "uint256",
							"name": "",
							"type": "uint256"
						}
					],
					"stateMutability": "view",
					"type": "function"
				},
				{
					"inputs": [
						{
							"internalType": "uint256",
							"name": "",
							"type": "uint256"
						}
					],
					"name": "proposals",
					"outputs": [
						{
							"internalType": "uint256",
							"name": "id",
							"type": "uint256"
						},
						{
							"internalType": "string",
							"name": "description",
							"type": "string"
						},
						{
							"internalType": "uint256",
							"name": "amount",
							"type": "uint256"
						},
						{
							"internalType": "address payable",
							"name": "receipient",
							"type": "address"
						},
						{
							"internalType": "uint256",
							"name": "votes",
							"type": "uint256"
						},
						{
							"internalType": "uint256",
							"name": "end",
							"type": "uint256"
						},
						{
							"internalType": "bool",
							"name": "isExecuted",
							"type": "bool"
						}
					],
					"stateMutability": "view",
					"type": "function"
				},
				{
					"inputs": [],
					"name": "quorum",
					"outputs": [
						{
							"internalType": "uint256",
							"name": "",
							"type": "uint256"
						}
					],
					"stateMutability": "view",
					"type": "function"
				},
				{
					"inputs": [
						{
							"internalType": "uint256",
							"name": "amount",
							"type": "uint256"
						}
					],
					"name": "redeemTokens",
					"outputs": [],
					"stateMutability": "nonpayable",
					"type": "function"
				},
				{
					"inputs": [],
					"name": "totalTokens",
					"outputs": [
						{
							"internalType": "uint256",
							"name": "",
							"type": "uint256"
						}
					],
					"stateMutability": "view",
					"type": "function"
				},
				{
					"inputs": [
						{
							"internalType": "uint256",
							"name": "_amount",
							"type": "uint256"
						},
						{
							"internalType": "address",
							"name": "_to",
							"type": "address"
						}
					],
					"name": "trasferTokens",
					"outputs": [],
					"stateMutability": "nonpayable",
					"type": "function"
				},
				{
					"inputs": [
						{
							"internalType": "uint256",
							"name": "id",
							"type": "uint256"
						}
					],
					"name": "voteProposal",
					"outputs": [],
					"stateMutability": "nonpayable",
					"type": "function"
				},
				{
					"inputs": [],
					"name": "voteTime",
					"outputs": [
						{
							"internalType": "uint256",
							"name": "",
							"type": "uint256"
						}
					],
					"stateMutability": "view",
					"type": "function"
				}
			],
			"devdoc": {
				"kind": "dev",
				"methods": {},
				"version": 1
			},
			"evm": {
				"assembly": "    /* \"contracts/DAO.sol\":75:4329  contract DAO... */\n  mstore(0x40, 0x80)\n    /* \"contracts/DAO.sol\":794:1137  constructor(uint _contributionTimeEnd, uint _voteTime, uint _quorum){... */\n  callvalue\n  dup1\n  iszero\n  tag_1\n  jumpi\n  0x00\n  dup1\n  revert\ntag_1:\n  pop\n  mload(0x40)\n  sub(codesize, bytecodeSize)\n  dup1\n  bytecodeSize\n  dup4\n  codecopy\n  dup2\n  dup2\n  add\n  0x40\n  mstore\n  dup2\n  add\n  swap1\n  tag_2\n  swap2\n  swap1\n  tag_3\n  jump\t// in\ntag_2:\n    /* \"contracts/DAO.sol\":889:890  0 */\n  0x00\n    /* \"contracts/DAO.sol\":881:888  _quorum */\n  dup2\n    /* \"contracts/DAO.sol\":881:890  _quorum>0 */\n  gt\n    /* \"contracts/DAO.sol\":881:905  _quorum>0 && quorum<=100 */\n  dup1\n  iszero\n  tag_6\n  jumpi\n  pop\n    /* \"contracts/DAO.sol\":902:905  100 */\n  0x64\n    /* \"contracts/DAO.sol\":894:900  quorum */\n  sload(0x08)\n    /* \"contracts/DAO.sol\":894:905  quorum<=100 */\n  gt\n  iszero\n    /* \"contracts/DAO.sol\":881:905  _quorum>0 && quorum<=100 */\ntag_6:\n    /* \"contracts/DAO.sol\":873:930  require(_quorum>0 && quorum<=100, \"Invalid quorum value\") */\n  tag_7\n  jumpi\n  mload(0x40)\n  0x08c379a000000000000000000000000000000000000000000000000000000000\n  dup2\n  mstore\n  0x04\n  add\n  tag_8\n  swap1\n  tag_9\n  jump\t// in\ntag_8:\n  mload(0x40)\n  dup1\n  swap2\n  sub\n  swap1\n  revert\ntag_7:\n    /* \"contracts/DAO.sol\":981:1001  _contributionTimeEnd */\n  dup3\n    /* \"contracts/DAO.sol\":963:978  block.timestamp */\n  timestamp\n    /* \"contracts/DAO.sol\":963:1001  block.timestamp + _contributionTimeEnd */\n  tag_10\n  swap2\n  swap1\n  tag_11\n  jump\t// in\ntag_10:\n    /* \"contracts/DAO.sol\":941:960  contributionTimeEnd */\n  0x06\n    /* \"contracts/DAO.sol\":941:1001  contributionTimeEnd = block.timestamp + _contributionTimeEnd */\n  dup2\n  swap1\n  sstore\n  pop\n    /* \"contracts/DAO.sol\":1023:1032  _voteTime */\n  dup2\n    /* \"contracts/DAO.sol\":1012:1020  voteTime */\n  0x07\n    /* \"contracts/DAO.sol\":1012:1032  voteTime = _voteTime */\n  dup2\n  swap1\n  sstore\n  pop\n    /* \"contracts/DAO.sol\":1052:1059  _quorum */\n  dup1\n    /* \"contracts/DAO.sol\":1043:1049  quorum */\n  0x08\n    /* \"contracts/DAO.sol\":1043:1059  quorum = _quorum */\n  dup2\n  swap1\n  sstore\n  pop\n    /* \"contracts/DAO.sol\":1080:1090  msg.sender */\n  caller\n    /* \"contracts/DAO.sol\":1070:1077  manager */\n  0x0b\n  0x00\n    /* \"contracts/DAO.sol\":1070:1090  manager = msg.sender */\n  0x0100\n  exp\n  dup2\n  sload\n  dup2\n  0xffffffffffffffffffffffffffffffffffffffff\n  mul\n  not\n  and\n  swap1\n  dup4\n  0xffffffffffffffffffffffffffffffffffffffff\n  and\n  mul\n  or\n  swap1\n  sstore\n  pop\n    /* \"contracts/DAO.sol\":794:1137  constructor(uint _contributionTimeEnd, uint _voteTime, uint _quorum){... */\n  pop\n  pop\n  pop\n    /* \"contracts/DAO.sol\":75:4329  contract DAO... */\n  jump(tag_12)\n    /* \"#utility.yul\":88:205   */\ntag_14:\n    /* \"#utility.yul\":197:198   */\n  0x00\n    /* \"#utility.yul\":194:195   */\n  dup1\n    /* \"#utility.yul\":187:199   */\n  revert\n    /* \"#utility.yul\":334:411   */\ntag_16:\n    /* \"#utility.yul\":371:378   */\n  0x00\n    /* \"#utility.yul\":400:405   */\n  dup2\n    /* \"#utility.yul\":389:405   */\n  swap1\n  pop\n    /* \"#utility.yul\":334:411   */\n  swap2\n  swap1\n  pop\n  jump\t// out\n    /* \"#utility.yul\":417:539   */\ntag_17:\n    /* \"#utility.yul\":490:514   */\n  tag_29\n    /* \"#utility.yul\":508:513   */\n  dup2\n    /* \"#utility.yul\":490:514   */\n  tag_16\n  jump\t// in\ntag_29:\n    /* \"#utility.yul\":483:488   */\n  dup2\n    /* \"#utility.yul\":480:515   */\n  eq\n    /* \"#utility.yul\":470:533   */\n  tag_30\n  jumpi\n    /* \"#utility.yul\":529:530   */\n  0x00\n    /* \"#utility.yul\":526:527   */\n  dup1\n    /* \"#utility.yul\":519:531   */\n  revert\n    /* \"#utility.yul\":470:533   */\ntag_30:\n    /* \"#utility.yul\":417:539   */\n  pop\n  jump\t// out\n    /* \"#utility.yul\":545:688   */\ntag_18:\n    /* \"#utility.yul\":602:607   */\n  0x00\n    /* \"#utility.yul\":633:639   */\n  dup2\n    /* \"#utility.yul\":627:640   */\n  mload\n    /* \"#utility.yul\":618:640   */\n  swap1\n  pop\n    /* \"#utility.yul\":649:682   */\n  tag_32\n    /* \"#utility.yul\":676:681   */\n  dup2\n    /* \"#utility.yul\":649:682   */\n  tag_17\n  jump\t// in\ntag_32:\n    /* \"#utility.yul\":545:688   */\n  swap3\n  swap2\n  pop\n  pop\n  jump\t// out\n    /* \"#utility.yul\":694:1357   */\ntag_3:\n    /* \"#utility.yul\":782:788   */\n  0x00\n    /* \"#utility.yul\":790:796   */\n  dup1\n    /* \"#utility.yul\":798:804   */\n  0x00\n    /* \"#utility.yul\":847:849   */\n  0x60\n    /* \"#utility.yul\":835:844   */\n  dup5\n    /* \"#utility.yul\":826:833   */\n  dup7\n    /* \"#utility.yul\":822:845   */\n  sub\n    /* \"#utility.yul\":818:850   */\n  slt\n    /* \"#utility.yul\":815:934   */\n  iszero\n  tag_34\n  jumpi\n    /* \"#utility.yul\":853:932   */\n  tag_35\n  tag_14\n  jump\t// in\ntag_35:\n    /* \"#utility.yul\":815:934   */\ntag_34:\n    /* \"#utility.yul\":973:974   */\n  0x00\n    /* \"#utility.yul\":998:1062   */\n  tag_36\n    /* \"#utility.yul\":1054:1061   */\n  dup7\n    /* \"#utility.yul\":1045:1051   */\n  dup3\n    /* \"#utility.yul\":1034:1043   */\n  dup8\n    /* \"#utility.yul\":1030:1052   */\n  add\n    /* \"#utility.yul\":998:1062   */\n  tag_18\n  jump\t// in\ntag_36:\n    /* \"#utility.yul\":988:1062   */\n  swap4\n  pop\n    /* \"#utility.yul\":944:1072   */\n  pop\n    /* \"#utility.yul\":1111:1113   */\n  0x20\n    /* \"#utility.yul\":1137:1201   */\n  tag_37\n    /* \"#utility.yul\":1193:1200   */\n  dup7\n    /* \"#utility.yul\":1184:1190   */\n  dup3\n    /* \"#utility.yul\":1173:1182   */\n  dup8\n    /* \"#utility.yul\":1169:1191   */\n  add\n    /* \"#utility.yul\":1137:1201   */\n  tag_18\n  jump\t// in\ntag_37:\n    /* \"#utility.yul\":1127:1201   */\n  swap3\n  pop\n    /* \"#utility.yul\":1082:1211   */\n  pop\n    /* \"#utility.yul\":1250:1252   */\n  0x40\n    /* \"#utility.yul\":1276:1340   */\n  tag_38\n    /* \"#utility.yul\":1332:1339   */\n  dup7\n    /* \"#utility.yul\":1323:1329   */\n  dup3\n    /* \"#utility.yul\":1312:1321   */\n  dup8\n    /* \"#utility.yul\":1308:1330   */\n  add\n    /* \"#utility.yul\":1276:1340   */\n  tag_18\n  jump\t// in\ntag_38:\n    /* \"#utility.yul\":1266:1340   */\n  swap2\n  pop\n    /* \"#utility.yul\":1221:1350   */\n  pop\n    /* \"#utility.yul\":694:1357   */\n  swap3\n  pop\n  swap3\n  pop\n  swap3\n  jump\t// out\n    /* \"#utility.yul\":1363:1532   */\ntag_19:\n    /* \"#utility.yul\":1447:1458   */\n  0x00\n    /* \"#utility.yul\":1481:1487   */\n  dup3\n    /* \"#utility.yul\":1476:1479   */\n  dup3\n    /* \"#utility.yul\":1469:1488   */\n  mstore\n    /* \"#utility.yul\":1521:1525   */\n  0x20\n    /* \"#utility.yul\":1516:1519   */\n  dup3\n    /* \"#utility.yul\":1512:1526   */\n  add\n    /* \"#utility.yul\":1497:1526   */\n  swap1\n  pop\n    /* \"#utility.yul\":1363:1532   */\n  swap3\n  swap2\n  pop\n  pop\n  jump\t// out\n    /* \"#utility.yul\":1538:1708   */\ntag_20:\n    /* \"#utility.yul\":1678:1700   */\n  0x496e76616c69642071756f72756d2076616c7565000000000000000000000000\n    /* \"#utility.yul\":1674:1675   */\n  0x00\n    /* \"#utility.yul\":1666:1672   */\n  dup3\n    /* \"#utility.yul\":1662:1676   */\n  add\n    /* \"#utility.yul\":1655:1701   */\n  mstore\n    /* \"#utility.yul\":1538:1708   */\n  pop\n  jump\t// out\n    /* \"#utility.yul\":1714:2080   */\ntag_21:\n    /* \"#utility.yul\":1856:1859   */\n  0x00\n    /* \"#utility.yul\":1877:1944   */\n  tag_42\n    /* \"#utility.yul\":1941:1943   */\n  0x14\n    /* \"#utility.yul\":1936:1939   */\n  dup4\n    /* \"#utility.yul\":1877:1944   */\n  tag_19\n  jump\t// in\ntag_42:\n    /* \"#utility.yul\":1870:1944   */\n  swap2\n  pop\n    /* \"#utility.yul\":1953:2046   */\n  tag_43\n    /* \"#utility.yul\":2042:2045   */\n  dup3\n    /* \"#utility.yul\":1953:2046   */\n  tag_20\n  jump\t// in\ntag_43:\n    /* \"#utility.yul\":2071:2073   */\n  0x20\n    /* \"#utility.yul\":2066:2069   */\n  dup3\n    /* \"#utility.yul\":2062:2074   */\n  add\n    /* \"#utility.yul\":2055:2074   */\n  swap1\n  pop\n    /* \"#utility.yul\":1714:2080   */\n  swap2\n  swap1\n  pop\n  jump\t// out\n    /* \"#utility.yul\":2086:2505   */\ntag_9:\n    /* \"#utility.yul\":2252:2256   */\n  0x00\n    /* \"#utility.yul\":2290:2292   */\n  0x20\n    /* \"#utility.yul\":2279:2288   */\n  dup3\n    /* \"#utility.yul\":2275:2293   */\n  add\n    /* \"#utility.yul\":2267:2293   */\n  swap1\n  pop\n    /* \"#utility.yul\":2339:2348   */\n  dup2\n    /* \"#utility.yul\":2333:2337   */\n  dup2\n    /* \"#utility.yul\":2329:2349   */\n  sub\n    /* \"#utility.yul\":2325:2326   */\n  0x00\n    /* \"#utility.yul\":2314:2323   */\n  dup4\n    /* \"#utility.yul\":2310:2327   */\n  add\n    /* \"#utility.yul\":2303:2350   */\n  mstore\n    /* \"#utility.yul\":2367:2498   */\n  tag_45\n    /* \"#utility.yul\":2493:2497   */\n  dup2\n    /* \"#utility.yul\":2367:2498   */\n  tag_21\n  jump\t// in\ntag_45:\n    /* \"#utility.yul\":2359:2498   */\n  swap1\n  pop\n    /* \"#utility.yul\":2086:2505   */\n  swap2\n  swap1\n  pop\n  jump\t// out\n    /* \"#utility.yul\":2511:2691   */\ntag_22:\n    /* \"#utility.yul\":2559:2636   */\n  0x4e487b7100000000000000000000000000000000000000000000000000000000\n    /* \"#utility.yul\":2556:2557   */\n  0x00\n    /* \"#utility.yul\":2549:2637   */\n  mstore\n    /* \"#utility.yul\":2656:2660   */\n  0x11\n    /* \"#utility.yul\":2653:2654   */\n  0x04\n    /* \"#utility.yul\":2646:2661   */\n  mstore\n    /* \"#utility.yul\":2680:2684   */\n  0x24\n    /* \"#utility.yul\":2677:2678   */\n  0x00\n    /* \"#utility.yul\":2670:2685   */\n  revert\n    /* \"#utility.yul\":2697:2888   */\ntag_11:\n    /* \"#utility.yul\":2737:2740   */\n  0x00\n    /* \"#utility.yul\":2756:2776   */\n  tag_48\n    /* \"#utility.yul\":2774:2775   */\n  dup3\n    /* \"#utility.yul\":2756:2776   */\n  tag_16\n  jump\t// in\ntag_48:\n    /* \"#utility.yul\":2751:2776   */\n  swap2\n  pop\n    /* \"#utility.yul\":2790:2810   */\n  tag_49\n    /* \"#utility.yul\":2808:2809   */\n  dup4\n    /* \"#utility.yul\":2790:2810   */\n  tag_16\n  jump\t// in\ntag_49:\n    /* \"#utility.yul\":2785:2810   */\n  swap3\n  pop\n    /* \"#utility.yul\":2833:2834   */\n  dup3\n    /* \"#utility.yul\":2830:2831   */\n  dup3\n    /* \"#utility.yul\":2826:2835   */\n  add\n    /* \"#utility.yul\":2819:2835   */\n  swap1\n  pop\n    /* \"#utility.yul\":2854:2857   */\n  dup1\n    /* \"#utility.yul\":2851:2852   */\n  dup3\n    /* \"#utility.yul\":2848:2858   */\n  gt\n    /* \"#utility.yul\":2845:2881   */\n  iszero\n  tag_50\n  jumpi\n    /* \"#utility.yul\":2861:2879   */\n  tag_51\n  tag_22\n  jump\t// in\ntag_51:\n    /* \"#utility.yul\":2845:2881   */\ntag_50:\n    /* \"#utility.yul\":2697:2888   */\n  swap3\n  swap2\n  pop\n  pop\n  jump\t// out\n    /* \"contracts/DAO.sol\":75:4329  contract DAO... */\ntag_12:\n  dataSize(sub_0)\n  dup1\n  dataOffset(sub_0)\n  0x00\n  codecopy\n  0x00\n  return\nstop\n\nsub_0: assembly {\n        /* \"contracts/DAO.sol\":75:4329  contract DAO... */\n      mstore(0x40, 0x80)\n      jumpi(tag_1, lt(calldatasize, 0x04))\n      shr(0xe0, calldataload(0x00))\n      dup1\n      0x50520b1f\n      gt\n      tag_19\n      jumpi\n      dup1\n      0x807896d5\n      gt\n      tag_20\n      jumpi\n      dup1\n      0x807896d5\n      eq\n      tag_14\n      jumpi\n      dup1\n      0x8ee36f05\n      eq\n      tag_15\n      jumpi\n      dup1\n      0xa6e158f8\n      eq\n      tag_16\n      jumpi\n      dup1\n      0xafc8275b\n      eq\n      tag_17\n      jumpi\n      dup1\n      0xbcf93dd6\n      eq\n      tag_18\n      jumpi\n      jump(tag_1)\n    tag_20:\n      dup1\n      0x50520b1f\n      eq\n      tag_10\n      jumpi\n      dup1\n      0x584117ff\n      eq\n      tag_11\n      jumpi\n      dup1\n      0x6ac1e01f\n      eq\n      tag_12\n      jumpi\n      dup1\n      0x7e1c0c09\n      eq\n      tag_13\n      jumpi\n      jump(tag_1)\n    tag_19:\n      dup1\n      0x2ccc8727\n      gt\n      tag_21\n      jumpi\n      dup1\n      0x2ccc8727\n      eq\n      tag_6\n      jumpi\n      dup1\n      0x2ed2cd8f\n      eq\n      tag_7\n      jumpi\n      dup1\n      0x46fcff4c\n      eq\n      tag_8\n      jumpi\n      dup1\n      0x481c6a75\n      eq\n      tag_9\n      jumpi\n      jump(tag_1)\n    tag_21:\n      dup1\n      0x013cf08b\n      eq\n      tag_2\n      jumpi\n      dup1\n      0x0d61b519\n      eq\n      tag_3\n      jumpi\n      dup1\n      0x1703a018\n      eq\n      tag_4\n      jumpi\n      dup1\n      0x2ab09d14\n      eq\n      tag_5\n      jumpi\n    tag_1:\n      0x00\n      dup1\n      revert\n        /* \"contracts/DAO.sol\":494:534  mapping(uint=>Proposal) public proposals */\n    tag_2:\n      callvalue\n      dup1\n      iszero\n      tag_22\n      jumpi\n      0x00\n      dup1\n      revert\n    tag_22:\n      pop\n      tag_23\n      0x04\n      dup1\n      calldatasize\n      sub\n      dup2\n      add\n      swap1\n      tag_24\n      swap2\n      swap1\n      tag_25\n      jump\t// in\n    tag_24:\n      tag_26\n      jump\t// in\n    tag_23:\n      mload(0x40)\n      tag_27\n      swap8\n      swap7\n      swap6\n      swap5\n      swap4\n      swap3\n      swap2\n      swap1\n      tag_28\n      jump\t// in\n    tag_27:\n      mload(0x40)\n      dup1\n      swap2\n      sub\n      swap1\n      return\n        /* \"contracts/DAO.sol\":3774:4326  function executeProposal(uint id) public view onlyManager()... */\n    tag_3:\n      callvalue\n      dup1\n      iszero\n      tag_29\n      jumpi\n      0x00\n      dup1\n      revert\n    tag_29:\n      pop\n      tag_30\n      0x04\n      dup1\n      calldatasize\n      sub\n      dup2\n      add\n      swap1\n      tag_31\n      swap2\n      swap1\n      tag_25\n      jump\t// in\n    tag_31:\n      tag_32\n      jump\t// in\n    tag_30:\n      stop\n        /* \"contracts/DAO.sol\":638:656  uint public quorum */\n    tag_4:\n      callvalue\n      dup1\n      iszero\n      tag_33\n      jumpi\n      0x00\n      dup1\n      revert\n    tag_33:\n      pop\n      tag_34\n      tag_35\n      jump\t// in\n    tag_34:\n      mload(0x40)\n      tag_36\n      swap2\n      swap1\n      tag_37\n      jump\t// in\n    tag_36:\n      mload(0x40)\n      dup1\n      swap2\n      sub\n      swap1\n      return\n        /* \"contracts/DAO.sol\":696:722  uint public nextProposalId */\n    tag_5:\n      callvalue\n      dup1\n      iszero\n      tag_38\n      jumpi\n      0x00\n      dup1\n      revert\n    tag_38:\n      pop\n      tag_39\n      tag_40\n      jump\t// in\n    tag_39:\n      mload(0x40)\n      tag_41\n      swap2\n      swap1\n      tag_37\n      jump\t// in\n    tag_41:\n      mload(0x40)\n      dup1\n      swap2\n      sub\n      swap1\n      return\n        /* \"contracts/DAO.sol\":457:487  address[] public investorsList */\n    tag_6:\n      callvalue\n      dup1\n      iszero\n      tag_42\n      jumpi\n      0x00\n      dup1\n      revert\n    tag_42:\n      pop\n      tag_43\n      0x04\n      dup1\n      calldatasize\n      sub\n      dup2\n      add\n      swap1\n      tag_44\n      swap2\n      swap1\n      tag_25\n      jump\t// in\n    tag_44:\n      tag_45\n      jump\t// in\n    tag_43:\n      mload(0x40)\n      tag_46\n      swap2\n      swap1\n      tag_47\n      jump\t// in\n    tag_46:\n      mload(0x40)\n      dup1\n      swap2\n      sub\n      swap1\n      return\n        /* \"contracts/DAO.sol\":2398:2865  function trasferTokens(uint _amount, address _to) public onlyInverstor()... */\n    tag_7:\n      callvalue\n      dup1\n      iszero\n      tag_48\n      jumpi\n      0x00\n      dup1\n      revert\n    tag_48:\n      pop\n      tag_49\n      0x04\n      dup1\n      calldatasize\n      sub\n      dup2\n      add\n      swap1\n      tag_50\n      swap2\n      swap1\n      tag_51\n      jump\t// in\n    tag_50:\n      tag_52\n      jump\t// in\n    tag_49:\n      stop\n        /* \"contracts/DAO.sol\":663:689  uint public availableFunds */\n    tag_8:\n      callvalue\n      dup1\n      iszero\n      tag_53\n      jumpi\n      0x00\n      dup1\n      revert\n    tag_53:\n      pop\n      tag_54\n      tag_55\n      jump\t// in\n    tag_54:\n      mload(0x40)\n      tag_56\n      swap2\n      swap1\n      tag_37\n      jump\t// in\n    tag_56:\n      mload(0x40)\n      dup1\n      swap2\n      sub\n      swap1\n      return\n        /* \"contracts/DAO.sol\":731:753  address public manager */\n    tag_9:\n      callvalue\n      dup1\n      iszero\n      tag_57\n      jumpi\n      0x00\n      dup1\n      revert\n    tag_57:\n      pop\n      tag_58\n      tag_59\n      jump\t// in\n    tag_58:\n      mload(0x40)\n      tag_60\n      swap2\n      swap1\n      tag_47\n      jump\t// in\n    tag_60:\n      mload(0x40)\n      dup1\n      swap2\n      sub\n      swap1\n      return\n        /* \"contracts/DAO.sol\":1404:1810  function contribution() public payable... */\n    tag_10:\n      tag_61\n      tag_62\n      jump\t// in\n    tag_61:\n      stop\n        /* \"contracts/DAO.sol\":347:391  mapping(address=>uint) public numberOfTokens */\n    tag_11:\n      callvalue\n      dup1\n      iszero\n      tag_63\n      jumpi\n      0x00\n      dup1\n      revert\n    tag_63:\n      pop\n      tag_64\n      0x04\n      dup1\n      calldatasize\n      sub\n      dup2\n      add\n      swap1\n      tag_65\n      swap2\n      swap1\n      tag_66\n      jump\t// in\n    tag_65:\n      tag_67\n      jump\t// in\n    tag_64:\n      mload(0x40)\n      tag_68\n      swap2\n      swap1\n      tag_37\n      jump\t// in\n    tag_68:\n      mload(0x40)\n      dup1\n      swap2\n      sub\n      swap1\n      return\n        /* \"contracts/DAO.sol\":2873:3258  function createProposal(string calldata _description , uint _amount, address payable _receipient) public onlyManager()... */\n    tag_12:\n      callvalue\n      dup1\n      iszero\n      tag_69\n      jumpi\n      0x00\n      dup1\n      revert\n    tag_69:\n      pop\n      tag_70\n      0x04\n      dup1\n      calldatasize\n      sub\n      dup2\n      add\n      swap1\n      tag_71\n      swap2\n      swap1\n      tag_72\n      jump\t// in\n    tag_71:\n      tag_73\n      jump\t// in\n    tag_70:\n      stop\n        /* \"contracts/DAO.sol\":543:566  uint public totalTokens */\n    tag_13:\n      callvalue\n      dup1\n      iszero\n      tag_74\n      jumpi\n      0x00\n      dup1\n      revert\n    tag_74:\n      pop\n      tag_75\n      tag_76\n      jump\t// in\n    tag_75:\n      mload(0x40)\n      tag_77\n      swap2\n      swap1\n      tag_37\n      jump\t// in\n    tag_77:\n      mload(0x40)\n      dup1\n      swap2\n      sub\n      swap1\n      return\n        /* \"contracts/DAO.sol\":3266:3766  function voteProposal(uint id) public onlyInverstor()... */\n    tag_14:\n      callvalue\n      dup1\n      iszero\n      tag_78\n      jumpi\n      0x00\n      dup1\n      revert\n    tag_78:\n      pop\n      tag_79\n      0x04\n      dup1\n      calldatasize\n      sub\n      dup2\n      add\n      swap1\n      tag_80\n      swap2\n      swap1\n      tag_25\n      jump\t// in\n    tag_80:\n      tag_81\n      jump\t// in\n    tag_79:\n      stop\n        /* \"contracts/DAO.sol\":398:450  mapping(address=>mapping(uint=>bool)) public isVoted */\n    tag_15:\n      callvalue\n      dup1\n      iszero\n      tag_82\n      jumpi\n      0x00\n      dup1\n      revert\n    tag_82:\n      pop\n      tag_83\n      0x04\n      dup1\n      calldatasize\n      sub\n      dup2\n      add\n      swap1\n      tag_84\n      swap2\n      swap1\n      tag_85\n      jump\t// in\n    tag_84:\n      tag_86\n      jump\t// in\n    tag_83:\n      mload(0x40)\n      tag_87\n      swap2\n      swap1\n      tag_88\n      jump\t// in\n    tag_87:\n      mload(0x40)\n      dup1\n      swap2\n      sub\n      swap1\n      return\n        /* \"contracts/DAO.sol\":1990:2390  function redeemTokens(uint amount) public onlyInverstor()... */\n    tag_16:\n      callvalue\n      dup1\n      iszero\n      tag_89\n      jumpi\n      0x00\n      dup1\n      revert\n    tag_89:\n      pop\n      tag_90\n      0x04\n      dup1\n      calldatasize\n      sub\n      dup2\n      add\n      swap1\n      tag_91\n      swap2\n      swap1\n      tag_25\n      jump\t// in\n    tag_91:\n      tag_92\n      jump\t// in\n    tag_90:\n      stop\n        /* \"contracts/DAO.sol\":573:604  uint public contributionTimeEnd */\n    tag_17:\n      callvalue\n      dup1\n      iszero\n      tag_93\n      jumpi\n      0x00\n      dup1\n      revert\n    tag_93:\n      pop\n      tag_94\n      tag_95\n      jump\t// in\n    tag_94:\n      mload(0x40)\n      tag_96\n      swap2\n      swap1\n      tag_37\n      jump\t// in\n    tag_96:\n      mload(0x40)\n      dup1\n      swap2\n      sub\n      swap1\n      return\n        /* \"contracts/DAO.sol\":611:631  uint public voteTime */\n    tag_18:\n      callvalue\n      dup1\n      iszero\n      tag_97\n      jumpi\n      0x00\n      dup1\n      revert\n    tag_97:\n      pop\n      tag_98\n      tag_99\n      jump\t// in\n    tag_98:\n      mload(0x40)\n      tag_100\n      swap2\n      swap1\n      tag_37\n      jump\t// in\n    tag_100:\n      mload(0x40)\n      dup1\n      swap2\n      sub\n      swap1\n      return\n        /* \"contracts/DAO.sol\":494:534  mapping(uint=>Proposal) public proposals */\n    tag_26:\n      mstore(0x20, 0x04)\n      dup1\n      0x00\n      mstore\n      keccak256(0x00, 0x40)\n      0x00\n      swap2\n      pop\n      swap1\n      pop\n      dup1\n      0x00\n      add\n      sload\n      swap1\n      dup1\n      0x01\n      add\n      dup1\n      sload\n      tag_101\n      swap1\n      tag_102\n      jump\t// in\n    tag_101:\n      dup1\n      0x1f\n      add\n      0x20\n      dup1\n      swap2\n      div\n      mul\n      0x20\n      add\n      mload(0x40)\n      swap1\n      dup2\n      add\n      0x40\n      mstore\n      dup1\n      swap3\n      swap2\n      swap1\n      dup2\n      dup2\n      mstore\n      0x20\n      add\n      dup3\n      dup1\n      sload\n      tag_103\n      swap1\n      tag_102\n      jump\t// in\n    tag_103:\n      dup1\n      iszero\n      tag_104\n      jumpi\n      dup1\n      0x1f\n      lt\n      tag_105\n      jumpi\n      0x0100\n      dup1\n      dup4\n      sload\n      div\n      mul\n      dup4\n      mstore\n      swap2\n      0x20\n      add\n      swap2\n      jump(tag_104)\n    tag_105:\n      dup3\n      add\n      swap2\n      swap1\n      0x00\n      mstore\n      keccak256(0x00, 0x20)\n      swap1\n    tag_106:\n      dup2\n      sload\n      dup2\n      mstore\n      swap1\n      0x01\n      add\n      swap1\n      0x20\n      add\n      dup1\n      dup4\n      gt\n      tag_106\n      jumpi\n      dup3\n      swap1\n      sub\n      0x1f\n      and\n      dup3\n      add\n      swap2\n    tag_104:\n      pop\n      pop\n      pop\n      pop\n      pop\n      swap1\n      dup1\n      0x02\n      add\n      sload\n      swap1\n      dup1\n      0x03\n      add\n      0x00\n      swap1\n      sload\n      swap1\n      0x0100\n      exp\n      swap1\n      div\n      0xffffffffffffffffffffffffffffffffffffffff\n      and\n      swap1\n      dup1\n      0x04\n      add\n      sload\n      swap1\n      dup1\n      0x05\n      add\n      sload\n      swap1\n      dup1\n      0x06\n      add\n      0x00\n      swap1\n      sload\n      swap1\n      0x0100\n      exp\n      swap1\n      div\n      0xff\n      and\n      swap1\n      pop\n      dup8\n      jump\t// out\n        /* \"contracts/DAO.sol\":3774:4326  function executeProposal(uint id) public view onlyManager()... */\n    tag_32:\n        /* \"contracts/DAO.sol\":1338:1348  msg.sender */\n      caller\n        /* \"contracts/DAO.sol\":1327:1348  manager == msg.sender */\n      0xffffffffffffffffffffffffffffffffffffffff\n      and\n        /* \"contracts/DAO.sol\":1327:1334  manager */\n      0x0b\n      0x00\n      swap1\n      sload\n      swap1\n      0x0100\n      exp\n      swap1\n      div\n      0xffffffffffffffffffffffffffffffffffffffff\n      and\n        /* \"contracts/DAO.sol\":1327:1348  manager == msg.sender */\n      0xffffffffffffffffffffffffffffffffffffffff\n      and\n      eq\n        /* \"contracts/DAO.sol\":1319:1376  require(manager == msg.sender, \"You are not an investor\") */\n      tag_108\n      jumpi\n      mload(0x40)\n      0x08c379a000000000000000000000000000000000000000000000000000000000\n      dup2\n      mstore\n      0x04\n      add\n      tag_109\n      swap1\n      tag_110\n      jump\t// in\n    tag_109:\n      mload(0x40)\n      dup1\n      swap2\n      sub\n      swap1\n      revert\n    tag_108:\n        /* \"contracts/DAO.sol\":3850:3875  Proposal storage proposal */\n      0x00\n        /* \"contracts/DAO.sol\":3878:3887  proposals */\n      0x04\n        /* \"contracts/DAO.sol\":3878:3891  proposals[id] */\n      0x00\n        /* \"contracts/DAO.sol\":3888:3890  id */\n      dup4\n        /* \"contracts/DAO.sol\":3878:3891  proposals[id] */\n      dup2\n      mstore\n      0x20\n      add\n      swap1\n      dup2\n      mstore\n      0x20\n      add\n      0x00\n      keccak256\n        /* \"contracts/DAO.sol\":3850:3891  Proposal storage proposal = proposals[id] */\n      swap1\n      pop\n        /* \"contracts/DAO.sol\":3943:3948  false */\n      0x00\n        /* \"contracts/DAO.sol\":3920:3948  proposal.isExecuted == false */\n      iszero\n      iszero\n        /* \"contracts/DAO.sol\":3920:3928  proposal */\n      dup2\n        /* \"contracts/DAO.sol\":3920:3939  proposal.isExecuted */\n      0x06\n      add\n      0x00\n      swap1\n      sload\n      swap1\n      0x0100\n      exp\n      swap1\n      div\n      0xff\n      and\n        /* \"contracts/DAO.sol\":3920:3948  proposal.isExecuted == false */\n      iszero\n      iszero\n      eq\n        /* \"contracts/DAO.sol\":3912:3992  require(proposal.isExecuted == false, \"This Proposal has already been executed\") */\n      tag_112\n      jumpi\n      mload(0x40)\n      0x08c379a000000000000000000000000000000000000000000000000000000000\n      dup2\n      mstore\n      0x04\n      add\n      tag_113\n      swap1\n      tag_114\n      jump\t// in\n    tag_113:\n      mload(0x40)\n      dup1\n      swap2\n      sub\n      swap1\n      revert\n    tag_112:\n        /* \"contracts/DAO.sol\":4030:4038  proposal */\n      dup1\n        /* \"contracts/DAO.sol\":4030:4042  proposal.end */\n      0x05\n      add\n      sload\n        /* \"contracts/DAO.sol\":4011:4026  block.timestamp */\n      timestamp\n        /* \"contracts/DAO.sol\":4011:4042  block.timestamp >= proposal.end */\n      lt\n      iszero\n        /* \"contracts/DAO.sol\":4003:4093  require(block.timestamp >= proposal.end, \"Voting time for this Proposal hasn't ended yet\") */\n      tag_115\n      jumpi\n      mload(0x40)\n      0x08c379a000000000000000000000000000000000000000000000000000000000\n      dup2\n      mstore\n      0x04\n      add\n      tag_116\n      swap1\n      tag_117\n      jump\t// in\n    tag_116:\n      mload(0x40)\n      dup1\n      swap2\n      sub\n      swap1\n      revert\n    tag_115:\n        /* \"contracts/DAO.sol\":4108:4114  uint i */\n      0x00\n        /* \"contracts/DAO.sol\":4104:4256  for(uint i=0; i < nextProposalId; i++){... */\n    tag_118:\n        /* \"contracts/DAO.sol\":4122:4136  nextProposalId */\n      sload(0x0a)\n        /* \"contracts/DAO.sol\":4118:4119  i */\n      dup2\n        /* \"contracts/DAO.sol\":4118:4136  i < nextProposalId */\n      lt\n        /* \"contracts/DAO.sol\":4104:4256  for(uint i=0; i < nextProposalId; i++){... */\n      iszero\n      tag_119\n      jumpi\n        /* \"contracts/DAO.sol\":4183:4192  proposals */\n      0x04\n        /* \"contracts/DAO.sol\":4183:4195  proposals[i] */\n      0x00\n        /* \"contracts/DAO.sol\":4193:4194  i */\n      dup3\n        /* \"contracts/DAO.sol\":4183:4195  proposals[i] */\n      dup2\n      mstore\n      0x20\n      add\n      swap1\n      dup2\n      mstore\n      0x20\n      add\n      0x00\n      keccak256\n        /* \"contracts/DAO.sol\":4183:4201  proposals[i].votes */\n      0x04\n      add\n      sload\n        /* \"contracts/DAO.sol\":4165:4173  proposal */\n      dup3\n        /* \"contracts/DAO.sol\":4165:4179  proposal.votes */\n      0x04\n      add\n      sload\n        /* \"contracts/DAO.sol\":4165:4201  proposal.votes >= proposals[i].votes */\n      lt\n      iszero\n        /* \"contracts/DAO.sol\":4157:4244  require(proposal.votes >= proposals[i].votes, \"This Proposal is not the highest voted\") */\n      tag_121\n      jumpi\n      mload(0x40)\n      0x08c379a000000000000000000000000000000000000000000000000000000000\n      dup2\n      mstore\n      0x04\n      add\n      tag_122\n      swap1\n      tag_123\n      jump\t// in\n    tag_122:\n      mload(0x40)\n      dup1\n      swap2\n      sub\n      swap1\n      revert\n    tag_121:\n        /* \"contracts/DAO.sol\":4138:4141  i++ */\n      dup1\n      dup1\n      tag_124\n      swap1\n      tag_125\n      jump\t// in\n    tag_124:\n      swap2\n      pop\n      pop\n        /* \"contracts/DAO.sol\":4104:4256  for(uint i=0; i < nextProposalId; i++){... */\n      jump(tag_118)\n    tag_119:\n      pop\n        /* \"contracts/DAO.sol\":3839:4326  {... */\n      pop\n        /* \"contracts/DAO.sol\":3774:4326  function executeProposal(uint id) public view onlyManager()... */\n      pop\n      jump\t// out\n        /* \"contracts/DAO.sol\":638:656  uint public quorum */\n    tag_35:\n      sload(0x08)\n      dup2\n      jump\t// out\n        /* \"contracts/DAO.sol\":696:722  uint public nextProposalId */\n    tag_40:\n      sload(0x0a)\n      dup2\n      jump\t// out\n        /* \"contracts/DAO.sol\":457:487  address[] public investorsList */\n    tag_45:\n      0x03\n      dup2\n      dup2\n      sload\n      dup2\n      lt\n      tag_126\n      jumpi\n      0x00\n      dup1\n      revert\n    tag_126:\n      swap1\n      0x00\n      mstore\n      keccak256(0x00, 0x20)\n      add\n      0x00\n      swap2\n      pop\n      sload\n      swap1\n      0x0100\n      exp\n      swap1\n      div\n      0xffffffffffffffffffffffffffffffffffffffff\n      and\n      dup2\n      jump\t// out\n        /* \"contracts/DAO.sol\":2398:2865  function trasferTokens(uint _amount, address _to) public onlyInverstor()... */\n    tag_52:\n        /* \"contracts/DAO.sol\":1220:1224  true */\n      0x01\n        /* \"contracts/DAO.sol\":1194:1224  isInvestor[msg.sender] == true */\n      iszero\n      iszero\n        /* \"contracts/DAO.sol\":1194:1204  isInvestor */\n      0x00\n        /* \"contracts/DAO.sol\":1194:1216  isInvestor[msg.sender] */\n      dup1\n        /* \"contracts/DAO.sol\":1205:1215  msg.sender */\n      caller\n        /* \"contracts/DAO.sol\":1194:1216  isInvestor[msg.sender] */\n      0xffffffffffffffffffffffffffffffffffffffff\n      and\n      0xffffffffffffffffffffffffffffffffffffffff\n      and\n      dup2\n      mstore\n      0x20\n      add\n      swap1\n      dup2\n      mstore\n      0x20\n      add\n      0x00\n      keccak256\n      0x00\n      swap1\n      sload\n      swap1\n      0x0100\n      exp\n      swap1\n      div\n      0xff\n      and\n        /* \"contracts/DAO.sol\":1194:1224  isInvestor[msg.sender] == true */\n      iszero\n      iszero\n      eq\n        /* \"contracts/DAO.sol\":1186:1252  require(isInvestor[msg.sender] == true, \"You are not an investor\") */\n      tag_129\n      jumpi\n      mload(0x40)\n      0x08c379a000000000000000000000000000000000000000000000000000000000\n      dup2\n      mstore\n      0x04\n      add\n      tag_130\n      swap1\n      tag_110\n      jump\t// in\n    tag_130:\n      mload(0x40)\n      dup1\n      swap2\n      sub\n      swap1\n      revert\n    tag_129:\n        /* \"contracts/DAO.sol\":2506:2520  numberOfTokens */\n      0x01\n        /* \"contracts/DAO.sol\":2506:2532  numberOfTokens[msg.sender] */\n      0x00\n        /* \"contracts/DAO.sol\":2521:2531  msg.sender */\n      caller\n        /* \"contracts/DAO.sol\":2506:2532  numberOfTokens[msg.sender] */\n      0xffffffffffffffffffffffffffffffffffffffff\n      and\n      0xffffffffffffffffffffffffffffffffffffffff\n      and\n      dup2\n      mstore\n      0x20\n      add\n      swap1\n      dup2\n      mstore\n      0x20\n      add\n      0x00\n      keccak256\n      sload\n        /* \"contracts/DAO.sol\":2495:2502  _amount */\n      dup3\n        /* \"contracts/DAO.sol\":2495:2532  _amount <= numberOfTokens[msg.sender] */\n      gt\n      iszero\n        /* \"contracts/DAO.sol\":2487:2565  require(_amount <= numberOfTokens[msg.sender], \"You don't have enough tokens\") */\n      tag_132\n      jumpi\n      mload(0x40)\n      0x08c379a000000000000000000000000000000000000000000000000000000000\n      dup2\n      mstore\n      0x04\n      add\n      tag_133\n      swap1\n      tag_134\n      jump\t// in\n    tag_133:\n      mload(0x40)\n      dup1\n      swap2\n      sub\n      swap1\n      revert\n    tag_132:\n        /* \"contracts/DAO.sol\":2608:2615  _amount */\n      dup2\n        /* \"contracts/DAO.sol\":2578:2592  numberOfTokens */\n      0x01\n        /* \"contracts/DAO.sol\":2578:2604  numberOfTokens[msg.sender] */\n      0x00\n        /* \"contracts/DAO.sol\":2593:2603  msg.sender */\n      caller\n        /* \"contracts/DAO.sol\":2578:2604  numberOfTokens[msg.sender] */\n      0xffffffffffffffffffffffffffffffffffffffff\n      and\n      0xffffffffffffffffffffffffffffffffffffffff\n      and\n      dup2\n      mstore\n      0x20\n      add\n      swap1\n      dup2\n      mstore\n      0x20\n      add\n      0x00\n      keccak256\n      0x00\n        /* \"contracts/DAO.sol\":2578:2615  numberOfTokens[msg.sender] -= _amount */\n      dup3\n      dup3\n      sload\n      tag_135\n      swap2\n      swap1\n      tag_136\n      jump\t// in\n    tag_135:\n      swap3\n      pop\n      pop\n      dup2\n      swap1\n      sstore\n      pop\n        /* \"contracts/DAO.sol\":2628:2649  checkInvestorStatus() */\n      tag_137\n        /* \"contracts/DAO.sol\":2628:2647  checkInvestorStatus */\n      tag_138\n        /* \"contracts/DAO.sol\":2628:2649  checkInvestorStatus() */\n      jump\t// in\n    tag_137:\n        /* \"contracts/DAO.sol\":2670:2673  _to */\n      dup1\n        /* \"contracts/DAO.sol\":2662:2683  payable(_to).transfer */\n      0xffffffffffffffffffffffffffffffffffffffff\n      and\n        /* \"contracts/DAO.sol\":2662:2692  payable(_to).transfer(_amount) */\n      0x08fc\n        /* \"contracts/DAO.sol\":2684:2691  _amount */\n      dup4\n        /* \"contracts/DAO.sol\":2662:2692  payable(_to).transfer(_amount) */\n      swap1\n      dup2\n      iszero\n      mul\n      swap1\n      mload(0x40)\n      0x00\n      mload(0x40)\n      dup1\n      dup4\n      sub\n      dup2\n      dup6\n      dup9\n      dup9\n      call\n      swap4\n      pop\n      pop\n      pop\n      pop\n      iszero\n      dup1\n      iszero\n      tag_140\n      jumpi\n      returndatasize\n      0x00\n      dup1\n      returndatacopy\n      revert(0x00, returndatasize)\n    tag_140:\n      pop\n        /* \"contracts/DAO.sol\":2727:2731  true */\n      0x01\n        /* \"contracts/DAO.sol\":2708:2731  isInvestor[_to] != true */\n      iszero\n      iszero\n        /* \"contracts/DAO.sol\":2708:2718  isInvestor */\n      0x00\n        /* \"contracts/DAO.sol\":2708:2723  isInvestor[_to] */\n      dup1\n        /* \"contracts/DAO.sol\":2719:2722  _to */\n      dup4\n        /* \"contracts/DAO.sol\":2708:2723  isInvestor[_to] */\n      0xffffffffffffffffffffffffffffffffffffffff\n      and\n      0xffffffffffffffffffffffffffffffffffffffff\n      and\n      dup2\n      mstore\n      0x20\n      add\n      swap1\n      dup2\n      mstore\n      0x20\n      add\n      0x00\n      keccak256\n      0x00\n      swap1\n      sload\n      swap1\n      0x0100\n      exp\n      swap1\n      div\n      0xff\n      and\n        /* \"contracts/DAO.sol\":2708:2731  isInvestor[_to] != true */\n      iszero\n      iszero\n      eq\n        /* \"contracts/DAO.sol\":2705:2782  if(isInvestor[_to] != true){... */\n      tag_141\n      jumpi\n        /* \"contracts/DAO.sol\":2747:2760  investorsList */\n      0x03\n        /* \"contracts/DAO.sol\":2766:2769  _to */\n      dup2\n        /* \"contracts/DAO.sol\":2747:2770  investorsList.push(_to) */\n      swap1\n      dup1\n      0x01\n      dup2\n      sload\n      add\n      dup1\n      dup3\n      sstore\n      dup1\n      swap2\n      pop\n      pop\n      0x01\n      swap1\n      sub\n      swap1\n      0x00\n      mstore\n      keccak256(0x00, 0x20)\n      add\n      0x00\n      swap1\n      swap2\n      swap1\n      swap2\n      swap1\n      swap2\n      0x0100\n      exp\n      dup2\n      sload\n      dup2\n      0xffffffffffffffffffffffffffffffffffffffff\n      mul\n      not\n      and\n      swap1\n      dup4\n      0xffffffffffffffffffffffffffffffffffffffff\n      and\n      mul\n      or\n      swap1\n      sstore\n      pop\n        /* \"contracts/DAO.sol\":2705:2782  if(isInvestor[_to] != true){... */\n    tag_141:\n        /* \"contracts/DAO.sol\":2812:2816  true */\n      0x01\n        /* \"contracts/DAO.sol\":2794:2804  isInvestor */\n      0x00\n        /* \"contracts/DAO.sol\":2794:2809  isInvestor[_to] */\n      dup1\n        /* \"contracts/DAO.sol\":2805:2808  _to */\n      dup4\n        /* \"contracts/DAO.sol\":2794:2809  isInvestor[_to] */\n      0xffffffffffffffffffffffffffffffffffffffff\n      and\n      0xffffffffffffffffffffffffffffffffffffffff\n      and\n      dup2\n      mstore\n      0x20\n      add\n      swap1\n      dup2\n      mstore\n      0x20\n      add\n      0x00\n      keccak256\n      0x00\n        /* \"contracts/DAO.sol\":2794:2816  isInvestor[_to] = true */\n      0x0100\n      exp\n      dup2\n      sload\n      dup2\n      0xff\n      mul\n      not\n      and\n      swap1\n      dup4\n      iszero\n      iszero\n      mul\n      or\n      swap1\n      sstore\n      pop\n        /* \"contracts/DAO.sol\":2850:2857  _amount */\n      dup2\n        /* \"contracts/DAO.sol\":2827:2841  numberOfTokens */\n      0x01\n        /* \"contracts/DAO.sol\":2827:2846  numberOfTokens[_to] */\n      0x00\n        /* \"contracts/DAO.sol\":2842:2845  _to */\n      dup4\n        /* \"contracts/DAO.sol\":2827:2846  numberOfTokens[_to] */\n      0xffffffffffffffffffffffffffffffffffffffff\n      and\n      0xffffffffffffffffffffffffffffffffffffffff\n      and\n      dup2\n      mstore\n      0x20\n      add\n      swap1\n      dup2\n      mstore\n      0x20\n      add\n      0x00\n      keccak256\n      0x00\n        /* \"contracts/DAO.sol\":2827:2857  numberOfTokens[_to] += _amount */\n      dup3\n      dup3\n      sload\n      tag_143\n      swap2\n      swap1\n      tag_144\n      jump\t// in\n    tag_143:\n      swap3\n      pop\n      pop\n      dup2\n      swap1\n      sstore\n      pop\n        /* \"contracts/DAO.sol\":2398:2865  function trasferTokens(uint _amount, address _to) public onlyInverstor()... */\n      pop\n      pop\n      jump\t// out\n        /* \"contracts/DAO.sol\":663:689  uint public availableFunds */\n    tag_55:\n      sload(0x09)\n      dup2\n      jump\t// out\n        /* \"contracts/DAO.sol\":731:753  address public manager */\n    tag_59:\n      0x0b\n      0x00\n      swap1\n      sload\n      swap1\n      0x0100\n      exp\n      swap1\n      div\n      0xffffffffffffffffffffffffffffffffffffffff\n      and\n      dup2\n      jump\t// out\n        /* \"contracts/DAO.sol\":1404:1810  function contribution() public payable... */\n    tag_62:\n        /* \"contracts/DAO.sol\":1486:1505  contributionTimeEnd */\n      sload(0x06)\n        /* \"contracts/DAO.sol\":1467:1482  block.timestamp */\n      timestamp\n        /* \"contracts/DAO.sol\":1467:1505  block.timestamp <= contributionTimeEnd */\n      gt\n      iszero\n        /* \"contracts/DAO.sol\":1459:1533  require(block.timestamp <= contributionTimeEnd, \"Contribution Time Ended\") */\n      tag_146\n      jumpi\n      mload(0x40)\n      0x08c379a000000000000000000000000000000000000000000000000000000000\n      dup2\n      mstore\n      0x04\n      add\n      tag_147\n      swap1\n      tag_148\n      jump\t// in\n    tag_147:\n      mload(0x40)\n      dup1\n      swap2\n      sub\n      swap1\n      revert\n    tag_146:\n        /* \"contracts/DAO.sol\":1564:1565  0 */\n      0x00\n        /* \"contracts/DAO.sol\":1552:1561  msg.value */\n      callvalue\n        /* \"contracts/DAO.sol\":1552:1565  msg.value > 0 */\n      gt\n        /* \"contracts/DAO.sol\":1544:1593  require(msg.value > 0, \"Send more than 0 ethers\") */\n      tag_149\n      jumpi\n      mload(0x40)\n      0x08c379a000000000000000000000000000000000000000000000000000000000\n      dup2\n      mstore\n      0x04\n      add\n      tag_150\n      swap1\n      tag_151\n      jump\t// in\n    tag_150:\n      mload(0x40)\n      dup1\n      swap2\n      sub\n      swap1\n      revert\n    tag_149:\n        /* \"contracts/DAO.sol\":1631:1635  true */\n      0x01\n        /* \"contracts/DAO.sol\":1606:1616  isInvestor */\n      0x00\n        /* \"contracts/DAO.sol\":1606:1628  isInvestor[msg.sender] */\n      dup1\n        /* \"contracts/DAO.sol\":1617:1627  msg.sender */\n      caller\n        /* \"contracts/DAO.sol\":1606:1628  isInvestor[msg.sender] */\n      0xffffffffffffffffffffffffffffffffffffffff\n      and\n      0xffffffffffffffffffffffffffffffffffffffff\n      and\n      dup2\n      mstore\n      0x20\n      add\n      swap1\n      dup2\n      mstore\n      0x20\n      add\n      0x00\n      keccak256\n      0x00\n        /* \"contracts/DAO.sol\":1606:1635  isInvestor[msg.sender] = true */\n      0x0100\n      exp\n      dup2\n      sload\n      dup2\n      0xff\n      mul\n      not\n      and\n      swap1\n      dup4\n      iszero\n      iszero\n      mul\n      or\n      swap1\n      sstore\n      pop\n        /* \"contracts/DAO.sol\":1646:1659  investorsList */\n      0x03\n        /* \"contracts/DAO.sol\":1665:1675  msg.sender */\n      caller\n        /* \"contracts/DAO.sol\":1646:1676  investorsList.push(msg.sender) */\n      swap1\n      dup1\n      0x01\n      dup2\n      sload\n      add\n      dup1\n      dup3\n      sstore\n      dup1\n      swap2\n      pop\n      pop\n      0x01\n      swap1\n      sub\n      swap1\n      0x00\n      mstore\n      keccak256(0x00, 0x20)\n      add\n      0x00\n      swap1\n      swap2\n      swap1\n      swap2\n      swap1\n      swap2\n      0x0100\n      exp\n      dup2\n      sload\n      dup2\n      0xffffffffffffffffffffffffffffffffffffffff\n      mul\n      not\n      and\n      swap1\n      dup4\n      0xffffffffffffffffffffffffffffffffffffffff\n      and\n      mul\n      or\n      swap1\n      sstore\n      pop\n        /* \"contracts/DAO.sol\":1718:1727  msg.value */\n      callvalue\n        /* \"contracts/DAO.sol\":1689:1703  numberOfTokens */\n      0x01\n        /* \"contracts/DAO.sol\":1689:1715  numberOfTokens[msg.sender] */\n      0x00\n        /* \"contracts/DAO.sol\":1704:1714  msg.sender */\n      caller\n        /* \"contracts/DAO.sol\":1689:1715  numberOfTokens[msg.sender] */\n      0xffffffffffffffffffffffffffffffffffffffff\n      and\n      0xffffffffffffffffffffffffffffffffffffffff\n      and\n      dup2\n      mstore\n      0x20\n      add\n      swap1\n      dup2\n      mstore\n      0x20\n      add\n      0x00\n      keccak256\n        /* \"contracts/DAO.sol\":1689:1727  numberOfTokens[msg.sender] = msg.value */\n      dup2\n      swap1\n      sstore\n      pop\n        /* \"contracts/DAO.sol\":1753:1762  msg.value */\n      callvalue\n        /* \"contracts/DAO.sol\":1738:1749  totalTokens */\n      0x05\n      0x00\n        /* \"contracts/DAO.sol\":1738:1762  totalTokens += msg.value */\n      dup3\n      dup3\n      sload\n      tag_153\n      swap2\n      swap1\n      tag_144\n      jump\t// in\n    tag_153:\n      swap3\n      pop\n      pop\n      dup2\n      swap1\n      sstore\n      pop\n        /* \"contracts/DAO.sol\":1793:1802  msg.value */\n      callvalue\n        /* \"contracts/DAO.sol\":1775:1789  availableFunds */\n      0x09\n      0x00\n        /* \"contracts/DAO.sol\":1775:1802  availableFunds += msg.value */\n      dup3\n      dup3\n      sload\n      tag_154\n      swap2\n      swap1\n      tag_144\n      jump\t// in\n    tag_154:\n      swap3\n      pop\n      pop\n      dup2\n      swap1\n      sstore\n      pop\n        /* \"contracts/DAO.sol\":1404:1810  function contribution() public payable... */\n      jump\t// out\n        /* \"contracts/DAO.sol\":347:391  mapping(address=>uint) public numberOfTokens */\n    tag_67:\n      mstore(0x20, 0x01)\n      dup1\n      0x00\n      mstore\n      keccak256(0x00, 0x40)\n      0x00\n      swap2\n      pop\n      swap1\n      pop\n      sload\n      dup2\n      jump\t// out\n        /* \"contracts/DAO.sol\":2873:3258  function createProposal(string calldata _description , uint _amount, address payable _receipient) public onlyManager()... */\n    tag_73:\n        /* \"contracts/DAO.sol\":1338:1348  msg.sender */\n      caller\n        /* \"contracts/DAO.sol\":1327:1348  manager == msg.sender */\n      0xffffffffffffffffffffffffffffffffffffffff\n      and\n        /* \"contracts/DAO.sol\":1327:1334  manager */\n      0x0b\n      0x00\n      swap1\n      sload\n      swap1\n      0x0100\n      exp\n      swap1\n      div\n      0xffffffffffffffffffffffffffffffffffffffff\n      and\n        /* \"contracts/DAO.sol\":1327:1348  manager == msg.sender */\n      0xffffffffffffffffffffffffffffffffffffffff\n      and\n      eq\n        /* \"contracts/DAO.sol\":1319:1376  require(manager == msg.sender, \"You are not an investor\") */\n      tag_156\n      jumpi\n      mload(0x40)\n      0x08c379a000000000000000000000000000000000000000000000000000000000\n      dup2\n      mstore\n      0x04\n      add\n      tag_157\n      swap1\n      tag_110\n      jump\t// in\n    tag_157:\n      mload(0x40)\n      dup1\n      swap2\n      sub\n      swap1\n      revert\n    tag_156:\n        /* \"contracts/DAO.sol\":3027:3034  _amount */\n      dup2\n        /* \"contracts/DAO.sol\":3009:3023  availableFunds */\n      sload(0x09)\n        /* \"contracts/DAO.sol\":3009:3034  availableFunds >= _amount */\n      lt\n      iszero\n        /* \"contracts/DAO.sol\":3001:3080  require(availableFunds >= _amount, \"Not sufficient funds to match your amount\") */\n      tag_159\n      jumpi\n      mload(0x40)\n      0x08c379a000000000000000000000000000000000000000000000000000000000\n      dup2\n      mstore\n      0x04\n      add\n      tag_160\n      swap1\n      tag_161\n      jump\t// in\n    tag_160:\n      mload(0x40)\n      dup1\n      swap2\n      sub\n      swap1\n      revert\n    tag_159:\n        /* \"contracts/DAO.sol\":3121:3221  Proposal(nextProposalId, _description, _amount, _receipient, 0 , block.timestamp + voteTime , false) */\n      mload(0x40)\n      dup1\n      0xe0\n      add\n      0x40\n      mstore\n      dup1\n        /* \"contracts/DAO.sol\":3130:3144  nextProposalId */\n      sload(0x0a)\n        /* \"contracts/DAO.sol\":3121:3221  Proposal(nextProposalId, _description, _amount, _receipient, 0 , block.timestamp + voteTime , false) */\n      dup2\n      mstore\n      0x20\n      add\n        /* \"contracts/DAO.sol\":3146:3158  _description */\n      dup6\n      dup6\n        /* \"contracts/DAO.sol\":3121:3221  Proposal(nextProposalId, _description, _amount, _receipient, 0 , block.timestamp + voteTime , false) */\n      dup1\n      dup1\n      0x1f\n      add\n      0x20\n      dup1\n      swap2\n      div\n      mul\n      0x20\n      add\n      mload(0x40)\n      swap1\n      dup2\n      add\n      0x40\n      mstore\n      dup1\n      swap4\n      swap3\n      swap2\n      swap1\n      dup2\n      dup2\n      mstore\n      0x20\n      add\n      dup4\n      dup4\n      dup1\n      dup3\n      dup5\n      calldatacopy\n      0x00\n      dup2\n      dup5\n      add\n      mstore\n      not(0x1f)\n      0x1f\n      dup3\n      add\n      and\n      swap1\n      pop\n      dup1\n      dup4\n      add\n      swap3\n      pop\n      pop\n      pop\n      pop\n      pop\n      pop\n      pop\n      dup2\n      mstore\n      0x20\n      add\n        /* \"contracts/DAO.sol\":3160:3167  _amount */\n      dup4\n        /* \"contracts/DAO.sol\":3121:3221  Proposal(nextProposalId, _description, _amount, _receipient, 0 , block.timestamp + voteTime , false) */\n      dup2\n      mstore\n      0x20\n      add\n        /* \"contracts/DAO.sol\":3169:3180  _receipient */\n      dup3\n        /* \"contracts/DAO.sol\":3121:3221  Proposal(nextProposalId, _description, _amount, _receipient, 0 , block.timestamp + voteTime , false) */\n      0xffffffffffffffffffffffffffffffffffffffff\n      and\n      dup2\n      mstore\n      0x20\n      add\n        /* \"contracts/DAO.sol\":3182:3183  0 */\n      0x00\n        /* \"contracts/DAO.sol\":3121:3221  Proposal(nextProposalId, _description, _amount, _receipient, 0 , block.timestamp + voteTime , false) */\n      dup2\n      mstore\n      0x20\n      add\n        /* \"contracts/DAO.sol\":3204:3212  voteTime */\n      sload(0x07)\n        /* \"contracts/DAO.sol\":3186:3201  block.timestamp */\n      timestamp\n        /* \"contracts/DAO.sol\":3186:3212  block.timestamp + voteTime */\n      tag_162\n      swap2\n      swap1\n      tag_144\n      jump\t// in\n    tag_162:\n        /* \"contracts/DAO.sol\":3121:3221  Proposal(nextProposalId, _description, _amount, _receipient, 0 , block.timestamp + voteTime , false) */\n      dup2\n      mstore\n      0x20\n      add\n        /* \"contracts/DAO.sol\":3215:3220  false */\n      0x00\n        /* \"contracts/DAO.sol\":3121:3221  Proposal(nextProposalId, _description, _amount, _receipient, 0 , block.timestamp + voteTime , false) */\n      iszero\n      iszero\n      dup2\n      mstore\n      pop\n        /* \"contracts/DAO.sol\":3093:3102  proposals */\n      0x04\n        /* \"contracts/DAO.sol\":3093:3118  proposals[nextProposalId] */\n      0x00\n        /* \"contracts/DAO.sol\":3103:3117  nextProposalId */\n      sload(0x0a)\n        /* \"contracts/DAO.sol\":3093:3118  proposals[nextProposalId] */\n      dup2\n      mstore\n      0x20\n      add\n      swap1\n      dup2\n      mstore\n      0x20\n      add\n      0x00\n      keccak256\n        /* \"contracts/DAO.sol\":3093:3221  proposals[nextProposalId] = Proposal(nextProposalId, _description, _amount, _receipient, 0 , block.timestamp + voteTime , false) */\n      0x00\n      dup3\n      add\n      mload\n      dup2\n      0x00\n      add\n      sstore\n      0x20\n      dup3\n      add\n      mload\n      dup2\n      0x01\n      add\n      swap1\n      dup2\n      tag_163\n      swap2\n      swap1\n      tag_164\n      jump\t// in\n    tag_163:\n      pop\n      0x40\n      dup3\n      add\n      mload\n      dup2\n      0x02\n      add\n      sstore\n      0x60\n      dup3\n      add\n      mload\n      dup2\n      0x03\n      add\n      exp(0x0100, 0x00)\n      dup2\n      sload\n      dup2\n      0xffffffffffffffffffffffffffffffffffffffff\n      mul\n      not\n      and\n      swap1\n      dup4\n      0xffffffffffffffffffffffffffffffffffffffff\n      and\n      mul\n      or\n      swap1\n      sstore\n      pop\n      0x80\n      dup3\n      add\n      mload\n      dup2\n      0x04\n      add\n      sstore\n      0xa0\n      dup3\n      add\n      mload\n      dup2\n      0x05\n      add\n      sstore\n      0xc0\n      dup3\n      add\n      mload\n      dup2\n      0x06\n      add\n      exp(0x0100, 0x00)\n      dup2\n      sload\n      dup2\n      0xff\n      mul\n      not\n      and\n      swap1\n      dup4\n      iszero\n      iszero\n      mul\n      or\n      swap1\n      sstore\n      pop\n      swap1\n      pop\n      pop\n        /* \"contracts/DAO.sol\":3234:3248  nextProposalId */\n      0x0a\n      0x00\n        /* \"contracts/DAO.sol\":3234:3250  nextProposalId++ */\n      dup2\n      sload\n      dup1\n      swap3\n      swap2\n      swap1\n      tag_165\n      swap1\n      tag_125\n      jump\t// in\n    tag_165:\n      swap2\n      swap1\n      pop\n      sstore\n      pop\n        /* \"contracts/DAO.sol\":2873:3258  function createProposal(string calldata _description , uint _amount, address payable _receipient) public onlyManager()... */\n      pop\n      pop\n      pop\n      pop\n      jump\t// out\n        /* \"contracts/DAO.sol\":543:566  uint public totalTokens */\n    tag_76:\n      sload(0x05)\n      dup2\n      jump\t// out\n        /* \"contracts/DAO.sol\":3266:3766  function voteProposal(uint id) public onlyInverstor()... */\n    tag_81:\n        /* \"contracts/DAO.sol\":1220:1224  true */\n      0x01\n        /* \"contracts/DAO.sol\":1194:1224  isInvestor[msg.sender] == true */\n      iszero\n      iszero\n        /* \"contracts/DAO.sol\":1194:1204  isInvestor */\n      0x00\n        /* \"contracts/DAO.sol\":1194:1216  isInvestor[msg.sender] */\n      dup1\n        /* \"contracts/DAO.sol\":1205:1215  msg.sender */\n      caller\n        /* \"contracts/DAO.sol\":1194:1216  isInvestor[msg.sender] */\n      0xffffffffffffffffffffffffffffffffffffffff\n      and\n      0xffffffffffffffffffffffffffffffffffffffff\n      and\n      dup2\n      mstore\n      0x20\n      add\n      swap1\n      dup2\n      mstore\n      0x20\n      add\n      0x00\n      keccak256\n      0x00\n      swap1\n      sload\n      swap1\n      0x0100\n      exp\n      swap1\n      div\n      0xff\n      and\n        /* \"contracts/DAO.sol\":1194:1224  isInvestor[msg.sender] == true */\n      iszero\n      iszero\n      eq\n        /* \"contracts/DAO.sol\":1186:1252  require(isInvestor[msg.sender] == true, \"You are not an investor\") */\n      tag_167\n      jumpi\n      mload(0x40)\n      0x08c379a000000000000000000000000000000000000000000000000000000000\n      dup2\n      mstore\n      0x04\n      add\n      tag_168\n      swap1\n      tag_110\n      jump\t// in\n    tag_168:\n      mload(0x40)\n      dup1\n      swap2\n      sub\n      swap1\n      revert\n    tag_167:\n        /* \"contracts/DAO.sol\":3336:3361  Proposal storage proposal */\n      0x00\n        /* \"contracts/DAO.sol\":3364:3373  proposals */\n      0x04\n        /* \"contracts/DAO.sol\":3364:3377  proposals[id] */\n      0x00\n        /* \"contracts/DAO.sol\":3374:3376  id */\n      dup4\n        /* \"contracts/DAO.sol\":3364:3377  proposals[id] */\n      dup2\n      mstore\n      0x20\n      add\n      swap1\n      dup2\n      mstore\n      0x20\n      add\n      0x00\n      keccak256\n        /* \"contracts/DAO.sol\":3336:3377  Proposal storage proposal = proposals[id] */\n      swap1\n      pop\n        /* \"contracts/DAO.sol\":3417:3425  proposal */\n      dup1\n        /* \"contracts/DAO.sol\":3417:3429  proposal.end */\n      0x05\n      add\n      sload\n        /* \"contracts/DAO.sol\":3398:3413  block.timestamp */\n      timestamp\n        /* \"contracts/DAO.sol\":3398:3429  block.timestamp <= proposal.end */\n      gt\n      iszero\n        /* \"contracts/DAO.sol\":3390:3474  require(block.timestamp <= proposal.end, \"Voting has been closed for this Proposal\") */\n      tag_170\n      jumpi\n      mload(0x40)\n      0x08c379a000000000000000000000000000000000000000000000000000000000\n      dup2\n      mstore\n      0x04\n      add\n      tag_171\n      swap1\n      tag_172\n      jump\t// in\n    tag_171:\n      mload(0x40)\n      dup1\n      swap2\n      sub\n      swap1\n      revert\n    tag_170:\n        /* \"contracts/DAO.sol\":3520:3525  false */\n      0x00\n        /* \"contracts/DAO.sol\":3493:3525  isVoted[msg.sender][id] == false */\n      iszero\n      iszero\n        /* \"contracts/DAO.sol\":3493:3500  isVoted */\n      0x02\n        /* \"contracts/DAO.sol\":3493:3512  isVoted[msg.sender] */\n      0x00\n        /* \"contracts/DAO.sol\":3501:3511  msg.sender */\n      caller\n        /* \"contracts/DAO.sol\":3493:3512  isVoted[msg.sender] */\n      0xffffffffffffffffffffffffffffffffffffffff\n      and\n      0xffffffffffffffffffffffffffffffffffffffff\n      and\n      dup2\n      mstore\n      0x20\n      add\n      swap1\n      dup2\n      mstore\n      0x20\n      add\n      0x00\n      keccak256\n        /* \"contracts/DAO.sol\":3493:3516  isVoted[msg.sender][id] */\n      0x00\n        /* \"contracts/DAO.sol\":3513:3515  id */\n      dup5\n        /* \"contracts/DAO.sol\":3493:3516  isVoted[msg.sender][id] */\n      dup2\n      mstore\n      0x20\n      add\n      swap1\n      dup2\n      mstore\n      0x20\n      add\n      0x00\n      keccak256\n      0x00\n      swap1\n      sload\n      swap1\n      0x0100\n      exp\n      swap1\n      div\n      0xff\n      and\n        /* \"contracts/DAO.sol\":3493:3525  isVoted[msg.sender][id] == false */\n      iszero\n      iszero\n      eq\n        /* \"contracts/DAO.sol\":3485:3569  require(isVoted[msg.sender][id] == false, \"You have already voted on this Proposal\") */\n      tag_173\n      jumpi\n      mload(0x40)\n      0x08c379a000000000000000000000000000000000000000000000000000000000\n      dup2\n      mstore\n      0x04\n      add\n      tag_174\n      swap1\n      tag_175\n      jump\t// in\n    tag_174:\n      mload(0x40)\n      dup1\n      swap2\n      sub\n      swap1\n      revert\n    tag_173:\n        /* \"contracts/DAO.sol\":3611:3616  false */\n      0x00\n        /* \"contracts/DAO.sol\":3588:3616  proposal.isExecuted == false */\n      iszero\n      iszero\n        /* \"contracts/DAO.sol\":3588:3596  proposal */\n      dup2\n        /* \"contracts/DAO.sol\":3588:3607  proposal.isExecuted */\n      0x06\n      add\n      0x00\n      swap1\n      sload\n      swap1\n      0x0100\n      exp\n      swap1\n      div\n      0xff\n      and\n        /* \"contracts/DAO.sol\":3588:3616  proposal.isExecuted == false */\n      iszero\n      iszero\n      eq\n        /* \"contracts/DAO.sol\":3580:3660  require(proposal.isExecuted == false, \"This Proposal has already been executed\") */\n      tag_176\n      jumpi\n      mload(0x40)\n      0x08c379a000000000000000000000000000000000000000000000000000000000\n      dup2\n      mstore\n      0x04\n      add\n      tag_177\n      swap1\n      tag_114\n      jump\t// in\n    tag_177:\n      mload(0x40)\n      dup1\n      swap2\n      sub\n      swap1\n      revert\n    tag_176:\n        /* \"contracts/DAO.sol\":3699:3703  true */\n      0x01\n        /* \"contracts/DAO.sol\":3673:3680  isVoted */\n      0x02\n        /* \"contracts/DAO.sol\":3673:3692  isVoted[msg.sender] */\n      0x00\n        /* \"contracts/DAO.sol\":3681:3691  msg.sender */\n      caller\n        /* \"contracts/DAO.sol\":3673:3692  isVoted[msg.sender] */\n      0xffffffffffffffffffffffffffffffffffffffff\n      and\n      0xffffffffffffffffffffffffffffffffffffffff\n      and\n      dup2\n      mstore\n      0x20\n      add\n      swap1\n      dup2\n      mstore\n      0x20\n      add\n      0x00\n      keccak256\n        /* \"contracts/DAO.sol\":3673:3696  isVoted[msg.sender][id] */\n      0x00\n        /* \"contracts/DAO.sol\":3693:3695  id */\n      dup5\n        /* \"contracts/DAO.sol\":3673:3696  isVoted[msg.sender][id] */\n      dup2\n      mstore\n      0x20\n      add\n      swap1\n      dup2\n      mstore\n      0x20\n      add\n      0x00\n      keccak256\n      0x00\n        /* \"contracts/DAO.sol\":3673:3703  isVoted[msg.sender][id] = true */\n      0x0100\n      exp\n      dup2\n      sload\n      dup2\n      0xff\n      mul\n      not\n      and\n      swap1\n      dup4\n      iszero\n      iszero\n      mul\n      or\n      swap1\n      sstore\n      pop\n        /* \"contracts/DAO.sol\":3732:3746  numberOfTokens */\n      0x01\n        /* \"contracts/DAO.sol\":3732:3758  numberOfTokens[msg.sender] */\n      0x00\n        /* \"contracts/DAO.sol\":3747:3757  msg.sender */\n      caller\n        /* \"contracts/DAO.sol\":3732:3758  numberOfTokens[msg.sender] */\n      0xffffffffffffffffffffffffffffffffffffffff\n      and\n      0xffffffffffffffffffffffffffffffffffffffff\n      and\n      dup2\n      mstore\n      0x20\n      add\n      swap1\n      dup2\n      mstore\n      0x20\n      add\n      0x00\n      keccak256\n      sload\n        /* \"contracts/DAO.sol\":3714:3722  proposal */\n      dup2\n        /* \"contracts/DAO.sol\":3714:3728  proposal.votes */\n      0x04\n      add\n      0x00\n        /* \"contracts/DAO.sol\":3714:3758  proposal.votes += numberOfTokens[msg.sender] */\n      dup3\n      dup3\n      sload\n      tag_178\n      swap2\n      swap1\n      tag_144\n      jump\t// in\n    tag_178:\n      swap3\n      pop\n      pop\n      dup2\n      swap1\n      sstore\n      pop\n        /* \"contracts/DAO.sol\":3325:3766  {... */\n      pop\n        /* \"contracts/DAO.sol\":3266:3766  function voteProposal(uint id) public onlyInverstor()... */\n      pop\n      jump\t// out\n        /* \"contracts/DAO.sol\":398:450  mapping(address=>mapping(uint=>bool)) public isVoted */\n    tag_86:\n      mstore(0x20, 0x02)\n      dup2\n      0x00\n      mstore\n      mstore(0x20, keccak256(0x00, 0x40))\n      dup1\n      0x00\n      mstore\n      keccak256(0x00, 0x40)\n      0x00\n      swap2\n      pop\n      swap2\n      pop\n      swap1\n      sload\n      swap1\n      0x0100\n      exp\n      swap1\n      div\n      0xff\n      and\n      dup2\n      jump\t// out\n        /* \"contracts/DAO.sol\":1990:2390  function redeemTokens(uint amount) public onlyInverstor()... */\n    tag_92:\n        /* \"contracts/DAO.sol\":1220:1224  true */\n      0x01\n        /* \"contracts/DAO.sol\":1194:1224  isInvestor[msg.sender] == true */\n      iszero\n      iszero\n        /* \"contracts/DAO.sol\":1194:1204  isInvestor */\n      0x00\n        /* \"contracts/DAO.sol\":1194:1216  isInvestor[msg.sender] */\n      dup1\n        /* \"contracts/DAO.sol\":1205:1215  msg.sender */\n      caller\n        /* \"contracts/DAO.sol\":1194:1216  isInvestor[msg.sender] */\n      0xffffffffffffffffffffffffffffffffffffffff\n      and\n      0xffffffffffffffffffffffffffffffffffffffff\n      and\n      dup2\n      mstore\n      0x20\n      add\n      swap1\n      dup2\n      mstore\n      0x20\n      add\n      0x00\n      keccak256\n      0x00\n      swap1\n      sload\n      swap1\n      0x0100\n      exp\n      swap1\n      div\n      0xff\n      and\n        /* \"contracts/DAO.sol\":1194:1224  isInvestor[msg.sender] == true */\n      iszero\n      iszero\n      eq\n        /* \"contracts/DAO.sol\":1186:1252  require(isInvestor[msg.sender] == true, \"You are not an investor\") */\n      tag_180\n      jumpi\n      mload(0x40)\n      0x08c379a000000000000000000000000000000000000000000000000000000000\n      dup2\n      mstore\n      0x04\n      add\n      tag_181\n      swap1\n      tag_110\n      jump\t// in\n    tag_181:\n      mload(0x40)\n      dup1\n      swap2\n      sub\n      swap1\n      revert\n    tag_180:\n        /* \"contracts/DAO.sol\":2082:2096  numberOfTokens */\n      0x01\n        /* \"contracts/DAO.sol\":2082:2108  numberOfTokens[msg.sender] */\n      0x00\n        /* \"contracts/DAO.sol\":2097:2107  msg.sender */\n      caller\n        /* \"contracts/DAO.sol\":2082:2108  numberOfTokens[msg.sender] */\n      0xffffffffffffffffffffffffffffffffffffffff\n      and\n      0xffffffffffffffffffffffffffffffffffffffff\n      and\n      dup2\n      mstore\n      0x20\n      add\n      swap1\n      dup2\n      mstore\n      0x20\n      add\n      0x00\n      keccak256\n      sload\n        /* \"contracts/DAO.sol\":2072:2078  amount */\n      dup2\n        /* \"contracts/DAO.sol\":2072:2108  amount <= numberOfTokens[msg.sender] */\n      gt\n      iszero\n        /* \"contracts/DAO.sol\":2064:2141  require(amount <= numberOfTokens[msg.sender], \"You don't have enough tokens\") */\n      tag_183\n      jumpi\n      mload(0x40)\n      0x08c379a000000000000000000000000000000000000000000000000000000000\n      dup2\n      mstore\n      0x04\n      add\n      tag_184\n      swap1\n      tag_134\n      jump\t// in\n    tag_184:\n      mload(0x40)\n      dup1\n      swap2\n      sub\n      swap1\n      revert\n    tag_183:\n        /* \"contracts/DAO.sol\":2178:2184  amount */\n      dup1\n        /* \"contracts/DAO.sol\":2160:2174  availableFunds */\n      sload(0x09)\n        /* \"contracts/DAO.sol\":2160:2184  availableFunds >= amount */\n      lt\n      iszero\n        /* \"contracts/DAO.sol\":2152:2215  require(availableFunds >= amount, \"Not enough funds available\") */\n      tag_185\n      jumpi\n      mload(0x40)\n      0x08c379a000000000000000000000000000000000000000000000000000000000\n      dup2\n      mstore\n      0x04\n      add\n      tag_186\n      swap1\n      tag_187\n      jump\t// in\n    tag_186:\n      mload(0x40)\n      dup1\n      swap2\n      sub\n      swap1\n      revert\n    tag_185:\n        /* \"contracts/DAO.sol\":2258:2264  amount */\n      dup1\n        /* \"contracts/DAO.sol\":2228:2242  numberOfTokens */\n      0x01\n        /* \"contracts/DAO.sol\":2228:2254  numberOfTokens[msg.sender] */\n      0x00\n        /* \"contracts/DAO.sol\":2243:2253  msg.sender */\n      caller\n        /* \"contracts/DAO.sol\":2228:2254  numberOfTokens[msg.sender] */\n      0xffffffffffffffffffffffffffffffffffffffff\n      and\n      0xffffffffffffffffffffffffffffffffffffffff\n      and\n      dup2\n      mstore\n      0x20\n      add\n      swap1\n      dup2\n      mstore\n      0x20\n      add\n      0x00\n      keccak256\n      0x00\n        /* \"contracts/DAO.sol\":2228:2264  numberOfTokens[msg.sender] -= amount */\n      dup3\n      dup3\n      sload\n      tag_188\n      swap2\n      swap1\n      tag_136\n      jump\t// in\n    tag_188:\n      swap3\n      pop\n      pop\n      dup2\n      swap1\n      sstore\n      pop\n        /* \"contracts/DAO.sol\":2293:2299  amount */\n      dup1\n        /* \"contracts/DAO.sol\":2275:2289  availableFunds */\n      0x09\n      0x00\n        /* \"contracts/DAO.sol\":2275:2299  availableFunds -= amount */\n      dup3\n      dup3\n      sload\n      tag_189\n      swap2\n      swap1\n      tag_136\n      jump\t// in\n    tag_189:\n      swap3\n      pop\n      pop\n      dup2\n      swap1\n      sstore\n      pop\n        /* \"contracts/DAO.sol\":2312:2333  checkInvestorStatus() */\n      tag_190\n        /* \"contracts/DAO.sol\":2312:2331  checkInvestorStatus */\n      tag_138\n        /* \"contracts/DAO.sol\":2312:2333  checkInvestorStatus() */\n      jump\t// in\n    tag_190:\n        /* \"contracts/DAO.sol\":2354:2364  msg.sender */\n      caller\n        /* \"contracts/DAO.sol\":2346:2374  payable(msg.sender).transfer */\n      0xffffffffffffffffffffffffffffffffffffffff\n      and\n        /* \"contracts/DAO.sol\":2346:2382  payable(msg.sender).transfer(amount) */\n      0x08fc\n        /* \"contracts/DAO.sol\":2375:2381  amount */\n      dup3\n        /* \"contracts/DAO.sol\":2346:2382  payable(msg.sender).transfer(amount) */\n      swap1\n      dup2\n      iszero\n      mul\n      swap1\n      mload(0x40)\n      0x00\n      mload(0x40)\n      dup1\n      dup4\n      sub\n      dup2\n      dup6\n      dup9\n      dup9\n      call\n      swap4\n      pop\n      pop\n      pop\n      pop\n      iszero\n      dup1\n      iszero\n      tag_192\n      jumpi\n      returndatasize\n      0x00\n      dup1\n      returndatacopy\n      revert(0x00, returndatasize)\n    tag_192:\n      pop\n        /* \"contracts/DAO.sol\":1990:2390  function redeemTokens(uint amount) public onlyInverstor()... */\n      pop\n      jump\t// out\n        /* \"contracts/DAO.sol\":573:604  uint public contributionTimeEnd */\n    tag_95:\n      sload(0x06)\n      dup2\n      jump\t// out\n        /* \"contracts/DAO.sol\":611:631  uint public voteTime */\n    tag_99:\n      sload(0x07)\n      dup2\n      jump\t// out\n        /* \"contracts/DAO.sol\":1818:1982  function checkInvestorStatus() private... */\n    tag_138:\n        /* \"contracts/DAO.sol\":1906:1907  0 */\n      0x00\n        /* \"contracts/DAO.sol\":1876:1890  numberOfTokens */\n      0x01\n        /* \"contracts/DAO.sol\":1876:1902  numberOfTokens[msg.sender] */\n      0x00\n        /* \"contracts/DAO.sol\":1891:1901  msg.sender */\n      caller\n        /* \"contracts/DAO.sol\":1876:1902  numberOfTokens[msg.sender] */\n      0xffffffffffffffffffffffffffffffffffffffff\n      and\n      0xffffffffffffffffffffffffffffffffffffffff\n      and\n      dup2\n      mstore\n      0x20\n      add\n      swap1\n      dup2\n      mstore\n      0x20\n      add\n      0x00\n      keccak256\n      sload\n        /* \"contracts/DAO.sol\":1876:1907  numberOfTokens[msg.sender] == 0 */\n      sub\n        /* \"contracts/DAO.sol\":1873:1975  if(numberOfTokens[msg.sender] == 0)... */\n      tag_194\n      jumpi\n        /* \"contracts/DAO.sol\":1958:1963  false */\n      0x00\n        /* \"contracts/DAO.sol\":1933:1943  isInvestor */\n      dup1\n        /* \"contracts/DAO.sol\":1933:1955  isInvestor[msg.sender] */\n      0x00\n        /* \"contracts/DAO.sol\":1944:1954  msg.sender */\n      caller\n        /* \"contracts/DAO.sol\":1933:1955  isInvestor[msg.sender] */\n      0xffffffffffffffffffffffffffffffffffffffff\n      and\n      0xffffffffffffffffffffffffffffffffffffffff\n      and\n      dup2\n      mstore\n      0x20\n      add\n      swap1\n      dup2\n      mstore\n      0x20\n      add\n      0x00\n      keccak256\n      0x00\n        /* \"contracts/DAO.sol\":1933:1963  isInvestor[msg.sender] = false */\n      0x0100\n      exp\n      dup2\n      sload\n      dup2\n      0xff\n      mul\n      not\n      and\n      swap1\n      dup4\n      iszero\n      iszero\n      mul\n      or\n      swap1\n      sstore\n      pop\n        /* \"contracts/DAO.sol\":1873:1975  if(numberOfTokens[msg.sender] == 0)... */\n    tag_194:\n        /* \"contracts/DAO.sol\":1818:1982  function checkInvestorStatus() private... */\n      jump\t// out\n        /* \"#utility.yul\":88:205   */\n    tag_196:\n        /* \"#utility.yul\":197:198   */\n      0x00\n        /* \"#utility.yul\":194:195   */\n      dup1\n        /* \"#utility.yul\":187:199   */\n      revert\n        /* \"#utility.yul\":211:328   */\n    tag_197:\n        /* \"#utility.yul\":320:321   */\n      0x00\n        /* \"#utility.yul\":317:318   */\n      dup1\n        /* \"#utility.yul\":310:322   */\n      revert\n        /* \"#utility.yul\":334:411   */\n    tag_198:\n        /* \"#utility.yul\":371:378   */\n      0x00\n        /* \"#utility.yul\":400:405   */\n      dup2\n        /* \"#utility.yul\":389:405   */\n      swap1\n      pop\n        /* \"#utility.yul\":334:411   */\n      swap2\n      swap1\n      pop\n      jump\t// out\n        /* \"#utility.yul\":417:539   */\n    tag_199:\n        /* \"#utility.yul\":490:514   */\n      tag_268\n        /* \"#utility.yul\":508:513   */\n      dup2\n        /* \"#utility.yul\":490:514   */\n      tag_198\n      jump\t// in\n    tag_268:\n        /* \"#utility.yul\":483:488   */\n      dup2\n        /* \"#utility.yul\":480:515   */\n      eq\n        /* \"#utility.yul\":470:533   */\n      tag_269\n      jumpi\n        /* \"#utility.yul\":529:530   */\n      0x00\n        /* \"#utility.yul\":526:527   */\n      dup1\n        /* \"#utility.yul\":519:531   */\n      revert\n        /* \"#utility.yul\":470:533   */\n    tag_269:\n        /* \"#utility.yul\":417:539   */\n      pop\n      jump\t// out\n        /* \"#utility.yul\":545:684   */\n    tag_200:\n        /* \"#utility.yul\":591:596   */\n      0x00\n        /* \"#utility.yul\":629:635   */\n      dup2\n        /* \"#utility.yul\":616:636   */\n      calldataload\n        /* \"#utility.yul\":607:636   */\n      swap1\n      pop\n        /* \"#utility.yul\":645:678   */\n      tag_271\n        /* \"#utility.yul\":672:677   */\n      dup2\n        /* \"#utility.yul\":645:678   */\n      tag_199\n      jump\t// in\n    tag_271:\n        /* \"#utility.yul\":545:684   */\n      swap3\n      swap2\n      pop\n      pop\n      jump\t// out\n        /* \"#utility.yul\":690:1019   */\n    tag_25:\n        /* \"#utility.yul\":749:755   */\n      0x00\n        /* \"#utility.yul\":798:800   */\n      0x20\n        /* \"#utility.yul\":786:795   */\n      dup3\n        /* \"#utility.yul\":777:784   */\n      dup5\n        /* \"#utility.yul\":773:796   */\n      sub\n        /* \"#utility.yul\":769:801   */\n      slt\n        /* \"#utility.yul\":766:885   */\n      iszero\n      tag_273\n      jumpi\n        /* \"#utility.yul\":804:883   */\n      tag_274\n      tag_196\n      jump\t// in\n    tag_274:\n        /* \"#utility.yul\":766:885   */\n    tag_273:\n        /* \"#utility.yul\":924:925   */\n      0x00\n        /* \"#utility.yul\":949:1002   */\n      tag_275\n        /* \"#utility.yul\":994:1001   */\n      dup5\n        /* \"#utility.yul\":985:991   */\n      dup3\n        /* \"#utility.yul\":974:983   */\n      dup6\n        /* \"#utility.yul\":970:992   */\n      add\n        /* \"#utility.yul\":949:1002   */\n      tag_200\n      jump\t// in\n    tag_275:\n        /* \"#utility.yul\":939:1002   */\n      swap2\n      pop\n        /* \"#utility.yul\":895:1012   */\n      pop\n        /* \"#utility.yul\":690:1019   */\n      swap3\n      swap2\n      pop\n      pop\n      jump\t// out\n        /* \"#utility.yul\":1025:1143   */\n    tag_201:\n        /* \"#utility.yul\":1112:1136   */\n      tag_277\n        /* \"#utility.yul\":1130:1135   */\n      dup2\n        /* \"#utility.yul\":1112:1136   */\n      tag_198\n      jump\t// in\n    tag_277:\n        /* \"#utility.yul\":1107:1110   */\n      dup3\n        /* \"#utility.yul\":1100:1137   */\n      mstore\n        /* \"#utility.yul\":1025:1143   */\n      pop\n      pop\n      jump\t// out\n        /* \"#utility.yul\":1149:1248   */\n    tag_202:\n        /* \"#utility.yul\":1201:1207   */\n      0x00\n        /* \"#utility.yul\":1235:1240   */\n      dup2\n        /* \"#utility.yul\":1229:1241   */\n      mload\n        /* \"#utility.yul\":1219:1241   */\n      swap1\n      pop\n        /* \"#utility.yul\":1149:1248   */\n      swap2\n      swap1\n      pop\n      jump\t// out\n        /* \"#utility.yul\":1254:1423   */\n    tag_203:\n        /* \"#utility.yul\":1338:1349   */\n      0x00\n        /* \"#utility.yul\":1372:1378   */\n      dup3\n        /* \"#utility.yul\":1367:1370   */\n      dup3\n        /* \"#utility.yul\":1360:1379   */\n      mstore\n        /* \"#utility.yul\":1412:1416   */\n      0x20\n        /* \"#utility.yul\":1407:1410   */\n      dup3\n        /* \"#utility.yul\":1403:1417   */\n      add\n        /* \"#utility.yul\":1388:1417   */\n      swap1\n      pop\n        /* \"#utility.yul\":1254:1423   */\n      swap3\n      swap2\n      pop\n      pop\n      jump\t// out\n        /* \"#utility.yul\":1429:1675   */\n    tag_204:\n        /* \"#utility.yul\":1510:1511   */\n      0x00\n        /* \"#utility.yul\":1520:1633   */\n    tag_281:\n        /* \"#utility.yul\":1534:1540   */\n      dup4\n        /* \"#utility.yul\":1531:1532   */\n      dup2\n        /* \"#utility.yul\":1528:1541   */\n      lt\n        /* \"#utility.yul\":1520:1633   */\n      iszero\n      tag_283\n      jumpi\n        /* \"#utility.yul\":1619:1620   */\n      dup1\n        /* \"#utility.yul\":1614:1617   */\n      dup3\n        /* \"#utility.yul\":1610:1621   */\n      add\n        /* \"#utility.yul\":1604:1622   */\n      mload\n        /* \"#utility.yul\":1600:1601   */\n      dup2\n        /* \"#utility.yul\":1595:1598   */\n      dup5\n        /* \"#utility.yul\":1591:1602   */\n      add\n        /* \"#utility.yul\":1584:1623   */\n      mstore\n        /* \"#utility.yul\":1556:1558   */\n      0x20\n        /* \"#utility.yul\":1553:1554   */\n      dup2\n        /* \"#utility.yul\":1549:1559   */\n      add\n        /* \"#utility.yul\":1544:1559   */\n      swap1\n      pop\n        /* \"#utility.yul\":1520:1633   */\n      jump(tag_281)\n    tag_283:\n        /* \"#utility.yul\":1667:1668   */\n      0x00\n        /* \"#utility.yul\":1658:1664   */\n      dup5\n        /* \"#utility.yul\":1653:1656   */\n      dup5\n        /* \"#utility.yul\":1649:1665   */\n      add\n        /* \"#utility.yul\":1642:1669   */\n      mstore\n        /* \"#utility.yul\":1491:1675   */\n      pop\n        /* \"#utility.yul\":1429:1675   */\n      pop\n      pop\n      pop\n      jump\t// out\n        /* \"#utility.yul\":1681:1783   */\n    tag_205:\n        /* \"#utility.yul\":1722:1728   */\n      0x00\n        /* \"#utility.yul\":1773:1775   */\n      0x1f\n        /* \"#utility.yul\":1769:1776   */\n      not\n        /* \"#utility.yul\":1764:1766   */\n      0x1f\n        /* \"#utility.yul\":1757:1762   */\n      dup4\n        /* \"#utility.yul\":1753:1767   */\n      add\n        /* \"#utility.yul\":1749:1777   */\n      and\n        /* \"#utility.yul\":1739:1777   */\n      swap1\n      pop\n        /* \"#utility.yul\":1681:1783   */\n      swap2\n      swap1\n      pop\n      jump\t// out\n        /* \"#utility.yul\":1789:2166   */\n    tag_206:\n        /* \"#utility.yul\":1877:1880   */\n      0x00\n        /* \"#utility.yul\":1905:1944   */\n      tag_286\n        /* \"#utility.yul\":1938:1943   */\n      dup3\n        /* \"#utility.yul\":1905:1944   */\n      tag_202\n      jump\t// in\n    tag_286:\n        /* \"#utility.yul\":1960:2031   */\n      tag_287\n        /* \"#utility.yul\":2024:2030   */\n      dup2\n        /* \"#utility.yul\":2019:2022   */\n      dup6\n        /* \"#utility.yul\":1960:2031   */\n      tag_203\n      jump\t// in\n    tag_287:\n        /* \"#utility.yul\":1953:2031   */\n      swap4\n      pop\n        /* \"#utility.yul\":2040:2105   */\n      tag_288\n        /* \"#utility.yul\":2098:2104   */\n      dup2\n        /* \"#utility.yul\":2093:2096   */\n      dup6\n        /* \"#utility.yul\":2086:2090   */\n      0x20\n        /* \"#utility.yul\":2079:2084   */\n      dup7\n        /* \"#utility.yul\":2075:2091   */\n      add\n        /* \"#utility.yul\":2040:2105   */\n      tag_204\n      jump\t// in\n    tag_288:\n        /* \"#utility.yul\":2130:2159   */\n      tag_289\n        /* \"#utility.yul\":2152:2158   */\n      dup2\n        /* \"#utility.yul\":2130:2159   */\n      tag_205\n      jump\t// in\n    tag_289:\n        /* \"#utility.yul\":2125:2128   */\n      dup5\n        /* \"#utility.yul\":2121:2160   */\n      add\n        /* \"#utility.yul\":2114:2160   */\n      swap2\n      pop\n        /* \"#utility.yul\":1881:2166   */\n      pop\n        /* \"#utility.yul\":1789:2166   */\n      swap3\n      swap2\n      pop\n      pop\n      jump\t// out\n        /* \"#utility.yul\":2172:2298   */\n    tag_207:\n        /* \"#utility.yul\":2209:2216   */\n      0x00\n        /* \"#utility.yul\":2249:2291   */\n      0xffffffffffffffffffffffffffffffffffffffff\n        /* \"#utility.yul\":2242:2247   */\n      dup3\n        /* \"#utility.yul\":2238:2292   */\n      and\n        /* \"#utility.yul\":2227:2292   */\n      swap1\n      pop\n        /* \"#utility.yul\":2172:2298   */\n      swap2\n      swap1\n      pop\n      jump\t// out\n        /* \"#utility.yul\":2304:2408   */\n    tag_208:\n        /* \"#utility.yul\":2349:2356   */\n      0x00\n        /* \"#utility.yul\":2378:2402   */\n      tag_292\n        /* \"#utility.yul\":2396:2401   */\n      dup3\n        /* \"#utility.yul\":2378:2402   */\n      tag_207\n      jump\t// in\n    tag_292:\n        /* \"#utility.yul\":2367:2402   */\n      swap1\n      pop\n        /* \"#utility.yul\":2304:2408   */\n      swap2\n      swap1\n      pop\n      jump\t// out\n        /* \"#utility.yul\":2414:2556   */\n    tag_209:\n        /* \"#utility.yul\":2517:2549   */\n      tag_294\n        /* \"#utility.yul\":2543:2548   */\n      dup2\n        /* \"#utility.yul\":2517:2549   */\n      tag_208\n      jump\t// in\n    tag_294:\n        /* \"#utility.yul\":2512:2515   */\n      dup3\n        /* \"#utility.yul\":2505:2550   */\n      mstore\n        /* \"#utility.yul\":2414:2556   */\n      pop\n      pop\n      jump\t// out\n        /* \"#utility.yul\":2562:2652   */\n    tag_210:\n        /* \"#utility.yul\":2596:2603   */\n      0x00\n        /* \"#utility.yul\":2639:2644   */\n      dup2\n        /* \"#utility.yul\":2632:2645   */\n      iszero\n        /* \"#utility.yul\":2625:2646   */\n      iszero\n        /* \"#utility.yul\":2614:2646   */\n      swap1\n      pop\n        /* \"#utility.yul\":2562:2652   */\n      swap2\n      swap1\n      pop\n      jump\t// out\n        /* \"#utility.yul\":2658:2767   */\n    tag_211:\n        /* \"#utility.yul\":2739:2760   */\n      tag_297\n        /* \"#utility.yul\":2754:2759   */\n      dup2\n        /* \"#utility.yul\":2739:2760   */\n      tag_210\n      jump\t// in\n    tag_297:\n        /* \"#utility.yul\":2734:2737   */\n      dup3\n        /* \"#utility.yul\":2727:2761   */\n      mstore\n        /* \"#utility.yul\":2658:2767   */\n      pop\n      pop\n      jump\t// out\n        /* \"#utility.yul\":2773:3770   */\n    tag_28:\n        /* \"#utility.yul\":3064:3068   */\n      0x00\n        /* \"#utility.yul\":3102:3105   */\n      0xe0\n        /* \"#utility.yul\":3091:3100   */\n      dup3\n        /* \"#utility.yul\":3087:3106   */\n      add\n        /* \"#utility.yul\":3079:3106   */\n      swap1\n      pop\n        /* \"#utility.yul\":3116:3187   */\n      tag_299\n        /* \"#utility.yul\":3184:3185   */\n      0x00\n        /* \"#utility.yul\":3173:3182   */\n      dup4\n        /* \"#utility.yul\":3169:3186   */\n      add\n        /* \"#utility.yul\":3160:3166   */\n      dup11\n        /* \"#utility.yul\":3116:3187   */\n      tag_201\n      jump\t// in\n    tag_299:\n        /* \"#utility.yul\":3234:3243   */\n      dup2\n        /* \"#utility.yul\":3228:3232   */\n      dup2\n        /* \"#utility.yul\":3224:3244   */\n      sub\n        /* \"#utility.yul\":3219:3221   */\n      0x20\n        /* \"#utility.yul\":3208:3217   */\n      dup4\n        /* \"#utility.yul\":3204:3222   */\n      add\n        /* \"#utility.yul\":3197:3245   */\n      mstore\n        /* \"#utility.yul\":3262:3340   */\n      tag_300\n        /* \"#utility.yul\":3335:3339   */\n      dup2\n        /* \"#utility.yul\":3326:3332   */\n      dup10\n        /* \"#utility.yul\":3262:3340   */\n      tag_206\n      jump\t// in\n    tag_300:\n        /* \"#utility.yul\":3254:3340   */\n      swap1\n      pop\n        /* \"#utility.yul\":3350:3422   */\n      tag_301\n        /* \"#utility.yul\":3418:3420   */\n      0x40\n        /* \"#utility.yul\":3407:3416   */\n      dup4\n        /* \"#utility.yul\":3403:3421   */\n      add\n        /* \"#utility.yul\":3394:3400   */\n      dup9\n        /* \"#utility.yul\":3350:3422   */\n      tag_201\n      jump\t// in\n    tag_301:\n        /* \"#utility.yul\":3432:3520   */\n      tag_302\n        /* \"#utility.yul\":3516:3518   */\n      0x60\n        /* \"#utility.yul\":3505:3514   */\n      dup4\n        /* \"#utility.yul\":3501:3519   */\n      add\n        /* \"#utility.yul\":3492:3498   */\n      dup8\n        /* \"#utility.yul\":3432:3520   */\n      tag_209\n      jump\t// in\n    tag_302:\n        /* \"#utility.yul\":3530:3603   */\n      tag_303\n        /* \"#utility.yul\":3598:3601   */\n      0x80\n        /* \"#utility.yul\":3587:3596   */\n      dup4\n        /* \"#utility.yul\":3583:3602   */\n      add\n        /* \"#utility.yul\":3574:3580   */\n      dup7\n        /* \"#utility.yul\":3530:3603   */\n      tag_201\n      jump\t// in\n    tag_303:\n        /* \"#utility.yul\":3613:3686   */\n      tag_304\n        /* \"#utility.yul\":3681:3684   */\n      0xa0\n        /* \"#utility.yul\":3670:3679   */\n      dup4\n        /* \"#utility.yul\":3666:3685   */\n      add\n        /* \"#utility.yul\":3657:3663   */\n      dup6\n        /* \"#utility.yul\":3613:3686   */\n      tag_201\n      jump\t// in\n    tag_304:\n        /* \"#utility.yul\":3696:3763   */\n      tag_305\n        /* \"#utility.yul\":3758:3761   */\n      0xc0\n        /* \"#utility.yul\":3747:3756   */\n      dup4\n        /* \"#utility.yul\":3743:3762   */\n      add\n        /* \"#utility.yul\":3734:3740   */\n      dup5\n        /* \"#utility.yul\":3696:3763   */\n      tag_211\n      jump\t// in\n    tag_305:\n        /* \"#utility.yul\":2773:3770   */\n      swap9\n      swap8\n      pop\n      pop\n      pop\n      pop\n      pop\n      pop\n      pop\n      pop\n      jump\t// out\n        /* \"#utility.yul\":3776:3998   */\n    tag_37:\n        /* \"#utility.yul\":3869:3873   */\n      0x00\n        /* \"#utility.yul\":3907:3909   */\n      0x20\n        /* \"#utility.yul\":3896:3905   */\n      dup3\n        /* \"#utility.yul\":3892:3910   */\n      add\n        /* \"#utility.yul\":3884:3910   */\n      swap1\n      pop\n        /* \"#utility.yul\":3920:3991   */\n      tag_307\n        /* \"#utility.yul\":3988:3989   */\n      0x00\n        /* \"#utility.yul\":3977:3986   */\n      dup4\n        /* \"#utility.yul\":3973:3990   */\n      add\n        /* \"#utility.yul\":3964:3970   */\n      dup5\n        /* \"#utility.yul\":3920:3991   */\n      tag_201\n      jump\t// in\n    tag_307:\n        /* \"#utility.yul\":3776:3998   */\n      swap3\n      swap2\n      pop\n      pop\n      jump\t// out\n        /* \"#utility.yul\":4004:4100   */\n    tag_212:\n        /* \"#utility.yul\":4041:4048   */\n      0x00\n        /* \"#utility.yul\":4070:4094   */\n      tag_309\n        /* \"#utility.yul\":4088:4093   */\n      dup3\n        /* \"#utility.yul\":4070:4094   */\n      tag_207\n      jump\t// in\n    tag_309:\n        /* \"#utility.yul\":4059:4094   */\n      swap1\n      pop\n        /* \"#utility.yul\":4004:4100   */\n      swap2\n      swap1\n      pop\n      jump\t// out\n        /* \"#utility.yul\":4106:4224   */\n    tag_213:\n        /* \"#utility.yul\":4193:4217   */\n      tag_311\n        /* \"#utility.yul\":4211:4216   */\n      dup2\n        /* \"#utility.yul\":4193:4217   */\n      tag_212\n      jump\t// in\n    tag_311:\n        /* \"#utility.yul\":4188:4191   */\n      dup3\n        /* \"#utility.yul\":4181:4218   */\n      mstore\n        /* \"#utility.yul\":4106:4224   */\n      pop\n      pop\n      jump\t// out\n        /* \"#utility.yul\":4230:4452   */\n    tag_47:\n        /* \"#utility.yul\":4323:4327   */\n      0x00\n        /* \"#utility.yul\":4361:4363   */\n      0x20\n        /* \"#utility.yul\":4350:4359   */\n      dup3\n        /* \"#utility.yul\":4346:4364   */\n      add\n        /* \"#utility.yul\":4338:4364   */\n      swap1\n      pop\n        /* \"#utility.yul\":4374:4445   */\n      tag_313\n        /* \"#utility.yul\":4442:4443   */\n      0x00\n        /* \"#utility.yul\":4431:4440   */\n      dup4\n        /* \"#utility.yul\":4427:4444   */\n      add\n        /* \"#utility.yul\":4418:4424   */\n      dup5\n        /* \"#utility.yul\":4374:4445   */\n      tag_213\n      jump\t// in\n    tag_313:\n        /* \"#utility.yul\":4230:4452   */\n      swap3\n      swap2\n      pop\n      pop\n      jump\t// out\n        /* \"#utility.yul\":4458:4580   */\n    tag_214:\n        /* \"#utility.yul\":4531:4555   */\n      tag_315\n        /* \"#utility.yul\":4549:4554   */\n      dup2\n        /* \"#utility.yul\":4531:4555   */\n      tag_212\n      jump\t// in\n    tag_315:\n        /* \"#utility.yul\":4524:4529   */\n      dup2\n        /* \"#utility.yul\":4521:4556   */\n      eq\n        /* \"#utility.yul\":4511:4574   */\n      tag_316\n      jumpi\n        /* \"#utility.yul\":4570:4571   */\n      0x00\n        /* \"#utility.yul\":4567:4568   */\n      dup1\n        /* \"#utility.yul\":4560:4572   */\n      revert\n        /* \"#utility.yul\":4511:4574   */\n    tag_316:\n        /* \"#utility.yul\":4458:4580   */\n      pop\n      jump\t// out\n        /* \"#utility.yul\":4586:4725   */\n    tag_215:\n        /* \"#utility.yul\":4632:4637   */\n      0x00\n        /* \"#utility.yul\":4670:4676   */\n      dup2\n        /* \"#utility.yul\":4657:4677   */\n      calldataload\n        /* \"#utility.yul\":4648:4677   */\n      swap1\n      pop\n        /* \"#utility.yul\":4686:4719   */\n      tag_318\n        /* \"#utility.yul\":4713:4718   */\n      dup2\n        /* \"#utility.yul\":4686:4719   */\n      tag_214\n      jump\t// in\n    tag_318:\n        /* \"#utility.yul\":4586:4725   */\n      swap3\n      swap2\n      pop\n      pop\n      jump\t// out\n        /* \"#utility.yul\":4731:5205   */\n    tag_51:\n        /* \"#utility.yul\":4799:4805   */\n      0x00\n        /* \"#utility.yul\":4807:4813   */\n      dup1\n        /* \"#utility.yul\":4856:4858   */\n      0x40\n        /* \"#utility.yul\":4844:4853   */\n      dup4\n        /* \"#utility.yul\":4835:4842   */\n      dup6\n        /* \"#utility.yul\":4831:4854   */\n      sub\n        /* \"#utility.yul\":4827:4859   */\n      slt\n        /* \"#utility.yul\":4824:4943   */\n      iszero\n      tag_320\n      jumpi\n        /* \"#utility.yul\":4862:4941   */\n      tag_321\n      tag_196\n      jump\t// in\n    tag_321:\n        /* \"#utility.yul\":4824:4943   */\n    tag_320:\n        /* \"#utility.yul\":4982:4983   */\n      0x00\n        /* \"#utility.yul\":5007:5060   */\n      tag_322\n        /* \"#utility.yul\":5052:5059   */\n      dup6\n        /* \"#utility.yul\":5043:5049   */\n      dup3\n        /* \"#utility.yul\":5032:5041   */\n      dup7\n        /* \"#utility.yul\":5028:5050   */\n      add\n        /* \"#utility.yul\":5007:5060   */\n      tag_200\n      jump\t// in\n    tag_322:\n        /* \"#utility.yul\":4997:5060   */\n      swap3\n      pop\n        /* \"#utility.yul\":4953:5070   */\n      pop\n        /* \"#utility.yul\":5109:5111   */\n      0x20\n        /* \"#utility.yul\":5135:5188   */\n      tag_323\n        /* \"#utility.yul\":5180:5187   */\n      dup6\n        /* \"#utility.yul\":5171:5177   */\n      dup3\n        /* \"#utility.yul\":5160:5169   */\n      dup7\n        /* \"#utility.yul\":5156:5178   */\n      add\n        /* \"#utility.yul\":5135:5188   */\n      tag_215\n      jump\t// in\n    tag_323:\n        /* \"#utility.yul\":5125:5188   */\n      swap2\n      pop\n        /* \"#utility.yul\":5080:5198   */\n      pop\n        /* \"#utility.yul\":4731:5205   */\n      swap3\n      pop\n      swap3\n      swap1\n      pop\n      jump\t// out\n        /* \"#utility.yul\":5211:5540   */\n    tag_66:\n        /* \"#utility.yul\":5270:5276   */\n      0x00\n        /* \"#utility.yul\":5319:5321   */\n      0x20\n        /* \"#utility.yul\":5307:5316   */\n      dup3\n        /* \"#utility.yul\":5298:5305   */\n      dup5\n        /* \"#utility.yul\":5294:5317   */\n      sub\n        /* \"#utility.yul\":5290:5322   */\n      slt\n        /* \"#utility.yul\":5287:5406   */\n      iszero\n      tag_325\n      jumpi\n        /* \"#utility.yul\":5325:5404   */\n      tag_326\n      tag_196\n      jump\t// in\n    tag_326:\n        /* \"#utility.yul\":5287:5406   */\n    tag_325:\n        /* \"#utility.yul\":5445:5446   */\n      0x00\n        /* \"#utility.yul\":5470:5523   */\n      tag_327\n        /* \"#utility.yul\":5515:5522   */\n      dup5\n        /* \"#utility.yul\":5506:5512   */\n      dup3\n        /* \"#utility.yul\":5495:5504   */\n      dup6\n        /* \"#utility.yul\":5491:5513   */\n      add\n        /* \"#utility.yul\":5470:5523   */\n      tag_215\n      jump\t// in\n    tag_327:\n        /* \"#utility.yul\":5460:5523   */\n      swap2\n      pop\n        /* \"#utility.yul\":5416:5533   */\n      pop\n        /* \"#utility.yul\":5211:5540   */\n      swap3\n      swap2\n      pop\n      pop\n      jump\t// out\n        /* \"#utility.yul\":5546:5663   */\n    tag_216:\n        /* \"#utility.yul\":5655:5656   */\n      0x00\n        /* \"#utility.yul\":5652:5653   */\n      dup1\n        /* \"#utility.yul\":5645:5657   */\n      revert\n        /* \"#utility.yul\":5669:5786   */\n    tag_217:\n        /* \"#utility.yul\":5778:5779   */\n      0x00\n        /* \"#utility.yul\":5775:5776   */\n      dup1\n        /* \"#utility.yul\":5768:5780   */\n      revert\n        /* \"#utility.yul\":5792:5909   */\n    tag_218:\n        /* \"#utility.yul\":5901:5902   */\n      0x00\n        /* \"#utility.yul\":5898:5899   */\n      dup1\n        /* \"#utility.yul\":5891:5903   */\n      revert\n        /* \"#utility.yul\":5929:6482   */\n    tag_219:\n        /* \"#utility.yul\":5987:5995   */\n      0x00\n        /* \"#utility.yul\":5997:6003   */\n      dup1\n        /* \"#utility.yul\":6047:6050   */\n      dup4\n        /* \"#utility.yul\":6040:6044   */\n      0x1f\n        /* \"#utility.yul\":6032:6038   */\n      dup5\n        /* \"#utility.yul\":6028:6045   */\n      add\n        /* \"#utility.yul\":6024:6051   */\n      slt\n        /* \"#utility.yul\":6014:6136   */\n      tag_332\n      jumpi\n        /* \"#utility.yul\":6055:6134   */\n      tag_333\n      tag_216\n      jump\t// in\n    tag_333:\n        /* \"#utility.yul\":6014:6136   */\n    tag_332:\n        /* \"#utility.yul\":6168:6174   */\n      dup3\n        /* \"#utility.yul\":6155:6175   */\n      calldataload\n        /* \"#utility.yul\":6145:6175   */\n      swap1\n      pop\n        /* \"#utility.yul\":6198:6216   */\n      0xffffffffffffffff\n        /* \"#utility.yul\":6190:6196   */\n      dup2\n        /* \"#utility.yul\":6187:6217   */\n      gt\n        /* \"#utility.yul\":6184:6301   */\n      iszero\n      tag_334\n      jumpi\n        /* \"#utility.yul\":6220:6299   */\n      tag_335\n      tag_217\n      jump\t// in\n    tag_335:\n        /* \"#utility.yul\":6184:6301   */\n    tag_334:\n        /* \"#utility.yul\":6334:6338   */\n      0x20\n        /* \"#utility.yul\":6326:6332   */\n      dup4\n        /* \"#utility.yul\":6322:6339   */\n      add\n        /* \"#utility.yul\":6310:6339   */\n      swap2\n      pop\n        /* \"#utility.yul\":6388:6391   */\n      dup4\n        /* \"#utility.yul\":6380:6384   */\n      0x01\n        /* \"#utility.yul\":6372:6378   */\n      dup3\n        /* \"#utility.yul\":6368:6385   */\n      mul\n        /* \"#utility.yul\":6358:6366   */\n      dup4\n        /* \"#utility.yul\":6354:6386   */\n      add\n        /* \"#utility.yul\":6351:6392   */\n      gt\n        /* \"#utility.yul\":6348:6476   */\n      iszero\n      tag_336\n      jumpi\n        /* \"#utility.yul\":6395:6474   */\n      tag_337\n      tag_218\n      jump\t// in\n    tag_337:\n        /* \"#utility.yul\":6348:6476   */\n    tag_336:\n        /* \"#utility.yul\":5929:6482   */\n      swap3\n      pop\n      swap3\n      swap1\n      pop\n      jump\t// out\n        /* \"#utility.yul\":6488:6626   */\n    tag_220:\n        /* \"#utility.yul\":6569:6601   */\n      tag_339\n        /* \"#utility.yul\":6595:6600   */\n      dup2\n        /* \"#utility.yul\":6569:6601   */\n      tag_208\n      jump\t// in\n    tag_339:\n        /* \"#utility.yul\":6562:6567   */\n      dup2\n        /* \"#utility.yul\":6559:6602   */\n      eq\n        /* \"#utility.yul\":6549:6620   */\n      tag_340\n      jumpi\n        /* \"#utility.yul\":6616:6617   */\n      0x00\n        /* \"#utility.yul\":6613:6614   */\n      dup1\n        /* \"#utility.yul\":6606:6618   */\n      revert\n        /* \"#utility.yul\":6549:6620   */\n    tag_340:\n        /* \"#utility.yul\":6488:6626   */\n      pop\n      jump\t// out\n        /* \"#utility.yul\":6632:6787   */\n    tag_221:\n        /* \"#utility.yul\":6686:6691   */\n      0x00\n        /* \"#utility.yul\":6724:6730   */\n      dup2\n        /* \"#utility.yul\":6711:6731   */\n      calldataload\n        /* \"#utility.yul\":6702:6731   */\n      swap1\n      pop\n        /* \"#utility.yul\":6740:6781   */\n      tag_342\n        /* \"#utility.yul\":6775:6780   */\n      dup2\n        /* \"#utility.yul\":6740:6781   */\n      tag_220\n      jump\t// in\n    tag_342:\n        /* \"#utility.yul\":6632:6787   */\n      swap3\n      swap2\n      pop\n      pop\n      jump\t// out\n        /* \"#utility.yul\":6793:7628   */\n    tag_72:\n        /* \"#utility.yul\":6890:6896   */\n      0x00\n        /* \"#utility.yul\":6898:6904   */\n      dup1\n        /* \"#utility.yul\":6906:6912   */\n      0x00\n        /* \"#utility.yul\":6914:6920   */\n      dup1\n        /* \"#utility.yul\":6963:6965   */\n      0x60\n        /* \"#utility.yul\":6951:6960   */\n      dup6\n        /* \"#utility.yul\":6942:6949   */\n      dup8\n        /* \"#utility.yul\":6938:6961   */\n      sub\n        /* \"#utility.yul\":6934:6966   */\n      slt\n        /* \"#utility.yul\":6931:7050   */\n      iszero\n      tag_344\n      jumpi\n        /* \"#utility.yul\":6969:7048   */\n      tag_345\n      tag_196\n      jump\t// in\n    tag_345:\n        /* \"#utility.yul\":6931:7050   */\n    tag_344:\n        /* \"#utility.yul\":7117:7118   */\n      0x00\n        /* \"#utility.yul\":7106:7115   */\n      dup6\n        /* \"#utility.yul\":7102:7119   */\n      add\n        /* \"#utility.yul\":7089:7120   */\n      calldataload\n        /* \"#utility.yul\":7147:7165   */\n      0xffffffffffffffff\n        /* \"#utility.yul\":7139:7145   */\n      dup2\n        /* \"#utility.yul\":7136:7166   */\n      gt\n        /* \"#utility.yul\":7133:7250   */\n      iszero\n      tag_346\n      jumpi\n        /* \"#utility.yul\":7169:7248   */\n      tag_347\n      tag_197\n      jump\t// in\n    tag_347:\n        /* \"#utility.yul\":7133:7250   */\n    tag_346:\n        /* \"#utility.yul\":7282:7347   */\n      tag_348\n        /* \"#utility.yul\":7339:7346   */\n      dup8\n        /* \"#utility.yul\":7330:7336   */\n      dup3\n        /* \"#utility.yul\":7319:7328   */\n      dup9\n        /* \"#utility.yul\":7315:7337   */\n      add\n        /* \"#utility.yul\":7282:7347   */\n      tag_219\n      jump\t// in\n    tag_348:\n        /* \"#utility.yul\":7264:7347   */\n      swap5\n      pop\n      swap5\n      pop\n        /* \"#utility.yul\":7060:7357   */\n      pop\n        /* \"#utility.yul\":7396:7398   */\n      0x20\n        /* \"#utility.yul\":7422:7475   */\n      tag_349\n        /* \"#utility.yul\":7467:7474   */\n      dup8\n        /* \"#utility.yul\":7458:7464   */\n      dup3\n        /* \"#utility.yul\":7447:7456   */\n      dup9\n        /* \"#utility.yul\":7443:7465   */\n      add\n        /* \"#utility.yul\":7422:7475   */\n      tag_200\n      jump\t// in\n    tag_349:\n        /* \"#utility.yul\":7412:7475   */\n      swap3\n      pop\n        /* \"#utility.yul\":7367:7485   */\n      pop\n        /* \"#utility.yul\":7524:7526   */\n      0x40\n        /* \"#utility.yul\":7550:7611   */\n      tag_350\n        /* \"#utility.yul\":7603:7610   */\n      dup8\n        /* \"#utility.yul\":7594:7600   */\n      dup3\n        /* \"#utility.yul\":7583:7592   */\n      dup9\n        /* \"#utility.yul\":7579:7601   */\n      add\n        /* \"#utility.yul\":7550:7611   */\n      tag_221\n      jump\t// in\n    tag_350:\n        /* \"#utility.yul\":7540:7611   */\n      swap2\n      pop\n        /* \"#utility.yul\":7495:7621   */\n      pop\n        /* \"#utility.yul\":6793:7628   */\n      swap3\n      swap6\n      swap2\n      swap5\n      pop\n      swap3\n      pop\n      jump\t// out\n        /* \"#utility.yul\":7634:8108   */\n    tag_85:\n        /* \"#utility.yul\":7702:7708   */\n      0x00\n        /* \"#utility.yul\":7710:7716   */\n      dup1\n        /* \"#utility.yul\":7759:7761   */\n      0x40\n        /* \"#utility.yul\":7747:7756   */\n      dup4\n        /* \"#utility.yul\":7738:7745   */\n      dup6\n        /* \"#utility.yul\":7734:7757   */\n      sub\n        /* \"#utility.yul\":7730:7762   */\n      slt\n        /* \"#utility.yul\":7727:7846   */\n      iszero\n      tag_352\n      jumpi\n        /* \"#utility.yul\":7765:7844   */\n      tag_353\n      tag_196\n      jump\t// in\n    tag_353:\n        /* \"#utility.yul\":7727:7846   */\n    tag_352:\n        /* \"#utility.yul\":7885:7886   */\n      0x00\n        /* \"#utility.yul\":7910:7963   */\n      tag_354\n        /* \"#utility.yul\":7955:7962   */\n      dup6\n        /* \"#utility.yul\":7946:7952   */\n      dup3\n        /* \"#utility.yul\":7935:7944   */\n      dup7\n        /* \"#utility.yul\":7931:7953   */\n      add\n        /* \"#utility.yul\":7910:7963   */\n      tag_215\n      jump\t// in\n    tag_354:\n        /* \"#utility.yul\":7900:7963   */\n      swap3\n      pop\n        /* \"#utility.yul\":7856:7973   */\n      pop\n        /* \"#utility.yul\":8012:8014   */\n      0x20\n        /* \"#utility.yul\":8038:8091   */\n      tag_355\n        /* \"#utility.yul\":8083:8090   */\n      dup6\n        /* \"#utility.yul\":8074:8080   */\n      dup3\n        /* \"#utility.yul\":8063:8072   */\n      dup7\n        /* \"#utility.yul\":8059:8081   */\n      add\n        /* \"#utility.yul\":8038:8091   */\n      tag_200\n      jump\t// in\n    tag_355:\n        /* \"#utility.yul\":8028:8091   */\n      swap2\n      pop\n        /* \"#utility.yul\":7983:8101   */\n      pop\n        /* \"#utility.yul\":7634:8108   */\n      swap3\n      pop\n      swap3\n      swap1\n      pop\n      jump\t// out\n        /* \"#utility.yul\":8114:8324   */\n    tag_88:\n        /* \"#utility.yul\":8201:8205   */\n      0x00\n        /* \"#utility.yul\":8239:8241   */\n      0x20\n        /* \"#utility.yul\":8228:8237   */\n      dup3\n        /* \"#utility.yul\":8224:8242   */\n      add\n        /* \"#utility.yul\":8216:8242   */\n      swap1\n      pop\n        /* \"#utility.yul\":8252:8317   */\n      tag_357\n        /* \"#utility.yul\":8314:8315   */\n      0x00\n        /* \"#utility.yul\":8303:8312   */\n      dup4\n        /* \"#utility.yul\":8299:8316   */\n      add\n        /* \"#utility.yul\":8290:8296   */\n      dup5\n        /* \"#utility.yul\":8252:8317   */\n      tag_211\n      jump\t// in\n    tag_357:\n        /* \"#utility.yul\":8114:8324   */\n      swap3\n      swap2\n      pop\n      pop\n      jump\t// out\n        /* \"#utility.yul\":8330:8510   */\n    tag_222:\n        /* \"#utility.yul\":8378:8455   */\n      0x4e487b7100000000000000000000000000000000000000000000000000000000\n        /* \"#utility.yul\":8375:8376   */\n      0x00\n        /* \"#utility.yul\":8368:8456   */\n      mstore\n        /* \"#utility.yul\":8475:8479   */\n      0x22\n        /* \"#utility.yul\":8472:8473   */\n      0x04\n        /* \"#utility.yul\":8465:8480   */\n      mstore\n        /* \"#utility.yul\":8499:8503   */\n      0x24\n        /* \"#utility.yul\":8496:8497   */\n      0x00\n        /* \"#utility.yul\":8489:8504   */\n      revert\n        /* \"#utility.yul\":8516:8836   */\n    tag_102:\n        /* \"#utility.yul\":8560:8566   */\n      0x00\n        /* \"#utility.yul\":8597:8598   */\n      0x02\n        /* \"#utility.yul\":8591:8595   */\n      dup3\n        /* \"#utility.yul\":8587:8599   */\n      div\n        /* \"#utility.yul\":8577:8599   */\n      swap1\n      pop\n        /* \"#utility.yul\":8644:8645   */\n      0x01\n        /* \"#utility.yul\":8638:8642   */\n      dup3\n        /* \"#utility.yul\":8634:8646   */\n      and\n        /* \"#utility.yul\":8665:8683   */\n      dup1\n        /* \"#utility.yul\":8655:8736   */\n      tag_360\n      jumpi\n        /* \"#utility.yul\":8721:8725   */\n      0x7f\n        /* \"#utility.yul\":8713:8719   */\n      dup3\n        /* \"#utility.yul\":8709:8726   */\n      and\n        /* \"#utility.yul\":8699:8726   */\n      swap2\n      pop\n        /* \"#utility.yul\":8655:8736   */\n    tag_360:\n        /* \"#utility.yul\":8783:8785   */\n      0x20\n        /* \"#utility.yul\":8775:8781   */\n      dup3\n        /* \"#utility.yul\":8772:8786   */\n      lt\n        /* \"#utility.yul\":8752:8770   */\n      dup2\n        /* \"#utility.yul\":8749:8787   */\n      sub\n        /* \"#utility.yul\":8746:8830   */\n      tag_361\n      jumpi\n        /* \"#utility.yul\":8802:8820   */\n      tag_362\n      tag_222\n      jump\t// in\n    tag_362:\n        /* \"#utility.yul\":8746:8830   */\n    tag_361:\n        /* \"#utility.yul\":8567:8836   */\n      pop\n        /* \"#utility.yul\":8516:8836   */\n      swap2\n      swap1\n      pop\n      jump\t// out\n        /* \"#utility.yul\":8842:9015   */\n    tag_223:\n        /* \"#utility.yul\":8982:9007   */\n      0x596f7520617265206e6f7420616e20696e766573746f72000000000000000000\n        /* \"#utility.yul\":8978:8979   */\n      0x00\n        /* \"#utility.yul\":8970:8976   */\n      dup3\n        /* \"#utility.yul\":8966:8980   */\n      add\n        /* \"#utility.yul\":8959:9008   */\n      mstore\n        /* \"#utility.yul\":8842:9015   */\n      pop\n      jump\t// out\n        /* \"#utility.yul\":9021:9387   */\n    tag_224:\n        /* \"#utility.yul\":9163:9166   */\n      0x00\n        /* \"#utility.yul\":9184:9251   */\n      tag_365\n        /* \"#utility.yul\":9248:9250   */\n      0x17\n        /* \"#utility.yul\":9243:9246   */\n      dup4\n        /* \"#utility.yul\":9184:9251   */\n      tag_203\n      jump\t// in\n    tag_365:\n        /* \"#utility.yul\":9177:9251   */\n      swap2\n      pop\n        /* \"#utility.yul\":9260:9353   */\n      tag_366\n        /* \"#utility.yul\":9349:9352   */\n      dup3\n        /* \"#utility.yul\":9260:9353   */\n      tag_223\n      jump\t// in\n    tag_366:\n        /* \"#utility.yul\":9378:9380   */\n      0x20\n        /* \"#utility.yul\":9373:9376   */\n      dup3\n        /* \"#utility.yul\":9369:9381   */\n      add\n        /* \"#utility.yul\":9362:9381   */\n      swap1\n      pop\n        /* \"#utility.yul\":9021:9387   */\n      swap2\n      swap1\n      pop\n      jump\t// out\n        /* \"#utility.yul\":9393:9812   */\n    tag_110:\n        /* \"#utility.yul\":9559:9563   */\n      0x00\n        /* \"#utility.yul\":9597:9599   */\n      0x20\n        /* \"#utility.yul\":9586:9595   */\n      dup3\n        /* \"#utility.yul\":9582:9600   */\n      add\n        /* \"#utility.yul\":9574:9600   */\n      swap1\n      pop\n        /* \"#utility.yul\":9646:9655   */\n      dup2\n        /* \"#utility.yul\":9640:9644   */\n      dup2\n        /* \"#utility.yul\":9636:9656   */\n      sub\n        /* \"#utility.yul\":9632:9633   */\n      0x00\n        /* \"#utility.yul\":9621:9630   */\n      dup4\n        /* \"#utility.yul\":9617:9634   */\n      add\n        /* \"#utility.yul\":9610:9657   */\n      mstore\n        /* \"#utility.yul\":9674:9805   */\n      tag_368\n        /* \"#utility.yul\":9800:9804   */\n      dup2\n        /* \"#utility.yul\":9674:9805   */\n      tag_224\n      jump\t// in\n    tag_368:\n        /* \"#utility.yul\":9666:9805   */\n      swap1\n      pop\n        /* \"#utility.yul\":9393:9812   */\n      swap2\n      swap1\n      pop\n      jump\t// out\n        /* \"#utility.yul\":9818:10044   */\n    tag_225:\n        /* \"#utility.yul\":9958:9992   */\n      0x546869732050726f706f73616c2068617320616c7265616479206265656e2065\n        /* \"#utility.yul\":9954:9955   */\n      0x00\n        /* \"#utility.yul\":9946:9952   */\n      dup3\n        /* \"#utility.yul\":9942:9956   */\n      add\n        /* \"#utility.yul\":9935:9993   */\n      mstore\n        /* \"#utility.yul\":10027:10036   */\n      0x7865637574656400000000000000000000000000000000000000000000000000\n        /* \"#utility.yul\":10022:10024   */\n      0x20\n        /* \"#utility.yul\":10014:10020   */\n      dup3\n        /* \"#utility.yul\":10010:10025   */\n      add\n        /* \"#utility.yul\":10003:10037   */\n      mstore\n        /* \"#utility.yul\":9818:10044   */\n      pop\n      jump\t// out\n        /* \"#utility.yul\":10050:10416   */\n    tag_226:\n        /* \"#utility.yul\":10192:10195   */\n      0x00\n        /* \"#utility.yul\":10213:10280   */\n      tag_371\n        /* \"#utility.yul\":10277:10279   */\n      0x27\n        /* \"#utility.yul\":10272:10275   */\n      dup4\n        /* \"#utility.yul\":10213:10280   */\n      tag_203\n      jump\t// in\n    tag_371:\n        /* \"#utility.yul\":10206:10280   */\n      swap2\n      pop\n        /* \"#utility.yul\":10289:10382   */\n      tag_372\n        /* \"#utility.yul\":10378:10381   */\n      dup3\n        /* \"#utility.yul\":10289:10382   */\n      tag_225\n      jump\t// in\n    tag_372:\n        /* \"#utility.yul\":10407:10409   */\n      0x40\n        /* \"#utility.yul\":10402:10405   */\n      dup3\n        /* \"#utility.yul\":10398:10410   */\n      add\n        /* \"#utility.yul\":10391:10410   */\n      swap1\n      pop\n        /* \"#utility.yul\":10050:10416   */\n      swap2\n      swap1\n      pop\n      jump\t// out\n        /* \"#utility.yul\":10422:10841   */\n    tag_114:\n        /* \"#utility.yul\":10588:10592   */\n      0x00\n        /* \"#utility.yul\":10626:10628   */\n      0x20\n        /* \"#utility.yul\":10615:10624   */\n      dup3\n        /* \"#utility.yul\":10611:10629   */\n      add\n        /* \"#utility.yul\":10603:10629   */\n      swap1\n      pop\n        /* \"#utility.yul\":10675:10684   */\n      dup2\n        /* \"#utility.yul\":10669:10673   */\n      dup2\n        /* \"#utility.yul\":10665:10685   */\n      sub\n        /* \"#utility.yul\":10661:10662   */\n      0x00\n        /* \"#utility.yul\":10650:10659   */\n      dup4\n        /* \"#utility.yul\":10646:10663   */\n      add\n        /* \"#utility.yul\":10639:10686   */\n      mstore\n        /* \"#utility.yul\":10703:10834   */\n      tag_374\n        /* \"#utility.yul\":10829:10833   */\n      dup2\n        /* \"#utility.yul\":10703:10834   */\n      tag_226\n      jump\t// in\n    tag_374:\n        /* \"#utility.yul\":10695:10834   */\n      swap1\n      pop\n        /* \"#utility.yul\":10422:10841   */\n      swap2\n      swap1\n      pop\n      jump\t// out\n        /* \"#utility.yul\":10847:11080   */\n    tag_227:\n        /* \"#utility.yul\":10987:11021   */\n      0x566f74696e672074696d6520666f7220746869732050726f706f73616c206861\n        /* \"#utility.yul\":10983:10984   */\n      0x00\n        /* \"#utility.yul\":10975:10981   */\n      dup3\n        /* \"#utility.yul\":10971:10985   */\n      add\n        /* \"#utility.yul\":10964:11022   */\n      mstore\n        /* \"#utility.yul\":11056:11072   */\n      0x736e277420656e64656420796574000000000000000000000000000000000000\n        /* \"#utility.yul\":11051:11053   */\n      0x20\n        /* \"#utility.yul\":11043:11049   */\n      dup3\n        /* \"#utility.yul\":11039:11054   */\n      add\n        /* \"#utility.yul\":11032:11073   */\n      mstore\n        /* \"#utility.yul\":10847:11080   */\n      pop\n      jump\t// out\n        /* \"#utility.yul\":11086:11452   */\n    tag_228:\n        /* \"#utility.yul\":11228:11231   */\n      0x00\n        /* \"#utility.yul\":11249:11316   */\n      tag_377\n        /* \"#utility.yul\":11313:11315   */\n      0x2e\n        /* \"#utility.yul\":11308:11311   */\n      dup4\n        /* \"#utility.yul\":11249:11316   */\n      tag_203\n      jump\t// in\n    tag_377:\n        /* \"#utility.yul\":11242:11316   */\n      swap2\n      pop\n        /* \"#utility.yul\":11325:11418   */\n      tag_378\n        /* \"#utility.yul\":11414:11417   */\n      dup3\n        /* \"#utility.yul\":11325:11418   */\n      tag_227\n      jump\t// in\n    tag_378:\n        /* \"#utility.yul\":11443:11445   */\n      0x40\n        /* \"#utility.yul\":11438:11441   */\n      dup3\n        /* \"#utility.yul\":11434:11446   */\n      add\n        /* \"#utility.yul\":11427:11446   */\n      swap1\n      pop\n        /* \"#utility.yul\":11086:11452   */\n      swap2\n      swap1\n      pop\n      jump\t// out\n        /* \"#utility.yul\":11458:11877   */\n    tag_117:\n        /* \"#utility.yul\":11624:11628   */\n      0x00\n        /* \"#utility.yul\":11662:11664   */\n      0x20\n        /* \"#utility.yul\":11651:11660   */\n      dup3\n        /* \"#utility.yul\":11647:11665   */\n      add\n        /* \"#utility.yul\":11639:11665   */\n      swap1\n      pop\n        /* \"#utility.yul\":11711:11720   */\n      dup2\n        /* \"#utility.yul\":11705:11709   */\n      dup2\n        /* \"#utility.yul\":11701:11721   */\n      sub\n        /* \"#utility.yul\":11697:11698   */\n      0x00\n        /* \"#utility.yul\":11686:11695   */\n      dup4\n        /* \"#utility.yul\":11682:11699   */\n      add\n        /* \"#utility.yul\":11675:11722   */\n      mstore\n        /* \"#utility.yul\":11739:11870   */\n      tag_380\n        /* \"#utility.yul\":11865:11869   */\n      dup2\n        /* \"#utility.yul\":11739:11870   */\n      tag_228\n      jump\t// in\n    tag_380:\n        /* \"#utility.yul\":11731:11870   */\n      swap1\n      pop\n        /* \"#utility.yul\":11458:11877   */\n      swap2\n      swap1\n      pop\n      jump\t// out\n        /* \"#utility.yul\":11883:12108   */\n    tag_229:\n        /* \"#utility.yul\":12023:12057   */\n      0x546869732050726f706f73616c206973206e6f74207468652068696768657374\n        /* \"#utility.yul\":12019:12020   */\n      0x00\n        /* \"#utility.yul\":12011:12017   */\n      dup3\n        /* \"#utility.yul\":12007:12021   */\n      add\n        /* \"#utility.yul\":12000:12058   */\n      mstore\n        /* \"#utility.yul\":12092:12100   */\n      0x20766f7465640000000000000000000000000000000000000000000000000000\n        /* \"#utility.yul\":12087:12089   */\n      0x20\n        /* \"#utility.yul\":12079:12085   */\n      dup3\n        /* \"#utility.yul\":12075:12090   */\n      add\n        /* \"#utility.yul\":12068:12101   */\n      mstore\n        /* \"#utility.yul\":11883:12108   */\n      pop\n      jump\t// out\n        /* \"#utility.yul\":12114:12480   */\n    tag_230:\n        /* \"#utility.yul\":12256:12259   */\n      0x00\n        /* \"#utility.yul\":12277:12344   */\n      tag_383\n        /* \"#utility.yul\":12341:12343   */\n      0x26\n        /* \"#utility.yul\":12336:12339   */\n      dup4\n        /* \"#utility.yul\":12277:12344   */\n      tag_203\n      jump\t// in\n    tag_383:\n        /* \"#utility.yul\":12270:12344   */\n      swap2\n      pop\n        /* \"#utility.yul\":12353:12446   */\n      tag_384\n        /* \"#utility.yul\":12442:12445   */\n      dup3\n        /* \"#utility.yul\":12353:12446   */\n      tag_229\n      jump\t// in\n    tag_384:\n        /* \"#utility.yul\":12471:12473   */\n      0x40\n        /* \"#utility.yul\":12466:12469   */\n      dup3\n        /* \"#utility.yul\":12462:12474   */\n      add\n        /* \"#utility.yul\":12455:12474   */\n      swap1\n      pop\n        /* \"#utility.yul\":12114:12480   */\n      swap2\n      swap1\n      pop\n      jump\t// out\n        /* \"#utility.yul\":12486:12905   */\n    tag_123:\n        /* \"#utility.yul\":12652:12656   */\n      0x00\n        /* \"#utility.yul\":12690:12692   */\n      0x20\n        /* \"#utility.yul\":12679:12688   */\n      dup3\n        /* \"#utility.yul\":12675:12693   */\n      add\n        /* \"#utility.yul\":12667:12693   */\n      swap1\n      pop\n        /* \"#utility.yul\":12739:12748   */\n      dup2\n        /* \"#utility.yul\":12733:12737   */\n      dup2\n        /* \"#utility.yul\":12729:12749   */\n      sub\n        /* \"#utility.yul\":12725:12726   */\n      0x00\n        /* \"#utility.yul\":12714:12723   */\n      dup4\n        /* \"#utility.yul\":12710:12727   */\n      add\n        /* \"#utility.yul\":12703:12750   */\n      mstore\n        /* \"#utility.yul\":12767:12898   */\n      tag_386\n        /* \"#utility.yul\":12893:12897   */\n      dup2\n        /* \"#utility.yul\":12767:12898   */\n      tag_230\n      jump\t// in\n    tag_386:\n        /* \"#utility.yul\":12759:12898   */\n      swap1\n      pop\n        /* \"#utility.yul\":12486:12905   */\n      swap2\n      swap1\n      pop\n      jump\t// out\n        /* \"#utility.yul\":12911:13091   */\n    tag_231:\n        /* \"#utility.yul\":12959:13036   */\n      0x4e487b7100000000000000000000000000000000000000000000000000000000\n        /* \"#utility.yul\":12956:12957   */\n      0x00\n        /* \"#utility.yul\":12949:13037   */\n      mstore\n        /* \"#utility.yul\":13056:13060   */\n      0x11\n        /* \"#utility.yul\":13053:13054   */\n      0x04\n        /* \"#utility.yul\":13046:13061   */\n      mstore\n        /* \"#utility.yul\":13080:13084   */\n      0x24\n        /* \"#utility.yul\":13077:13078   */\n      0x00\n        /* \"#utility.yul\":13070:13085   */\n      revert\n        /* \"#utility.yul\":13097:13330   */\n    tag_125:\n        /* \"#utility.yul\":13136:13139   */\n      0x00\n        /* \"#utility.yul\":13159:13183   */\n      tag_389\n        /* \"#utility.yul\":13177:13182   */\n      dup3\n        /* \"#utility.yul\":13159:13183   */\n      tag_198\n      jump\t// in\n    tag_389:\n        /* \"#utility.yul\":13150:13183   */\n      swap2\n      pop\n        /* \"#utility.yul\":13205:13271   */\n      0xffffffffffffffffffffffffffffffffffffffffffffffffffffffffffffffff\n        /* \"#utility.yul\":13198:13203   */\n      dup3\n        /* \"#utility.yul\":13195:13272   */\n      sub\n        /* \"#utility.yul\":13192:13295   */\n      tag_390\n      jumpi\n        /* \"#utility.yul\":13275:13293   */\n      tag_391\n      tag_231\n      jump\t// in\n    tag_391:\n        /* \"#utility.yul\":13192:13295   */\n    tag_390:\n        /* \"#utility.yul\":13322:13323   */\n      0x01\n        /* \"#utility.yul\":13315:13320   */\n      dup3\n        /* \"#utility.yul\":13311:13324   */\n      add\n        /* \"#utility.yul\":13304:13324   */\n      swap1\n      pop\n        /* \"#utility.yul\":13097:13330   */\n      swap2\n      swap1\n      pop\n      jump\t// out\n        /* \"#utility.yul\":13336:13514   */\n    tag_232:\n        /* \"#utility.yul\":13476:13506   */\n      0x596f7520646f6e2774206861766520656e6f75676820746f6b656e7300000000\n        /* \"#utility.yul\":13472:13473   */\n      0x00\n        /* \"#utility.yul\":13464:13470   */\n      dup3\n        /* \"#utility.yul\":13460:13474   */\n      add\n        /* \"#utility.yul\":13453:13507   */\n      mstore\n        /* \"#utility.yul\":13336:13514   */\n      pop\n      jump\t// out\n        /* \"#utility.yul\":13520:13886   */\n    tag_233:\n        /* \"#utility.yul\":13662:13665   */\n      0x00\n        /* \"#utility.yul\":13683:13750   */\n      tag_394\n        /* \"#utility.yul\":13747:13749   */\n      0x1c\n        /* \"#utility.yul\":13742:13745   */\n      dup4\n        /* \"#utility.yul\":13683:13750   */\n      tag_203\n      jump\t// in\n    tag_394:\n        /* \"#utility.yul\":13676:13750   */\n      swap2\n      pop\n        /* \"#utility.yul\":13759:13852   */\n      tag_395\n        /* \"#utility.yul\":13848:13851   */\n      dup3\n        /* \"#utility.yul\":13759:13852   */\n      tag_232\n      jump\t// in\n    tag_395:\n        /* \"#utility.yul\":13877:13879   */\n      0x20\n        /* \"#utility.yul\":13872:13875   */\n      dup3\n        /* \"#utility.yul\":13868:13880   */\n      add\n        /* \"#utility.yul\":13861:13880   */\n      swap1\n      pop\n        /* \"#utility.yul\":13520:13886   */\n      swap2\n      swap1\n      pop\n      jump\t// out\n        /* \"#utility.yul\":13892:14311   */\n    tag_134:\n        /* \"#utility.yul\":14058:14062   */\n      0x00\n        /* \"#utility.yul\":14096:14098   */\n      0x20\n        /* \"#utility.yul\":14085:14094   */\n      dup3\n        /* \"#utility.yul\":14081:14099   */\n      add\n        /* \"#utility.yul\":14073:14099   */\n      swap1\n      pop\n        /* \"#utility.yul\":14145:14154   */\n      dup2\n        /* \"#utility.yul\":14139:14143   */\n      dup2\n        /* \"#utility.yul\":14135:14155   */\n      sub\n        /* \"#utility.yul\":14131:14132   */\n      0x00\n        /* \"#utility.yul\":14120:14129   */\n      dup4\n        /* \"#utility.yul\":14116:14133   */\n      add\n        /* \"#utility.yul\":14109:14156   */\n      mstore\n        /* \"#utility.yul\":14173:14304   */\n      tag_397\n        /* \"#utility.yul\":14299:14303   */\n      dup2\n        /* \"#utility.yul\":14173:14304   */\n      tag_233\n      jump\t// in\n    tag_397:\n        /* \"#utility.yul\":14165:14304   */\n      swap1\n      pop\n        /* \"#utility.yul\":13892:14311   */\n      swap2\n      swap1\n      pop\n      jump\t// out\n        /* \"#utility.yul\":14317:14511   */\n    tag_136:\n        /* \"#utility.yul\":14357:14361   */\n      0x00\n        /* \"#utility.yul\":14377:14397   */\n      tag_399\n        /* \"#utility.yul\":14395:14396   */\n      dup3\n        /* \"#utility.yul\":14377:14397   */\n      tag_198\n      jump\t// in\n    tag_399:\n        /* \"#utility.yul\":14372:14397   */\n      swap2\n      pop\n        /* \"#utility.yul\":14411:14431   */\n      tag_400\n        /* \"#utility.yul\":14429:14430   */\n      dup4\n        /* \"#utility.yul\":14411:14431   */\n      tag_198\n      jump\t// in\n    tag_400:\n        /* \"#utility.yul\":14406:14431   */\n      swap3\n      pop\n        /* \"#utility.yul\":14455:14456   */\n      dup3\n        /* \"#utility.yul\":14452:14453   */\n      dup3\n        /* \"#utility.yul\":14448:14457   */\n      sub\n        /* \"#utility.yul\":14440:14457   */\n      swap1\n      pop\n        /* \"#utility.yul\":14479:14480   */\n      dup2\n        /* \"#utility.yul\":14473:14477   */\n      dup2\n        /* \"#utility.yul\":14470:14481   */\n      gt\n        /* \"#utility.yul\":14467:14504   */\n      iszero\n      tag_401\n      jumpi\n        /* \"#utility.yul\":14484:14502   */\n      tag_402\n      tag_231\n      jump\t// in\n    tag_402:\n        /* \"#utility.yul\":14467:14504   */\n    tag_401:\n        /* \"#utility.yul\":14317:14511   */\n      swap3\n      swap2\n      pop\n      pop\n      jump\t// out\n        /* \"#utility.yul\":14517:14708   */\n    tag_144:\n        /* \"#utility.yul\":14557:14560   */\n      0x00\n        /* \"#utility.yul\":14576:14596   */\n      tag_404\n        /* \"#utility.yul\":14594:14595   */\n      dup3\n        /* \"#utility.yul\":14576:14596   */\n      tag_198\n      jump\t// in\n    tag_404:\n        /* \"#utility.yul\":14571:14596   */\n      swap2\n      pop\n        /* \"#utility.yul\":14610:14630   */\n      tag_405\n        /* \"#utility.yul\":14628:14629   */\n      dup4\n        /* \"#utility.yul\":14610:14630   */\n      tag_198\n      jump\t// in\n    tag_405:\n        /* \"#utility.yul\":14605:14630   */\n      swap3\n      pop\n        /* \"#utility.yul\":14653:14654   */\n      dup3\n        /* \"#utility.yul\":14650:14651   */\n      dup3\n        /* \"#utility.yul\":14646:14655   */\n      add\n        /* \"#utility.yul\":14639:14655   */\n      swap1\n      pop\n        /* \"#utility.yul\":14674:14677   */\n      dup1\n        /* \"#utility.yul\":14671:14672   */\n      dup3\n        /* \"#utility.yul\":14668:14678   */\n      gt\n        /* \"#utility.yul\":14665:14701   */\n      iszero\n      tag_406\n      jumpi\n        /* \"#utility.yul\":14681:14699   */\n      tag_407\n      tag_231\n      jump\t// in\n    tag_407:\n        /* \"#utility.yul\":14665:14701   */\n    tag_406:\n        /* \"#utility.yul\":14517:14708   */\n      swap3\n      swap2\n      pop\n      pop\n      jump\t// out\n        /* \"#utility.yul\":14714:14887   */\n    tag_234:\n        /* \"#utility.yul\":14854:14879   */\n      0x436f6e747269627574696f6e2054696d6520456e646564000000000000000000\n        /* \"#utility.yul\":14850:14851   */\n      0x00\n        /* \"#utility.yul\":14842:14848   */\n      dup3\n        /* \"#utility.yul\":14838:14852   */\n      add\n        /* \"#utility.yul\":14831:14880   */\n      mstore\n        /* \"#utility.yul\":14714:14887   */\n      pop\n      jump\t// out\n        /* \"#utility.yul\":14893:15259   */\n    tag_235:\n        /* \"#utility.yul\":15035:15038   */\n      0x00\n        /* \"#utility.yul\":15056:15123   */\n      tag_410\n        /* \"#utility.yul\":15120:15122   */\n      0x17\n        /* \"#utility.yul\":15115:15118   */\n      dup4\n        /* \"#utility.yul\":15056:15123   */\n      tag_203\n      jump\t// in\n    tag_410:\n        /* \"#utility.yul\":15049:15123   */\n      swap2\n      pop\n        /* \"#utility.yul\":15132:15225   */\n      tag_411\n        /* \"#utility.yul\":15221:15224   */\n      dup3\n        /* \"#utility.yul\":15132:15225   */\n      tag_234\n      jump\t// in\n    tag_411:\n        /* \"#utility.yul\":15250:15252   */\n      0x20\n        /* \"#utility.yul\":15245:15248   */\n      dup3\n        /* \"#utility.yul\":15241:15253   */\n      add\n        /* \"#utility.yul\":15234:15253   */\n      swap1\n      pop\n        /* \"#utility.yul\":14893:15259   */\n      swap2\n      swap1\n      pop\n      jump\t// out\n        /* \"#utility.yul\":15265:15684   */\n    tag_148:\n        /* \"#utility.yul\":15431:15435   */\n      0x00\n        /* \"#utility.yul\":15469:15471   */\n      0x20\n        /* \"#utility.yul\":15458:15467   */\n      dup3\n        /* \"#utility.yul\":15454:15472   */\n      add\n        /* \"#utility.yul\":15446:15472   */\n      swap1\n      pop\n        /* \"#utility.yul\":15518:15527   */\n      dup2\n        /* \"#utility.yul\":15512:15516   */\n      dup2\n        /* \"#utility.yul\":15508:15528   */\n      sub\n        /* \"#utility.yul\":15504:15505   */\n      0x00\n        /* \"#utility.yul\":15493:15502   */\n      dup4\n        /* \"#utility.yul\":15489:15506   */\n      add\n        /* \"#utility.yul\":15482:15529   */\n      mstore\n        /* \"#utility.yul\":15546:15677   */\n      tag_413\n        /* \"#utility.yul\":15672:15676   */\n      dup2\n        /* \"#utility.yul\":15546:15677   */\n      tag_235\n      jump\t// in\n    tag_413:\n        /* \"#utility.yul\":15538:15677   */\n      swap1\n      pop\n        /* \"#utility.yul\":15265:15684   */\n      swap2\n      swap1\n      pop\n      jump\t// out\n        /* \"#utility.yul\":15690:15863   */\n    tag_236:\n        /* \"#utility.yul\":15830:15855   */\n      0x53656e64206d6f7265207468616e203020657468657273000000000000000000\n        /* \"#utility.yul\":15826:15827   */\n      0x00\n        /* \"#utility.yul\":15818:15824   */\n      dup3\n        /* \"#utility.yul\":15814:15828   */\n      add\n        /* \"#utility.yul\":15807:15856   */\n      mstore\n        /* \"#utility.yul\":15690:15863   */\n      pop\n      jump\t// out\n        /* \"#utility.yul\":15869:16235   */\n    tag_237:\n        /* \"#utility.yul\":16011:16014   */\n      0x00\n        /* \"#utility.yul\":16032:16099   */\n      tag_416\n        /* \"#utility.yul\":16096:16098   */\n      0x17\n        /* \"#utility.yul\":16091:16094   */\n      dup4\n        /* \"#utility.yul\":16032:16099   */\n      tag_203\n      jump\t// in\n    tag_416:\n        /* \"#utility.yul\":16025:16099   */\n      swap2\n      pop\n        /* \"#utility.yul\":16108:16201   */\n      tag_417\n        /* \"#utility.yul\":16197:16200   */\n      dup3\n        /* \"#utility.yul\":16108:16201   */\n      tag_236\n      jump\t// in\n    tag_417:\n        /* \"#utility.yul\":16226:16228   */\n      0x20\n        /* \"#utility.yul\":16221:16224   */\n      dup3\n        /* \"#utility.yul\":16217:16229   */\n      add\n        /* \"#utility.yul\":16210:16229   */\n      swap1\n      pop\n        /* \"#utility.yul\":15869:16235   */\n      swap2\n      swap1\n      pop\n      jump\t// out\n        /* \"#utility.yul\":16241:16660   */\n    tag_151:\n        /* \"#utility.yul\":16407:16411   */\n      0x00\n        /* \"#utility.yul\":16445:16447   */\n      0x20\n        /* \"#utility.yul\":16434:16443   */\n      dup3\n        /* \"#utility.yul\":16430:16448   */\n      add\n        /* \"#utility.yul\":16422:16448   */\n      swap1\n      pop\n        /* \"#utility.yul\":16494:16503   */\n      dup2\n        /* \"#utility.yul\":16488:16492   */\n      dup2\n        /* \"#utility.yul\":16484:16504   */\n      sub\n        /* \"#utility.yul\":16480:16481   */\n      0x00\n        /* \"#utility.yul\":16469:16478   */\n      dup4\n        /* \"#utility.yul\":16465:16482   */\n      add\n        /* \"#utility.yul\":16458:16505   */\n      mstore\n        /* \"#utility.yul\":16522:16653   */\n      tag_419\n        /* \"#utility.yul\":16648:16652   */\n      dup2\n        /* \"#utility.yul\":16522:16653   */\n      tag_237\n      jump\t// in\n    tag_419:\n        /* \"#utility.yul\":16514:16653   */\n      swap1\n      pop\n        /* \"#utility.yul\":16241:16660   */\n      swap2\n      swap1\n      pop\n      jump\t// out\n        /* \"#utility.yul\":16666:16894   */\n    tag_238:\n        /* \"#utility.yul\":16806:16840   */\n      0x4e6f742073756666696369656e742066756e647320746f206d6174636820796f\n        /* \"#utility.yul\":16802:16803   */\n      0x00\n        /* \"#utility.yul\":16794:16800   */\n      dup3\n        /* \"#utility.yul\":16790:16804   */\n      add\n        /* \"#utility.yul\":16783:16841   */\n      mstore\n        /* \"#utility.yul\":16875:16886   */\n      0x757220616d6f756e740000000000000000000000000000000000000000000000\n        /* \"#utility.yul\":16870:16872   */\n      0x20\n        /* \"#utility.yul\":16862:16868   */\n      dup3\n        /* \"#utility.yul\":16858:16873   */\n      add\n        /* \"#utility.yul\":16851:16887   */\n      mstore\n        /* \"#utility.yul\":16666:16894   */\n      pop\n      jump\t// out\n        /* \"#utility.yul\":16900:17266   */\n    tag_239:\n        /* \"#utility.yul\":17042:17045   */\n      0x00\n        /* \"#utility.yul\":17063:17130   */\n      tag_422\n        /* \"#utility.yul\":17127:17129   */\n      0x29\n        /* \"#utility.yul\":17122:17125   */\n      dup4\n        /* \"#utility.yul\":17063:17130   */\n      tag_203\n      jump\t// in\n    tag_422:\n        /* \"#utility.yul\":17056:17130   */\n      swap2\n      pop\n        /* \"#utility.yul\":17139:17232   */\n      tag_423\n        /* \"#utility.yul\":17228:17231   */\n      dup3\n        /* \"#utility.yul\":17139:17232   */\n      tag_238\n      jump\t// in\n    tag_423:\n        /* \"#utility.yul\":17257:17259   */\n      0x40\n        /* \"#utility.yul\":17252:17255   */\n      dup3\n        /* \"#utility.yul\":17248:17260   */\n      add\n        /* \"#utility.yul\":17241:17260   */\n      swap1\n      pop\n        /* \"#utility.yul\":16900:17266   */\n      swap2\n      swap1\n      pop\n      jump\t// out\n        /* \"#utility.yul\":17272:17691   */\n    tag_161:\n        /* \"#utility.yul\":17438:17442   */\n      0x00\n        /* \"#utility.yul\":17476:17478   */\n      0x20\n        /* \"#utility.yul\":17465:17474   */\n      dup3\n        /* \"#utility.yul\":17461:17479   */\n      add\n        /* \"#utility.yul\":17453:17479   */\n      swap1\n      pop\n        /* \"#utility.yul\":17525:17534   */\n      dup2\n        /* \"#utility.yul\":17519:17523   */\n      dup2\n        /* \"#utility.yul\":17515:17535   */\n      sub\n        /* \"#utility.yul\":17511:17512   */\n      0x00\n        /* \"#utility.yul\":17500:17509   */\n      dup4\n        /* \"#utility.yul\":17496:17513   */\n      add\n        /* \"#utility.yul\":17489:17536   */\n      mstore\n        /* \"#utility.yul\":17553:17684   */\n      tag_425\n        /* \"#utility.yul\":17679:17683   */\n      dup2\n        /* \"#utility.yul\":17553:17684   */\n      tag_239\n      jump\t// in\n    tag_425:\n        /* \"#utility.yul\":17545:17684   */\n      swap1\n      pop\n        /* \"#utility.yul\":17272:17691   */\n      swap2\n      swap1\n      pop\n      jump\t// out\n        /* \"#utility.yul\":17697:17877   */\n    tag_240:\n        /* \"#utility.yul\":17745:17822   */\n      0x4e487b7100000000000000000000000000000000000000000000000000000000\n        /* \"#utility.yul\":17742:17743   */\n      0x00\n        /* \"#utility.yul\":17735:17823   */\n      mstore\n        /* \"#utility.yul\":17842:17846   */\n      0x41\n        /* \"#utility.yul\":17839:17840   */\n      0x04\n        /* \"#utility.yul\":17832:17847   */\n      mstore\n        /* \"#utility.yul\":17866:17870   */\n      0x24\n        /* \"#utility.yul\":17863:17864   */\n      0x00\n        /* \"#utility.yul\":17856:17871   */\n      revert\n        /* \"#utility.yul\":17883:18024   */\n    tag_241:\n        /* \"#utility.yul\":17932:17936   */\n      0x00\n        /* \"#utility.yul\":17955:17958   */\n      dup2\n        /* \"#utility.yul\":17947:17958   */\n      swap1\n      pop\n        /* \"#utility.yul\":17978:17981   */\n      dup2\n        /* \"#utility.yul\":17975:17976   */\n      0x00\n        /* \"#utility.yul\":17968:17982   */\n      mstore\n        /* \"#utility.yul\":18012:18016   */\n      0x20\n        /* \"#utility.yul\":18009:18010   */\n      0x00\n        /* \"#utility.yul\":17999:18017   */\n      keccak256\n        /* \"#utility.yul\":17991:18017   */\n      swap1\n      pop\n        /* \"#utility.yul\":17883:18024   */\n      swap2\n      swap1\n      pop\n      jump\t// out\n        /* \"#utility.yul\":18030:18123   */\n    tag_242:\n        /* \"#utility.yul\":18067:18073   */\n      0x00\n        /* \"#utility.yul\":18114:18116   */\n      0x20\n        /* \"#utility.yul\":18109:18111   */\n      0x1f\n        /* \"#utility.yul\":18102:18107   */\n      dup4\n        /* \"#utility.yul\":18098:18112   */\n      add\n        /* \"#utility.yul\":18094:18117   */\n      div\n        /* \"#utility.yul\":18084:18117   */\n      swap1\n      pop\n        /* \"#utility.yul\":18030:18123   */\n      swap2\n      swap1\n      pop\n      jump\t// out\n        /* \"#utility.yul\":18129:18236   */\n    tag_243:\n        /* \"#utility.yul\":18173:18181   */\n      0x00\n        /* \"#utility.yul\":18223:18228   */\n      dup3\n        /* \"#utility.yul\":18217:18221   */\n      dup3\n        /* \"#utility.yul\":18213:18229   */\n      shl\n        /* \"#utility.yul\":18192:18229   */\n      swap1\n      pop\n        /* \"#utility.yul\":18129:18236   */\n      swap3\n      swap2\n      pop\n      pop\n      jump\t// out\n        /* \"#utility.yul\":18242:18635   */\n    tag_244:\n        /* \"#utility.yul\":18311:18317   */\n      0x00\n        /* \"#utility.yul\":18361:18362   */\n      0x08\n        /* \"#utility.yul\":18349:18359   */\n      dup4\n        /* \"#utility.yul\":18345:18363   */\n      mul\n        /* \"#utility.yul\":18384:18481   */\n      tag_431\n        /* \"#utility.yul\":18414:18480   */\n      0xffffffffffffffffffffffffffffffffffffffffffffffffffffffffffffffff\n        /* \"#utility.yul\":18403:18412   */\n      dup3\n        /* \"#utility.yul\":18384:18481   */\n      tag_243\n      jump\t// in\n    tag_431:\n        /* \"#utility.yul\":18502:18541   */\n      tag_432\n        /* \"#utility.yul\":18532:18540   */\n      dup7\n        /* \"#utility.yul\":18521:18530   */\n      dup4\n        /* \"#utility.yul\":18502:18541   */\n      tag_243\n      jump\t// in\n    tag_432:\n        /* \"#utility.yul\":18490:18541   */\n      swap6\n      pop\n        /* \"#utility.yul\":18574:18578   */\n      dup1\n        /* \"#utility.yul\":18570:18579   */\n      not\n        /* \"#utility.yul\":18563:18568   */\n      dup5\n        /* \"#utility.yul\":18559:18580   */\n      and\n        /* \"#utility.yul\":18550:18580   */\n      swap4\n      pop\n        /* \"#utility.yul\":18623:18627   */\n      dup1\n        /* \"#utility.yul\":18613:18621   */\n      dup7\n        /* \"#utility.yul\":18609:18628   */\n      and\n        /* \"#utility.yul\":18602:18607   */\n      dup5\n        /* \"#utility.yul\":18599:18629   */\n      or\n        /* \"#utility.yul\":18589:18629   */\n      swap3\n      pop\n        /* \"#utility.yul\":18318:18635   */\n      pop\n      pop\n        /* \"#utility.yul\":18242:18635   */\n      swap4\n      swap3\n      pop\n      pop\n      pop\n      jump\t// out\n        /* \"#utility.yul\":18641:18701   */\n    tag_245:\n        /* \"#utility.yul\":18669:18672   */\n      0x00\n        /* \"#utility.yul\":18690:18695   */\n      dup2\n        /* \"#utility.yul\":18683:18695   */\n      swap1\n      pop\n        /* \"#utility.yul\":18641:18701   */\n      swap2\n      swap1\n      pop\n      jump\t// out\n        /* \"#utility.yul\":18707:18849   */\n    tag_246:\n        /* \"#utility.yul\":18757:18766   */\n      0x00\n        /* \"#utility.yul\":18790:18843   */\n      tag_435\n        /* \"#utility.yul\":18808:18842   */\n      tag_436\n        /* \"#utility.yul\":18817:18841   */\n      tag_437\n        /* \"#utility.yul\":18835:18840   */\n      dup5\n        /* \"#utility.yul\":18817:18841   */\n      tag_198\n      jump\t// in\n    tag_437:\n        /* \"#utility.yul\":18808:18842   */\n      tag_245\n      jump\t// in\n    tag_436:\n        /* \"#utility.yul\":18790:18843   */\n      tag_198\n      jump\t// in\n    tag_435:\n        /* \"#utility.yul\":18777:18843   */\n      swap1\n      pop\n        /* \"#utility.yul\":18707:18849   */\n      swap2\n      swap1\n      pop\n      jump\t// out\n        /* \"#utility.yul\":18855:18930   */\n    tag_247:\n        /* \"#utility.yul\":18898:18901   */\n      0x00\n        /* \"#utility.yul\":18919:18924   */\n      dup2\n        /* \"#utility.yul\":18912:18924   */\n      swap1\n      pop\n        /* \"#utility.yul\":18855:18930   */\n      swap2\n      swap1\n      pop\n      jump\t// out\n        /* \"#utility.yul\":18936:19205   */\n    tag_248:\n        /* \"#utility.yul\":19046:19085   */\n      tag_440\n        /* \"#utility.yul\":19077:19084   */\n      dup4\n        /* \"#utility.yul\":19046:19085   */\n      tag_246\n      jump\t// in\n    tag_440:\n        /* \"#utility.yul\":19107:19198   */\n      tag_441\n        /* \"#utility.yul\":19156:19197   */\n      tag_442\n        /* \"#utility.yul\":19180:19196   */\n      dup3\n        /* \"#utility.yul\":19156:19197   */\n      tag_247\n      jump\t// in\n    tag_442:\n        /* \"#utility.yul\":19148:19154   */\n      dup5\n        /* \"#utility.yul\":19141:19145   */\n      dup5\n        /* \"#utility.yul\":19135:19146   */\n      sload\n        /* \"#utility.yul\":19107:19198   */\n      tag_244\n      jump\t// in\n    tag_441:\n        /* \"#utility.yul\":19101:19105   */\n      dup3\n        /* \"#utility.yul\":19094:19199   */\n      sstore\n        /* \"#utility.yul\":19012:19205   */\n      pop\n        /* \"#utility.yul\":18936:19205   */\n      pop\n      pop\n      pop\n      jump\t// out\n        /* \"#utility.yul\":19211:19284   */\n    tag_249:\n        /* \"#utility.yul\":19256:19259   */\n      0x00\n        /* \"#utility.yul\":19211:19284   */\n      swap1\n      jump\t// out\n        /* \"#utility.yul\":19290:19479   */\n    tag_250:\n        /* \"#utility.yul\":19367:19399   */\n      tag_445\n      tag_249\n      jump\t// in\n    tag_445:\n        /* \"#utility.yul\":19408:19473   */\n      tag_446\n        /* \"#utility.yul\":19466:19472   */\n      dup2\n        /* \"#utility.yul\":19458:19464   */\n      dup5\n        /* \"#utility.yul\":19452:19456   */\n      dup5\n        /* \"#utility.yul\":19408:19473   */\n      tag_248\n      jump\t// in\n    tag_446:\n        /* \"#utility.yul\":19343:19479   */\n      pop\n        /* \"#utility.yul\":19290:19479   */\n      pop\n      pop\n      jump\t// out\n        /* \"#utility.yul\":19485:19671   */\n    tag_251:\n        /* \"#utility.yul\":19545:19665   */\n    tag_448:\n        /* \"#utility.yul\":19562:19565   */\n      dup2\n        /* \"#utility.yul\":19555:19560   */\n      dup2\n        /* \"#utility.yul\":19552:19566   */\n      lt\n        /* \"#utility.yul\":19545:19665   */\n      iszero\n      tag_450\n      jumpi\n        /* \"#utility.yul\":19616:19655   */\n      tag_451\n        /* \"#utility.yul\":19653:19654   */\n      0x00\n        /* \"#utility.yul\":19646:19651   */\n      dup3\n        /* \"#utility.yul\":19616:19655   */\n      tag_250\n      jump\t// in\n    tag_451:\n        /* \"#utility.yul\":19589:19590   */\n      0x01\n        /* \"#utility.yul\":19582:19587   */\n      dup2\n        /* \"#utility.yul\":19578:19591   */\n      add\n        /* \"#utility.yul\":19569:19591   */\n      swap1\n      pop\n        /* \"#utility.yul\":19545:19665   */\n      jump(tag_448)\n    tag_450:\n        /* \"#utility.yul\":19485:19671   */\n      pop\n      pop\n      jump\t// out\n        /* \"#utility.yul\":19677:20220   */\n    tag_252:\n        /* \"#utility.yul\":19778:19780   */\n      0x1f\n        /* \"#utility.yul\":19773:19776   */\n      dup3\n        /* \"#utility.yul\":19770:19781   */\n      gt\n        /* \"#utility.yul\":19767:20213   */\n      iszero\n      tag_453\n      jumpi\n        /* \"#utility.yul\":19812:19850   */\n      tag_454\n        /* \"#utility.yul\":19844:19849   */\n      dup2\n        /* \"#utility.yul\":19812:19850   */\n      tag_241\n      jump\t// in\n    tag_454:\n        /* \"#utility.yul\":19896:19925   */\n      tag_455\n        /* \"#utility.yul\":19914:19924   */\n      dup5\n        /* \"#utility.yul\":19896:19925   */\n      tag_242\n      jump\t// in\n    tag_455:\n        /* \"#utility.yul\":19886:19894   */\n      dup2\n        /* \"#utility.yul\":19882:19926   */\n      add\n        /* \"#utility.yul\":20079:20081   */\n      0x20\n        /* \"#utility.yul\":20067:20077   */\n      dup6\n        /* \"#utility.yul\":20064:20082   */\n      lt\n        /* \"#utility.yul\":20061:20110   */\n      iszero\n      tag_456\n      jumpi\n        /* \"#utility.yul\":20100:20108   */\n      dup2\n        /* \"#utility.yul\":20085:20108   */\n      swap1\n      pop\n        /* \"#utility.yul\":20061:20110   */\n    tag_456:\n        /* \"#utility.yul\":20123:20203   */\n      tag_457\n        /* \"#utility.yul\":20179:20201   */\n      tag_458\n        /* \"#utility.yul\":20197:20200   */\n      dup6\n        /* \"#utility.yul\":20179:20201   */\n      tag_242\n      jump\t// in\n    tag_458:\n        /* \"#utility.yul\":20169:20177   */\n      dup4\n        /* \"#utility.yul\":20165:20202   */\n      add\n        /* \"#utility.yul\":20152:20163   */\n      dup3\n        /* \"#utility.yul\":20123:20203   */\n      tag_251\n      jump\t// in\n    tag_457:\n        /* \"#utility.yul\":19782:20213   */\n      pop\n      pop\n        /* \"#utility.yul\":19767:20213   */\n    tag_453:\n        /* \"#utility.yul\":19677:20220   */\n      pop\n      pop\n      pop\n      jump\t// out\n        /* \"#utility.yul\":20226:20343   */\n    tag_253:\n        /* \"#utility.yul\":20280:20288   */\n      0x00\n        /* \"#utility.yul\":20330:20335   */\n      dup3\n        /* \"#utility.yul\":20324:20328   */\n      dup3\n        /* \"#utility.yul\":20320:20336   */\n      shr\n        /* \"#utility.yul\":20299:20336   */\n      swap1\n      pop\n        /* \"#utility.yul\":20226:20343   */\n      swap3\n      swap2\n      pop\n      pop\n      jump\t// out\n        /* \"#utility.yul\":20349:20518   */\n    tag_254:\n        /* \"#utility.yul\":20393:20399   */\n      0x00\n        /* \"#utility.yul\":20426:20477   */\n      tag_461\n        /* \"#utility.yul\":20474:20475   */\n      0x00\n        /* \"#utility.yul\":20470:20476   */\n      not\n        /* \"#utility.yul\":20462:20467   */\n      dup5\n        /* \"#utility.yul\":20459:20460   */\n      0x08\n        /* \"#utility.yul\":20455:20468   */\n      mul\n        /* \"#utility.yul\":20426:20477   */\n      tag_253\n      jump\t// in\n    tag_461:\n        /* \"#utility.yul\":20422:20478   */\n      not\n        /* \"#utility.yul\":20507:20511   */\n      dup1\n        /* \"#utility.yul\":20501:20505   */\n      dup4\n        /* \"#utility.yul\":20497:20512   */\n      and\n        /* \"#utility.yul\":20487:20512   */\n      swap2\n      pop\n        /* \"#utility.yul\":20400:20518   */\n      pop\n        /* \"#utility.yul\":20349:20518   */\n      swap3\n      swap2\n      pop\n      pop\n      jump\t// out\n        /* \"#utility.yul\":20523:20818   */\n    tag_255:\n        /* \"#utility.yul\":20599:20603   */\n      0x00\n        /* \"#utility.yul\":20745:20774   */\n      tag_463\n        /* \"#utility.yul\":20770:20773   */\n      dup4\n        /* \"#utility.yul\":20764:20768   */\n      dup4\n        /* \"#utility.yul\":20745:20774   */\n      tag_254\n      jump\t// in\n    tag_463:\n        /* \"#utility.yul\":20737:20774   */\n      swap2\n      pop\n        /* \"#utility.yul\":20807:20810   */\n      dup3\n        /* \"#utility.yul\":20804:20805   */\n      0x02\n        /* \"#utility.yul\":20800:20811   */\n      mul\n        /* \"#utility.yul\":20794:20798   */\n      dup3\n        /* \"#utility.yul\":20791:20812   */\n      or\n        /* \"#utility.yul\":20783:20812   */\n      swap1\n      pop\n        /* \"#utility.yul\":20523:20818   */\n      swap3\n      swap2\n      pop\n      pop\n      jump\t// out\n        /* \"#utility.yul\":20823:22218   */\n    tag_164:\n        /* \"#utility.yul\":20940:20977   */\n      tag_465\n        /* \"#utility.yul\":20973:20976   */\n      dup3\n        /* \"#utility.yul\":20940:20977   */\n      tag_202\n      jump\t// in\n    tag_465:\n        /* \"#utility.yul\":21042:21060   */\n      0xffffffffffffffff\n        /* \"#utility.yul\":21034:21040   */\n      dup2\n        /* \"#utility.yul\":21031:21061   */\n      gt\n        /* \"#utility.yul\":21028:21084   */\n      iszero\n      tag_466\n      jumpi\n        /* \"#utility.yul\":21064:21082   */\n      tag_467\n      tag_240\n      jump\t// in\n    tag_467:\n        /* \"#utility.yul\":21028:21084   */\n    tag_466:\n        /* \"#utility.yul\":21108:21146   */\n      tag_468\n        /* \"#utility.yul\":21140:21144   */\n      dup3\n        /* \"#utility.yul\":21134:21145   */\n      sload\n        /* \"#utility.yul\":21108:21146   */\n      tag_102\n      jump\t// in\n    tag_468:\n        /* \"#utility.yul\":21193:21260   */\n      tag_469\n        /* \"#utility.yul\":21253:21259   */\n      dup3\n        /* \"#utility.yul\":21245:21251   */\n      dup3\n        /* \"#utility.yul\":21239:21243   */\n      dup6\n        /* \"#utility.yul\":21193:21260   */\n      tag_252\n      jump\t// in\n    tag_469:\n        /* \"#utility.yul\":21287:21288   */\n      0x00\n        /* \"#utility.yul\":21311:21315   */\n      0x20\n        /* \"#utility.yul\":21298:21315   */\n      swap1\n      pop\n        /* \"#utility.yul\":21343:21345   */\n      0x1f\n        /* \"#utility.yul\":21335:21341   */\n      dup4\n        /* \"#utility.yul\":21332:21346   */\n      gt\n        /* \"#utility.yul\":21360:21361   */\n      0x01\n        /* \"#utility.yul\":21355:21973   */\n      dup2\n      eq\n      tag_471\n      jumpi\n        /* \"#utility.yul\":22017:22018   */\n      0x00\n        /* \"#utility.yul\":22034:22040   */\n      dup5\n        /* \"#utility.yul\":22031:22108   */\n      iszero\n      tag_472\n      jumpi\n        /* \"#utility.yul\":22083:22092   */\n      dup3\n        /* \"#utility.yul\":22078:22081   */\n      dup8\n        /* \"#utility.yul\":22074:22093   */\n      add\n        /* \"#utility.yul\":22068:22094   */\n      mload\n        /* \"#utility.yul\":22059:22094   */\n      swap1\n      pop\n        /* \"#utility.yul\":22031:22108   */\n    tag_472:\n        /* \"#utility.yul\":22134:22201   */\n      tag_473\n        /* \"#utility.yul\":22194:22200   */\n      dup6\n        /* \"#utility.yul\":22187:22192   */\n      dup3\n        /* \"#utility.yul\":22134:22201   */\n      tag_255\n      jump\t// in\n    tag_473:\n        /* \"#utility.yul\":22128:22132   */\n      dup7\n        /* \"#utility.yul\":22121:22202   */\n      sstore\n        /* \"#utility.yul\":21990:22212   */\n      pop\n        /* \"#utility.yul\":21325:22212   */\n      jump(tag_470)\n        /* \"#utility.yul\":21355:21973   */\n    tag_471:\n        /* \"#utility.yul\":21407:21411   */\n      0x1f\n        /* \"#utility.yul\":21403:21412   */\n      not\n        /* \"#utility.yul\":21395:21401   */\n      dup5\n        /* \"#utility.yul\":21391:21413   */\n      and\n        /* \"#utility.yul\":21441:21478   */\n      tag_474\n        /* \"#utility.yul\":21473:21477   */\n      dup7\n        /* \"#utility.yul\":21441:21478   */\n      tag_241\n      jump\t// in\n    tag_474:\n        /* \"#utility.yul\":21500:21501   */\n      0x00\n        /* \"#utility.yul\":21514:21722   */\n    tag_475:\n        /* \"#utility.yul\":21528:21535   */\n      dup3\n        /* \"#utility.yul\":21525:21526   */\n      dup2\n        /* \"#utility.yul\":21522:21536   */\n      lt\n        /* \"#utility.yul\":21514:21722   */\n      iszero\n      tag_477\n      jumpi\n        /* \"#utility.yul\":21607:21616   */\n      dup5\n        /* \"#utility.yul\":21602:21605   */\n      dup10\n        /* \"#utility.yul\":21598:21617   */\n      add\n        /* \"#utility.yul\":21592:21618   */\n      mload\n        /* \"#utility.yul\":21584:21590   */\n      dup3\n        /* \"#utility.yul\":21577:21619   */\n      sstore\n        /* \"#utility.yul\":21658:21659   */\n      0x01\n        /* \"#utility.yul\":21650:21656   */\n      dup3\n        /* \"#utility.yul\":21646:21660   */\n      add\n        /* \"#utility.yul\":21636:21660   */\n      swap2\n      pop\n        /* \"#utility.yul\":21705:21707   */\n      0x20\n        /* \"#utility.yul\":21694:21703   */\n      dup6\n        /* \"#utility.yul\":21690:21708   */\n      add\n        /* \"#utility.yul\":21677:21708   */\n      swap5\n      pop\n        /* \"#utility.yul\":21551:21555   */\n      0x20\n        /* \"#utility.yul\":21548:21549   */\n      dup2\n        /* \"#utility.yul\":21544:21556   */\n      add\n        /* \"#utility.yul\":21539:21556   */\n      swap1\n      pop\n        /* \"#utility.yul\":21514:21722   */\n      jump(tag_475)\n    tag_477:\n        /* \"#utility.yul\":21750:21756   */\n      dup7\n        /* \"#utility.yul\":21741:21748   */\n      dup4\n        /* \"#utility.yul\":21738:21757   */\n      lt\n        /* \"#utility.yul\":21735:21914   */\n      iszero\n      tag_478\n      jumpi\n        /* \"#utility.yul\":21808:21817   */\n      dup5\n        /* \"#utility.yul\":21803:21806   */\n      dup10\n        /* \"#utility.yul\":21799:21818   */\n      add\n        /* \"#utility.yul\":21793:21819   */\n      mload\n        /* \"#utility.yul\":21851:21899   */\n      tag_479\n        /* \"#utility.yul\":21893:21897   */\n      0x1f\n        /* \"#utility.yul\":21885:21891   */\n      dup10\n        /* \"#utility.yul\":21881:21898   */\n      and\n        /* \"#utility.yul\":21870:21879   */\n      dup3\n        /* \"#utility.yul\":21851:21899   */\n      tag_254\n      jump\t// in\n    tag_479:\n        /* \"#utility.yul\":21843:21849   */\n      dup4\n        /* \"#utility.yul\":21836:21900   */\n      sstore\n        /* \"#utility.yul\":21758:21914   */\n      pop\n        /* \"#utility.yul\":21735:21914   */\n    tag_478:\n        /* \"#utility.yul\":21960:21961   */\n      0x01\n        /* \"#utility.yul\":21956:21957   */\n      0x02\n        /* \"#utility.yul\":21948:21954   */\n      dup9\n        /* \"#utility.yul\":21944:21958   */\n      mul\n        /* \"#utility.yul\":21940:21962   */\n      add\n        /* \"#utility.yul\":21934:21938   */\n      dup9\n        /* \"#utility.yul\":21927:21963   */\n      sstore\n        /* \"#utility.yul\":21362:21973   */\n      pop\n      pop\n      pop\n        /* \"#utility.yul\":21325:22212   */\n    tag_470:\n      pop\n        /* \"#utility.yul\":20915:22218   */\n      pop\n      pop\n      pop\n        /* \"#utility.yul\":20823:22218   */\n      pop\n      pop\n      jump\t// out\n        /* \"#utility.yul\":22224:22451   */\n    tag_256:\n        /* \"#utility.yul\":22364:22398   */\n      0x566f74696e6720686173206265656e20636c6f73656420666f72207468697320\n        /* \"#utility.yul\":22360:22361   */\n      0x00\n        /* \"#utility.yul\":22352:22358   */\n      dup3\n        /* \"#utility.yul\":22348:22362   */\n      add\n        /* \"#utility.yul\":22341:22399   */\n      mstore\n        /* \"#utility.yul\":22433:22443   */\n      0x50726f706f73616c000000000000000000000000000000000000000000000000\n        /* \"#utility.yul\":22428:22430   */\n      0x20\n        /* \"#utility.yul\":22420:22426   */\n      dup3\n        /* \"#utility.yul\":22416:22431   */\n      add\n        /* \"#utility.yul\":22409:22444   */\n      mstore\n        /* \"#utility.yul\":22224:22451   */\n      pop\n      jump\t// out\n        /* \"#utility.yul\":22457:22823   */\n    tag_257:\n        /* \"#utility.yul\":22599:22602   */\n      0x00\n        /* \"#utility.yul\":22620:22687   */\n      tag_482\n        /* \"#utility.yul\":22684:22686   */\n      0x28\n        /* \"#utility.yul\":22679:22682   */\n      dup4\n        /* \"#utility.yul\":22620:22687   */\n      tag_203\n      jump\t// in\n    tag_482:\n        /* \"#utility.yul\":22613:22687   */\n      swap2\n      pop\n        /* \"#utility.yul\":22696:22789   */\n      tag_483\n        /* \"#utility.yul\":22785:22788   */\n      dup3\n        /* \"#utility.yul\":22696:22789   */\n      tag_256\n      jump\t// in\n    tag_483:\n        /* \"#utility.yul\":22814:22816   */\n      0x40\n        /* \"#utility.yul\":22809:22812   */\n      dup3\n        /* \"#utility.yul\":22805:22817   */\n      add\n        /* \"#utility.yul\":22798:22817   */\n      swap1\n      pop\n        /* \"#utility.yul\":22457:22823   */\n      swap2\n      swap1\n      pop\n      jump\t// out\n        /* \"#utility.yul\":22829:23248   */\n    tag_172:\n        /* \"#utility.yul\":22995:22999   */\n      0x00\n        /* \"#utility.yul\":23033:23035   */\n      0x20\n        /* \"#utility.yul\":23022:23031   */\n      dup3\n        /* \"#utility.yul\":23018:23036   */\n      add\n        /* \"#utility.yul\":23010:23036   */\n      swap1\n      pop\n        /* \"#utility.yul\":23082:23091   */\n      dup2\n        /* \"#utility.yul\":23076:23080   */\n      dup2\n        /* \"#utility.yul\":23072:23092   */\n      sub\n        /* \"#utility.yul\":23068:23069   */\n      0x00\n        /* \"#utility.yul\":23057:23066   */\n      dup4\n        /* \"#utility.yul\":23053:23070   */\n      add\n        /* \"#utility.yul\":23046:23093   */\n      mstore\n        /* \"#utility.yul\":23110:23241   */\n      tag_485\n        /* \"#utility.yul\":23236:23240   */\n      dup2\n        /* \"#utility.yul\":23110:23241   */\n      tag_257\n      jump\t// in\n    tag_485:\n        /* \"#utility.yul\":23102:23241   */\n      swap1\n      pop\n        /* \"#utility.yul\":22829:23248   */\n      swap2\n      swap1\n      pop\n      jump\t// out\n        /* \"#utility.yul\":23254:23480   */\n    tag_258:\n        /* \"#utility.yul\":23394:23428   */\n      0x596f75206861766520616c726561647920766f746564206f6e20746869732050\n        /* \"#utility.yul\":23390:23391   */\n      0x00\n        /* \"#utility.yul\":23382:23388   */\n      dup3\n        /* \"#utility.yul\":23378:23392   */\n      add\n        /* \"#utility.yul\":23371:23429   */\n      mstore\n        /* \"#utility.yul\":23463:23472   */\n      0x726f706f73616c00000000000000000000000000000000000000000000000000\n        /* \"#utility.yul\":23458:23460   */\n      0x20\n        /* \"#utility.yul\":23450:23456   */\n      dup3\n        /* \"#utility.yul\":23446:23461   */\n      add\n        /* \"#utility.yul\":23439:23473   */\n      mstore\n        /* \"#utility.yul\":23254:23480   */\n      pop\n      jump\t// out\n        /* \"#utility.yul\":23486:23852   */\n    tag_259:\n        /* \"#utility.yul\":23628:23631   */\n      0x00\n        /* \"#utility.yul\":23649:23716   */\n      tag_488\n        /* \"#utility.yul\":23713:23715   */\n      0x27\n        /* \"#utility.yul\":23708:23711   */\n      dup4\n        /* \"#utility.yul\":23649:23716   */\n      tag_203\n      jump\t// in\n    tag_488:\n        /* \"#utility.yul\":23642:23716   */\n      swap2\n      pop\n        /* \"#utility.yul\":23725:23818   */\n      tag_489\n        /* \"#utility.yul\":23814:23817   */\n      dup3\n        /* \"#utility.yul\":23725:23818   */\n      tag_258\n      jump\t// in\n    tag_489:\n        /* \"#utility.yul\":23843:23845   */\n      0x40\n        /* \"#utility.yul\":23838:23841   */\n      dup3\n        /* \"#utility.yul\":23834:23846   */\n      add\n        /* \"#utility.yul\":23827:23846   */\n      swap1\n      pop\n        /* \"#utility.yul\":23486:23852   */\n      swap2\n      swap1\n      pop\n      jump\t// out\n        /* \"#utility.yul\":23858:24277   */\n    tag_175:\n        /* \"#utility.yul\":24024:24028   */\n      0x00\n        /* \"#utility.yul\":24062:24064   */\n      0x20\n        /* \"#utility.yul\":24051:24060   */\n      dup3\n        /* \"#utility.yul\":24047:24065   */\n      add\n        /* \"#utility.yul\":24039:24065   */\n      swap1\n      pop\n        /* \"#utility.yul\":24111:24120   */\n      dup2\n        /* \"#utility.yul\":24105:24109   */\n      dup2\n        /* \"#utility.yul\":24101:24121   */\n      sub\n        /* \"#utility.yul\":24097:24098   */\n      0x00\n        /* \"#utility.yul\":24086:24095   */\n      dup4\n        /* \"#utility.yul\":24082:24099   */\n      add\n        /* \"#utility.yul\":24075:24122   */\n      mstore\n        /* \"#utility.yul\":24139:24270   */\n      tag_491\n        /* \"#utility.yul\":24265:24269   */\n      dup2\n        /* \"#utility.yul\":24139:24270   */\n      tag_259\n      jump\t// in\n    tag_491:\n        /* \"#utility.yul\":24131:24270   */\n      swap1\n      pop\n        /* \"#utility.yul\":23858:24277   */\n      swap2\n      swap1\n      pop\n      jump\t// out\n        /* \"#utility.yul\":24283:24459   */\n    tag_260:\n        /* \"#utility.yul\":24423:24451   */\n      0x4e6f7420656e6f7567682066756e647320617661696c61626c65000000000000\n        /* \"#utility.yul\":24419:24420   */\n      0x00\n        /* \"#utility.yul\":24411:24417   */\n      dup3\n        /* \"#utility.yul\":24407:24421   */\n      add\n        /* \"#utility.yul\":24400:24452   */\n      mstore\n        /* \"#utility.yul\":24283:24459   */\n      pop\n      jump\t// out\n        /* \"#utility.yul\":24465:24831   */\n    tag_261:\n        /* \"#utility.yul\":24607:24610   */\n      0x00\n        /* \"#utility.yul\":24628:24695   */\n      tag_494\n        /* \"#utility.yul\":24692:24694   */\n      0x1a\n        /* \"#utility.yul\":24687:24690   */\n      dup4\n        /* \"#utility.yul\":24628:24695   */\n      tag_203\n      jump\t// in\n    tag_494:\n        /* \"#utility.yul\":24621:24695   */\n      swap2\n      pop\n        /* \"#utility.yul\":24704:24797   */\n      tag_495\n        /* \"#utility.yul\":24793:24796   */\n      dup3\n        /* \"#utility.yul\":24704:24797   */\n      tag_260\n      jump\t// in\n    tag_495:\n        /* \"#utility.yul\":24822:24824   */\n      0x20\n        /* \"#utility.yul\":24817:24820   */\n      dup3\n        /* \"#utility.yul\":24813:24825   */\n      add\n        /* \"#utility.yul\":24806:24825   */\n      swap1\n      pop\n        /* \"#utility.yul\":24465:24831   */\n      swap2\n      swap1\n      pop\n      jump\t// out\n        /* \"#utility.yul\":24837:25256   */\n    tag_187:\n        /* \"#utility.yul\":25003:25007   */\n      0x00\n        /* \"#utility.yul\":25041:25043   */\n      0x20\n        /* \"#utility.yul\":25030:25039   */\n      dup3\n        /* \"#utility.yul\":25026:25044   */\n      add\n        /* \"#utility.yul\":25018:25044   */\n      swap1\n      pop\n        /* \"#utility.yul\":25090:25099   */\n      dup2\n        /* \"#utility.yul\":25084:25088   */\n      dup2\n        /* \"#utility.yul\":25080:25100   */\n      sub\n        /* \"#utility.yul\":25076:25077   */\n      0x00\n        /* \"#utility.yul\":25065:25074   */\n      dup4\n        /* \"#utility.yul\":25061:25078   */\n      add\n        /* \"#utility.yul\":25054:25101   */\n      mstore\n        /* \"#utility.yul\":25118:25249   */\n      tag_497\n        /* \"#utility.yul\":25244:25248   */\n      dup2\n        /* \"#utility.yul\":25118:25249   */\n      tag_261\n      jump\t// in\n    tag_497:\n        /* \"#utility.yul\":25110:25249   */\n      swap1\n      pop\n        /* \"#utility.yul\":24837:25256   */\n      swap2\n      swap1\n      pop\n      jump\t// out\n\n    auxdata: 0xa2646970667358221220b42a8a344ba2f6310462f40707453e4cf01ad8ec560b2def1782611f662d4db864736f6c63430008120033\n}\n",
				"bytecode": {
					"linkReferences": {},
					"object": "60806040523480156200001157600080fd5b506040516200249738038062002497833981810160405281019062000037919062000139565b6000811180156200004b5750606460085411155b6200008d576040517f08c379a00000000000000000000000000000000000000000000000000000000081526004016200008490620001f6565b60405180910390fd5b82426200009b919062000247565b600681905550816007819055508060088190555033600b60006101000a81548173ffffffffffffffffffffffffffffffffffffffff021916908373ffffffffffffffffffffffffffffffffffffffff16021790555050505062000282565b600080fd5b6000819050919050565b6200011381620000fe565b81146200011f57600080fd5b50565b600081519050620001338162000108565b92915050565b600080600060608486031215620001555762000154620000f9565b5b6000620001658682870162000122565b9350506020620001788682870162000122565b92505060406200018b8682870162000122565b9150509250925092565b600082825260208201905092915050565b7f496e76616c69642071756f72756d2076616c7565000000000000000000000000600082015250565b6000620001de60148362000195565b9150620001eb82620001a6565b602082019050919050565b600060208201905081810360008301526200021181620001cf565b9050919050565b7f4e487b7100000000000000000000000000000000000000000000000000000000600052601160045260246000fd5b60006200025482620000fe565b91506200026183620000fe565b92508282019050808211156200027c576200027b62000218565b5b92915050565b61220580620002926000396000f3fe6080604052600436106100fe5760003560e01c806350520b1f11610095578063807896d511610064578063807896d51461031c5780638ee36f0514610345578063a6e158f814610382578063afc8275b146103ab578063bcf93dd6146103d6576100fe565b806350520b1f14610281578063584117ff1461028b5780636ac1e01f146102c85780637e1c0c09146102f1576100fe565b80632ccc8727116100d15780632ccc8727146101c55780632ed2cd8f1461020257806346fcff4c1461022b578063481c6a7514610256576100fe565b8063013cf08b146101035780630d61b519146101465780631703a0181461016f5780632ab09d141461019a575b600080fd5b34801561010f57600080fd5b5061012a6004803603810190610125919061146d565b610401565b60405161013d9796959493929190611595565b60405180910390f35b34801561015257600080fd5b5061016d6004803603810190610168919061146d565b6104f8565b005b34801561017b57600080fd5b506101846106c0565b604051610191919061160b565b60405180910390f35b3480156101a657600080fd5b506101af6106c6565b6040516101bc919061160b565b60405180910390f35b3480156101d157600080fd5b506101ec60048036038101906101e7919061146d565b6106cc565b6040516101f99190611647565b60405180910390f35b34801561020e57600080fd5b506102296004803603810190610224919061168e565b61070b565b005b34801561023757600080fd5b50610240610a30565b60405161024d919061160b565b60405180910390f35b34801561026257600080fd5b5061026b610a36565b6040516102789190611647565b60405180910390f35b610289610a5c565b005b34801561029757600080fd5b506102b260048036038101906102ad91906116ce565b610c16565b6040516102bf919061160b565b60405180910390f35b3480156102d457600080fd5b506102ef60048036038101906102ea919061178c565b610c2e565b005b3480156102fd57600080fd5b50610306610e7e565b604051610313919061160b565b60405180910390f35b34801561032857600080fd5b50610343600480360381019061033e919061146d565b610e84565b005b34801561035157600080fd5b5061036c60048036038101906103679190611800565b611137565b6040516103799190611840565b60405180910390f35b34801561038e57600080fd5b506103a960048036038101906103a4919061146d565b611166565b005b3480156103b757600080fd5b506103c0611380565b6040516103cd919061160b565b60405180910390f35b3480156103e257600080fd5b506103eb611386565b6040516103f8919061160b565b60405180910390f35b600460205280600052604060002060009150905080600001549080600101805461042a9061188a565b80601f01602080910402602001604051908101604052809291908181526020018280546104569061188a565b80156104a35780601f10610478576101008083540402835291602001916104a3565b820191906000526020600020905b81548152906001019060200180831161048657829003601f168201915b5050505050908060020154908060030160009054906101000a900473ffffffffffffffffffffffffffffffffffffffff16908060040154908060050154908060060160009054906101000a900460ff16905087565b3373ffffffffffffffffffffffffffffffffffffffff16600b60009054906101000a900473ffffffffffffffffffffffffffffffffffffffff1673ffffffffffffffffffffffffffffffffffffffff1614610588576040517f08c379a000000000000000000000000000000000000000000000000000000000815260040161057f90611907565b60405180910390fd5b6000600460008381526020019081526020016000209050600015158160060160009054906101000a900460ff161515146105f7576040517f08c379a00000000000000000000000000000000000000000000000000000000081526004016105ee90611999565b60405180910390fd5b806005015442101561063e576040517f08c379a000000000000000000000000000000000000000000000000000000000815260040161063590611a2b565b60405180910390fd5b60005b600a548110156106bb576004600082815260200190815260200160002060040154826004015410156106a8576040517f08c379a000000000000000000000000000000000000000000000000000000000815260040161069f90611abd565b60405180910390fd5b80806106b390611b0c565b915050610641565b505050565b60085481565b600a5481565b600381815481106106dc57600080fd5b906000526020600020016000915054906101000a900473ffffffffffffffffffffffffffffffffffffffff1681565b600115156000803373ffffffffffffffffffffffffffffffffffffffff1673ffffffffffffffffffffffffffffffffffffffff16815260200190815260200160002060009054906101000a900460ff1615151461079d576040517f08c379a000000000000000000000000000000000000000000000000000000000815260040161079490611907565b60405180910390fd5b600160003373ffffffffffffffffffffffffffffffffffffffff1673ffffffffffffffffffffffffffffffffffffffff1681526020019081526020016000205482111561081f576040517f08c379a000000000000000000000000000000000000000000000000000000000815260040161081690611ba0565b60405180910390fd5b81600160003373ffffffffffffffffffffffffffffffffffffffff1673ffffffffffffffffffffffffffffffffffffffff168152602001908152602001600020600082825461086e9190611bc0565b9250508190555061087d61138c565b8073ffffffffffffffffffffffffffffffffffffffff166108fc839081150290604051600060405180830381858888f193505050501580156108c3573d6000803e3d6000fd5b50600115156000808373ffffffffffffffffffffffffffffffffffffffff1673ffffffffffffffffffffffffffffffffffffffff16815260200190815260200160002060009054906101000a900460ff1615151461097f576003819080600181540180825580915050600190039060005260206000200160009091909190916101000a81548173ffffffffffffffffffffffffffffffffffffffff021916908373ffffffffffffffffffffffffffffffffffffffff1602179055505b60016000808373ffffffffffffffffffffffffffffffffffffffff1673ffffffffffffffffffffffffffffffffffffffff16815260200190815260200160002060006101000a81548160ff02191690831515021790555081600160008373ffffffffffffffffffffffffffffffffffffffff1673ffffffffffffffffffffffffffffffffffffffff1681526020019081526020016000206000828254610a259190611bf4565b925050819055505050565b60095481565b600b60009054906101000a900473ffffffffffffffffffffffffffffffffffffffff1681565b600654421115610aa1576040517f08c379a0000000000000000000000000000000000000000000000000000000008152600401610a9890611c74565b60405180910390fd5b60003411610ae4576040517f08c379a0000000000000000000000000000000000000000000000000000000008152600401610adb90611ce0565b60405180910390fd5b60016000803373ffffffffffffffffffffffffffffffffffffffff1673ffffffffffffffffffffffffffffffffffffffff16815260200190815260200160002060006101000a81548160ff0219169083151502179055506003339080600181540180825580915050600190039060005260206000200160009091909190916101000a81548173ffffffffffffffffffffffffffffffffffffffff021916908373ffffffffffffffffffffffffffffffffffffffff16021790555034600160003373ffffffffffffffffffffffffffffffffffffffff1673ffffffffffffffffffffffffffffffffffffffff168152602001908152602001600020819055503460056000828254610bf49190611bf4565b925050819055503460096000828254610c0d9190611bf4565b92505081905550565b60016020528060005260406000206000915090505481565b3373ffffffffffffffffffffffffffffffffffffffff16600b60009054906101000a900473ffffffffffffffffffffffffffffffffffffffff1673ffffffffffffffffffffffffffffffffffffffff1614610cbe576040517f08c379a0000000000000000000000000000000000000000000000000000000008152600401610cb590611907565b60405180910390fd5b816009541015610d03576040517f08c379a0000000000000000000000000000000000000000000000000000000008152600401610cfa90611d72565b60405180910390fd5b6040518060e00160405280600a54815260200185858080601f016020809104026020016040519081016040528093929190818152602001838380828437600081840152601f19601f8201169050808301925050505050505081526020018381526020018273ffffffffffffffffffffffffffffffffffffffff1681526020016000815260200160075442610d979190611bf4565b81526020016000151581525060046000600a548152602001908152602001600020600082015181600001556020820151816001019081610dd79190611f6d565b506040820151816002015560608201518160030160006101000a81548173ffffffffffffffffffffffffffffffffffffffff021916908373ffffffffffffffffffffffffffffffffffffffff1602179055506080820151816004015560a0820151816005015560c08201518160060160006101000a81548160ff021916908315150217905550905050600a6000815480929190610e7390611b0c565b919050555050505050565b60055481565b600115156000803373ffffffffffffffffffffffffffffffffffffffff1673ffffffffffffffffffffffffffffffffffffffff16815260200190815260200160002060009054906101000a900460ff16151514610f16576040517f08c379a0000000000000000000000000000000000000000000000000000000008152600401610f0d90611907565b60405180910390fd5b60006004600083815260200190815260200160002090508060050154421115610f74576040517f08c379a0000000000000000000000000000000000000000000000000000000008152600401610f6b906120b1565b60405180910390fd5b60001515600260003373ffffffffffffffffffffffffffffffffffffffff1673ffffffffffffffffffffffffffffffffffffffff168152602001908152602001600020600084815260200190815260200160002060009054906101000a900460ff16151514611018576040517f08c379a000000000000000000000000000000000000000000000000000000000815260040161100f90612143565b60405180910390fd5b600015158160060160009054906101000a900460ff16151514611070576040517f08c379a000000000000000000000000000000000000000000000000000000000815260040161106790611999565b60405180910390fd5b6001600260003373ffffffffffffffffffffffffffffffffffffffff1673ffffffffffffffffffffffffffffffffffffffff168152602001908152602001600020600084815260200190815260200160002060006101000a81548160ff021916908315150217905550600160003373ffffffffffffffffffffffffffffffffffffffff1673ffffffffffffffffffffffffffffffffffffffff1681526020019081526020016000205481600401600082825461112c9190611bf4565b925050819055505050565b60026020528160005260406000206020528060005260406000206000915091509054906101000a900460ff1681565b600115156000803373ffffffffffffffffffffffffffffffffffffffff1673ffffffffffffffffffffffffffffffffffffffff16815260200190815260200160002060009054906101000a900460ff161515146111f8576040517f08c379a00000000000000000000000000000000000000000000000000000000081526004016111ef90611907565b60405180910390fd5b600160003373ffffffffffffffffffffffffffffffffffffffff1673ffffffffffffffffffffffffffffffffffffffff1681526020019081526020016000205481111561127a576040517f08c379a000000000000000000000000000000000000000000000000000000000815260040161127190611ba0565b60405180910390fd5b8060095410156112bf576040517f08c379a00000000000000000000000000000000000000000000000000000000081526004016112b6906121af565b60405180910390fd5b80600160003373ffffffffffffffffffffffffffffffffffffffff1673ffffffffffffffffffffffffffffffffffffffff168152602001908152602001600020600082825461130e9190611bc0565b9250508190555080600960008282546113279190611bc0565b9250508190555061133661138c565b3373ffffffffffffffffffffffffffffffffffffffff166108fc829081150290604051600060405180830381858888f1935050505015801561137c573d6000803e3d6000fd5b5050565b60065481565b60075481565b6000600160003373ffffffffffffffffffffffffffffffffffffffff1673ffffffffffffffffffffffffffffffffffffffff168152602001908152602001600020540361142b5760008060003373ffffffffffffffffffffffffffffffffffffffff1673ffffffffffffffffffffffffffffffffffffffff16815260200190815260200160002060006101000a81548160ff0219169083151502179055505b565b600080fd5b600080fd5b6000819050919050565b61144a81611437565b811461145557600080fd5b50565b60008135905061146781611441565b92915050565b6000602082840312156114835761148261142d565b5b600061149184828501611458565b91505092915050565b6114a381611437565b82525050565b600081519050919050565b600082825260208201905092915050565b60005b838110156114e35780820151818401526020810190506114c8565b60008484015250505050565b6000601f19601f8301169050919050565b600061150b826114a9565b61151581856114b4565b93506115258185602086016114c5565b61152e816114ef565b840191505092915050565b600073ffffffffffffffffffffffffffffffffffffffff82169050919050565b600061156482611539565b9050919050565b61157481611559565b82525050565b60008115159050919050565b61158f8161157a565b82525050565b600060e0820190506115aa600083018a61149a565b81810360208301526115bc8189611500565b90506115cb604083018861149a565b6115d8606083018761156b565b6115e5608083018661149a565b6115f260a083018561149a565b6115ff60c0830184611586565b98975050505050505050565b6000602082019050611620600083018461149a565b92915050565b600061163182611539565b9050919050565b61164181611626565b82525050565b600060208201905061165c6000830184611638565b92915050565b61166b81611626565b811461167657600080fd5b50565b60008135905061168881611662565b92915050565b600080604083850312156116a5576116a461142d565b5b60006116b385828601611458565b92505060206116c485828601611679565b9150509250929050565b6000602082840312156116e4576116e361142d565b5b60006116f284828501611679565b91505092915050565b600080fd5b600080fd5b600080fd5b60008083601f8401126117205761171f6116fb565b5b8235905067ffffffffffffffff81111561173d5761173c611700565b5b60208301915083600182028301111561175957611758611705565b5b9250929050565b61176981611559565b811461177457600080fd5b50565b60008135905061178681611760565b92915050565b600080600080606085870312156117a6576117a561142d565b5b600085013567ffffffffffffffff8111156117c4576117c3611432565b5b6117d08782880161170a565b945094505060206117e387828801611458565b92505060406117f487828801611777565b91505092959194509250565b600080604083850312156118175761181661142d565b5b600061182585828601611679565b925050602061183685828601611458565b9150509250929050565b60006020820190506118556000830184611586565b92915050565b7f4e487b7100000000000000000000000000000000000000000000000000000000600052602260045260246000fd5b600060028204905060018216806118a257607f821691505b6020821081036118b5576118b461185b565b5b50919050565b7f596f7520617265206e6f7420616e20696e766573746f72000000000000000000600082015250565b60006118f16017836114b4565b91506118fc826118bb565b602082019050919050565b60006020820190508181036000830152611920816118e4565b9050919050565b7f546869732050726f706f73616c2068617320616c7265616479206265656e206560008201527f7865637574656400000000000000000000000000000000000000000000000000602082015250565b60006119836027836114b4565b915061198e82611927565b604082019050919050565b600060208201905081810360008301526119b281611976565b9050919050565b7f566f74696e672074696d6520666f7220746869732050726f706f73616c20686160008201527f736e277420656e64656420796574000000000000000000000000000000000000602082015250565b6000611a15602e836114b4565b9150611a20826119b9565b604082019050919050565b60006020820190508181036000830152611a4481611a08565b9050919050565b7f546869732050726f706f73616c206973206e6f7420746865206869676865737460008201527f20766f7465640000000000000000000000000000000000000000000000000000602082015250565b6000611aa76026836114b4565b9150611ab282611a4b565b604082019050919050565b60006020820190508181036000830152611ad681611a9a565b9050919050565b7f4e487b7100000000000000000000000000000000000000000000000000000000600052601160045260246000fd5b6000611b1782611437565b91507fffffffffffffffffffffffffffffffffffffffffffffffffffffffffffffffff8203611b4957611b48611add565b5b600182019050919050565b7f596f7520646f6e2774206861766520656e6f75676820746f6b656e7300000000600082015250565b6000611b8a601c836114b4565b9150611b9582611b54565b602082019050919050565b60006020820190508181036000830152611bb981611b7d565b9050919050565b6000611bcb82611437565b9150611bd683611437565b9250828203905081811115611bee57611bed611add565b5b92915050565b6000611bff82611437565b9150611c0a83611437565b9250828201905080821115611c2257611c21611add565b5b92915050565b7f436f6e747269627574696f6e2054696d6520456e646564000000000000000000600082015250565b6000611c5e6017836114b4565b9150611c6982611c28565b602082019050919050565b60006020820190508181036000830152611c8d81611c51565b9050919050565b7f53656e64206d6f7265207468616e203020657468657273000000000000000000600082015250565b6000611cca6017836114b4565b9150611cd582611c94565b602082019050919050565b60006020820190508181036000830152611cf981611cbd565b9050919050565b7f4e6f742073756666696369656e742066756e647320746f206d6174636820796f60008201527f757220616d6f756e740000000000000000000000000000000000000000000000602082015250565b6000611d5c6029836114b4565b9150611d6782611d00565b604082019050919050565b60006020820190508181036000830152611d8b81611d4f565b9050919050565b7f4e487b7100000000000000000000000000000000000000000000000000000000600052604160045260246000fd5b60008190508160005260206000209050919050565b60006020601f8301049050919050565b600082821b905092915050565b600060088302611e237fffffffffffffffffffffffffffffffffffffffffffffffffffffffffffffffff82611de6565b611e2d8683611de6565b95508019841693508086168417925050509392505050565b6000819050919050565b6000611e6a611e65611e6084611437565b611e45565b611437565b9050919050565b6000819050919050565b611e8483611e4f565b611e98611e9082611e71565b848454611df3565b825550505050565b600090565b611ead611ea0565b611eb8818484611e7b565b505050565b5b81811015611edc57611ed1600082611ea5565b600181019050611ebe565b5050565b601f821115611f2157611ef281611dc1565b611efb84611dd6565b81016020851015611f0a578190505b611f1e611f1685611dd6565b830182611ebd565b50505b505050565b600082821c905092915050565b6000611f4460001984600802611f26565b1980831691505092915050565b6000611f5d8383611f33565b9150826002028217905092915050565b611f76826114a9565b67ffffffffffffffff811115611f8f57611f8e611d92565b5b611f99825461188a565b611fa4828285611ee0565b600060209050601f831160018114611fd75760008415611fc5578287015190505b611fcf8582611f51565b865550612037565b601f198416611fe586611dc1565b60005b8281101561200d57848901518255600182019150602085019450602081019050611fe8565b8683101561202a5784890151612026601f891682611f33565b8355505b6001600288020188555050505b505050505050565b7f566f74696e6720686173206265656e20636c6f73656420666f7220746869732060008201527f50726f706f73616c000000000000000000000000000000000000000000000000602082015250565b600061209b6028836114b4565b91506120a68261203f565b604082019050919050565b600060208201905081810360008301526120ca8161208e565b9050919050565b7f596f75206861766520616c726561647920766f746564206f6e2074686973205060008201527f726f706f73616c00000000000000000000000000000000000000000000000000602082015250565b600061212d6027836114b4565b9150612138826120d1565b604082019050919050565b6000602082019050818103600083015261215c81612120565b9050919050565b7f4e6f7420656e6f7567682066756e647320617661696c61626c65000000000000600082015250565b6000612199601a836114b4565b91506121a482612163565b602082019050919050565b600060208201905081810360008301526121c88161218c565b905091905056fea2646970667358221220b42a8a344ba2f6310462f40707453e4cf01ad8ec560b2def1782611f662d4db864736f6c63430008120033",
					"opcodes": "PUSH1 0x80 PUSH1 0x40 MSTORE CALLVALUE DUP1 ISZERO PUSH3 0x11 JUMPI PUSH1 0x0 DUP1 REVERT JUMPDEST POP PUSH1 0x40 MLOAD PUSH3 0x2497 CODESIZE SUB DUP1 PUSH3 0x2497 DUP4 CODECOPY DUP2 DUP2 ADD PUSH1 0x40 MSTORE DUP2 ADD SWAP1 PUSH3 0x37 SWAP2 SWAP1 PUSH3 0x139 JUMP JUMPDEST PUSH1 0x0 DUP2 GT DUP1 ISZERO PUSH3 0x4B JUMPI POP PUSH1 0x64 PUSH1 0x8 SLOAD GT ISZERO JUMPDEST PUSH3 0x8D JUMPI PUSH1 0x40 MLOAD PUSH32 0x8C379A000000000000000000000000000000000000000000000000000000000 DUP2 MSTORE PUSH1 0x4 ADD PUSH3 0x84 SWAP1 PUSH3 0x1F6 JUMP JUMPDEST PUSH1 0x40 MLOAD DUP1 SWAP2 SUB SWAP1 REVERT JUMPDEST DUP3 TIMESTAMP PUSH3 0x9B SWAP2 SWAP1 PUSH3 0x247 JUMP JUMPDEST PUSH1 0x6 DUP2 SWAP1 SSTORE POP DUP2 PUSH1 0x7 DUP2 SWAP1 SSTORE POP DUP1 PUSH1 0x8 DUP2 SWAP1 SSTORE POP CALLER PUSH1 0xB PUSH1 0x0 PUSH2 0x100 EXP DUP2 SLOAD DUP2 PUSH20 0xFFFFFFFFFFFFFFFFFFFFFFFFFFFFFFFFFFFFFFFF MUL NOT AND SWAP1 DUP4 PUSH20 0xFFFFFFFFFFFFFFFFFFFFFFFFFFFFFFFFFFFFFFFF AND MUL OR SWAP1 SSTORE POP POP POP POP PUSH3 0x282 JUMP JUMPDEST PUSH1 0x0 DUP1 REVERT JUMPDEST PUSH1 0x0 DUP2 SWAP1 POP SWAP2 SWAP1 POP JUMP JUMPDEST PUSH3 0x113 DUP2 PUSH3 0xFE JUMP JUMPDEST DUP2 EQ PUSH3 0x11F JUMPI PUSH1 0x0 DUP1 REVERT JUMPDEST POP JUMP JUMPDEST PUSH1 0x0 DUP2 MLOAD SWAP1 POP PUSH3 0x133 DUP2 PUSH3 0x108 JUMP JUMPDEST SWAP3 SWAP2 POP POP JUMP JUMPDEST PUSH1 0x0 DUP1 PUSH1 0x0 PUSH1 0x60 DUP5 DUP7 SUB SLT ISZERO PUSH3 0x155 JUMPI PUSH3 0x154 PUSH3 0xF9 JUMP JUMPDEST JUMPDEST PUSH1 0x0 PUSH3 0x165 DUP7 DUP3 DUP8 ADD PUSH3 0x122 JUMP JUMPDEST SWAP4 POP POP PUSH1 0x20 PUSH3 0x178 DUP7 DUP3 DUP8 ADD PUSH3 0x122 JUMP JUMPDEST SWAP3 POP POP PUSH1 0x40 PUSH3 0x18B DUP7 DUP3 DUP8 ADD PUSH3 0x122 JUMP JUMPDEST SWAP2 POP POP SWAP3 POP SWAP3 POP SWAP3 JUMP JUMPDEST PUSH1 0x0 DUP3 DUP3 MSTORE PUSH1 0x20 DUP3 ADD SWAP1 POP SWAP3 SWAP2 POP POP JUMP JUMPDEST PUSH32 0x496E76616C69642071756F72756D2076616C7565000000000000000000000000 PUSH1 0x0 DUP3 ADD MSTORE POP JUMP JUMPDEST PUSH1 0x0 PUSH3 0x1DE PUSH1 0x14 DUP4 PUSH3 0x195 JUMP JUMPDEST SWAP2 POP PUSH3 0x1EB DUP3 PUSH3 0x1A6 JUMP JUMPDEST PUSH1 0x20 DUP3 ADD SWAP1 POP SWAP2 SWAP1 POP JUMP JUMPDEST PUSH1 0x0 PUSH1 0x20 DUP3 ADD SWAP1 POP DUP2 DUP2 SUB PUSH1 0x0 DUP4 ADD MSTORE PUSH3 0x211 DUP2 PUSH3 0x1CF JUMP JUMPDEST SWAP1 POP SWAP2 SWAP1 POP JUMP JUMPDEST PUSH32 0x4E487B7100000000000000000000000000000000000000000000000000000000 PUSH1 0x0 MSTORE PUSH1 0x11 PUSH1 0x4 MSTORE PUSH1 0x24 PUSH1 0x0 REVERT JUMPDEST PUSH1 0x0 PUSH3 0x254 DUP3 PUSH3 0xFE JUMP JUMPDEST SWAP2 POP PUSH3 0x261 DUP4 PUSH3 0xFE JUMP JUMPDEST SWAP3 POP DUP3 DUP3 ADD SWAP1 POP DUP1 DUP3 GT ISZERO PUSH3 0x27C JUMPI PUSH3 0x27B PUSH3 0x218 JUMP JUMPDEST JUMPDEST SWAP3 SWAP2 POP POP JUMP JUMPDEST PUSH2 0x2205 DUP1 PUSH3 0x292 PUSH1 0x0 CODECOPY PUSH1 0x0 RETURN INVALID PUSH1 0x80 PUSH1 0x40 MSTORE PUSH1 0x4 CALLDATASIZE LT PUSH2 0xFE JUMPI PUSH1 0x0 CALLDATALOAD PUSH1 0xE0 SHR DUP1 PUSH4 0x50520B1F GT PUSH2 0x95 JUMPI DUP1 PUSH4 0x807896D5 GT PUSH2 0x64 JUMPI DUP1 PUSH4 0x807896D5 EQ PUSH2 0x31C JUMPI DUP1 PUSH4 0x8EE36F05 EQ PUSH2 0x345 JUMPI DUP1 PUSH4 0xA6E158F8 EQ PUSH2 0x382 JUMPI DUP1 PUSH4 0xAFC8275B EQ PUSH2 0x3AB JUMPI DUP1 PUSH4 0xBCF93DD6 EQ PUSH2 0x3D6 JUMPI PUSH2 0xFE JUMP JUMPDEST DUP1 PUSH4 0x50520B1F EQ PUSH2 0x281 JUMPI DUP1 PUSH4 0x584117FF EQ PUSH2 0x28B JUMPI DUP1 PUSH4 0x6AC1E01F EQ PUSH2 0x2C8 JUMPI DUP1 PUSH4 0x7E1C0C09 EQ PUSH2 0x2F1 JUMPI PUSH2 0xFE JUMP JUMPDEST DUP1 PUSH4 0x2CCC8727 GT PUSH2 0xD1 JUMPI DUP1 PUSH4 0x2CCC8727 EQ PUSH2 0x1C5 JUMPI DUP1 PUSH4 0x2ED2CD8F EQ PUSH2 0x202 JUMPI DUP1 PUSH4 0x46FCFF4C EQ PUSH2 0x22B JUMPI DUP1 PUSH4 0x481C6A75 EQ PUSH2 0x256 JUMPI PUSH2 0xFE JUMP JUMPDEST DUP1 PUSH4 0x13CF08B EQ PUSH2 0x103 JUMPI DUP1 PUSH4 0xD61B519 EQ PUSH2 0x146 JUMPI DUP1 PUSH4 0x1703A018 EQ PUSH2 0x16F JUMPI DUP1 PUSH4 0x2AB09D14 EQ PUSH2 0x19A JUMPI JUMPDEST PUSH1 0x0 DUP1 REVERT JUMPDEST CALLVALUE DUP1 ISZERO PUSH2 0x10F JUMPI PUSH1 0x0 DUP1 REVERT JUMPDEST POP PUSH2 0x12A PUSH1 0x4 DUP1 CALLDATASIZE SUB DUP2 ADD SWAP1 PUSH2 0x125 SWAP2 SWAP1 PUSH2 0x146D JUMP JUMPDEST PUSH2 0x401 JUMP JUMPDEST PUSH1 0x40 MLOAD PUSH2 0x13D SWAP8 SWAP7 SWAP6 SWAP5 SWAP4 SWAP3 SWAP2 SWAP1 PUSH2 0x1595 JUMP JUMPDEST PUSH1 0x40 MLOAD DUP1 SWAP2 SUB SWAP1 RETURN JUMPDEST CALLVALUE DUP1 ISZERO PUSH2 0x152 JUMPI PUSH1 0x0 DUP1 REVERT JUMPDEST POP PUSH2 0x16D PUSH1 0x4 DUP1 CALLDATASIZE SUB DUP2 ADD SWAP1 PUSH2 0x168 SWAP2 SWAP1 PUSH2 0x146D JUMP JUMPDEST PUSH2 0x4F8 JUMP JUMPDEST STOP JUMPDEST CALLVALUE DUP1 ISZERO PUSH2 0x17B JUMPI PUSH1 0x0 DUP1 REVERT JUMPDEST POP PUSH2 0x184 PUSH2 0x6C0 JUMP JUMPDEST PUSH1 0x40 MLOAD PUSH2 0x191 SWAP2 SWAP1 PUSH2 0x160B JUMP JUMPDEST PUSH1 0x40 MLOAD DUP1 SWAP2 SUB SWAP1 RETURN JUMPDEST CALLVALUE DUP1 ISZERO PUSH2 0x1A6 JUMPI PUSH1 0x0 DUP1 REVERT JUMPDEST POP PUSH2 0x1AF PUSH2 0x6C6 JUMP JUMPDEST PUSH1 0x40 MLOAD PUSH2 0x1BC SWAP2 SWAP1 PUSH2 0x160B JUMP JUMPDEST PUSH1 0x40 MLOAD DUP1 SWAP2 SUB SWAP1 RETURN JUMPDEST CALLVALUE DUP1 ISZERO PUSH2 0x1D1 JUMPI PUSH1 0x0 DUP1 REVERT JUMPDEST POP PUSH2 0x1EC PUSH1 0x4 DUP1 CALLDATASIZE SUB DUP2 ADD SWAP1 PUSH2 0x1E7 SWAP2 SWAP1 PUSH2 0x146D JUMP JUMPDEST PUSH2 0x6CC JUMP JUMPDEST PUSH1 0x40 MLOAD PUSH2 0x1F9 SWAP2 SWAP1 PUSH2 0x1647 JUMP JUMPDEST PUSH1 0x40 MLOAD DUP1 SWAP2 SUB SWAP1 RETURN JUMPDEST CALLVALUE DUP1 ISZERO PUSH2 0x20E JUMPI PUSH1 0x0 DUP1 REVERT JUMPDEST POP PUSH2 0x229 PUSH1 0x4 DUP1 CALLDATASIZE SUB DUP2 ADD SWAP1 PUSH2 0x224 SWAP2 SWAP1 PUSH2 0x168E JUMP JUMPDEST PUSH2 0x70B JUMP JUMPDEST STOP JUMPDEST CALLVALUE DUP1 ISZERO PUSH2 0x237 JUMPI PUSH1 0x0 DUP1 REVERT JUMPDEST POP PUSH2 0x240 PUSH2 0xA30 JUMP JUMPDEST PUSH1 0x40 MLOAD PUSH2 0x24D SWAP2 SWAP1 PUSH2 0x160B JUMP JUMPDEST PUSH1 0x40 MLOAD DUP1 SWAP2 SUB SWAP1 RETURN JUMPDEST CALLVALUE DUP1 ISZERO PUSH2 0x262 JUMPI PUSH1 0x0 DUP1 REVERT JUMPDEST POP PUSH2 0x26B PUSH2 0xA36 JUMP JUMPDEST PUSH1 0x40 MLOAD PUSH2 0x278 SWAP2 SWAP1 PUSH2 0x1647 JUMP JUMPDEST PUSH1 0x40 MLOAD DUP1 SWAP2 SUB SWAP1 RETURN JUMPDEST PUSH2 0x289 PUSH2 0xA5C JUMP JUMPDEST STOP JUMPDEST CALLVALUE DUP1 ISZERO PUSH2 0x297 JUMPI PUSH1 0x0 DUP1 REVERT JUMPDEST POP PUSH2 0x2B2 PUSH1 0x4 DUP1 CALLDATASIZE SUB DUP2 ADD SWAP1 PUSH2 0x2AD SWAP2 SWAP1 PUSH2 0x16CE JUMP JUMPDEST PUSH2 0xC16 JUMP JUMPDEST PUSH1 0x40 MLOAD PUSH2 0x2BF SWAP2 SWAP1 PUSH2 0x160B JUMP JUMPDEST PUSH1 0x40 MLOAD DUP1 SWAP2 SUB SWAP1 RETURN JUMPDEST CALLVALUE DUP1 ISZERO PUSH2 0x2D4 JUMPI PUSH1 0x0 DUP1 REVERT JUMPDEST POP PUSH2 0x2EF PUSH1 0x4 DUP1 CALLDATASIZE SUB DUP2 ADD SWAP1 PUSH2 0x2EA SWAP2 SWAP1 PUSH2 0x178C JUMP JUMPDEST PUSH2 0xC2E JUMP JUMPDEST STOP JUMPDEST CALLVALUE DUP1 ISZERO PUSH2 0x2FD JUMPI PUSH1 0x0 DUP1 REVERT JUMPDEST POP PUSH2 0x306 PUSH2 0xE7E JUMP JUMPDEST PUSH1 0x40 MLOAD PUSH2 0x313 SWAP2 SWAP1 PUSH2 0x160B JUMP JUMPDEST PUSH1 0x40 MLOAD DUP1 SWAP2 SUB SWAP1 RETURN JUMPDEST CALLVALUE DUP1 ISZERO PUSH2 0x328 JUMPI PUSH1 0x0 DUP1 REVERT JUMPDEST POP PUSH2 0x343 PUSH1 0x4 DUP1 CALLDATASIZE SUB DUP2 ADD SWAP1 PUSH2 0x33E SWAP2 SWAP1 PUSH2 0x146D JUMP JUMPDEST PUSH2 0xE84 JUMP JUMPDEST STOP JUMPDEST CALLVALUE DUP1 ISZERO PUSH2 0x351 JUMPI PUSH1 0x0 DUP1 REVERT JUMPDEST POP PUSH2 0x36C PUSH1 0x4 DUP1 CALLDATASIZE SUB DUP2 ADD SWAP1 PUSH2 0x367 SWAP2 SWAP1 PUSH2 0x1800 JUMP JUMPDEST PUSH2 0x1137 JUMP JUMPDEST PUSH1 0x40 MLOAD PUSH2 0x379 SWAP2 SWAP1 PUSH2 0x1840 JUMP JUMPDEST PUSH1 0x40 MLOAD DUP1 SWAP2 SUB SWAP1 RETURN JUMPDEST CALLVALUE DUP1 ISZERO PUSH2 0x38E JUMPI PUSH1 0x0 DUP1 REVERT JUMPDEST POP PUSH2 0x3A9 PUSH1 0x4 DUP1 CALLDATASIZE SUB DUP2 ADD SWAP1 PUSH2 0x3A4 SWAP2 SWAP1 PUSH2 0x146D JUMP JUMPDEST PUSH2 0x1166 JUMP JUMPDEST STOP JUMPDEST CALLVALUE DUP1 ISZERO PUSH2 0x3B7 JUMPI PUSH1 0x0 DUP1 REVERT JUMPDEST POP PUSH2 0x3C0 PUSH2 0x1380 JUMP JUMPDEST PUSH1 0x40 MLOAD PUSH2 0x3CD SWAP2 SWAP1 PUSH2 0x160B JUMP JUMPDEST PUSH1 0x40 MLOAD DUP1 SWAP2 SUB SWAP1 RETURN JUMPDEST CALLVALUE DUP1 ISZERO PUSH2 0x3E2 JUMPI PUSH1 0x0 DUP1 REVERT JUMPDEST POP PUSH2 0x3EB PUSH2 0x1386 JUMP JUMPDEST PUSH1 0x40 MLOAD PUSH2 0x3F8 SWAP2 SWAP1 PUSH2 0x160B JUMP JUMPDEST PUSH1 0x40 MLOAD DUP1 SWAP2 SUB SWAP1 RETURN JUMPDEST PUSH1 0x4 PUSH1 0x20 MSTORE DUP1 PUSH1 0x0 MSTORE PUSH1 0x40 PUSH1 0x0 KECCAK256 PUSH1 0x0 SWAP2 POP SWAP1 POP DUP1 PUSH1 0x0 ADD SLOAD SWAP1 DUP1 PUSH1 0x1 ADD DUP1 SLOAD PUSH2 0x42A SWAP1 PUSH2 0x188A JUMP JUMPDEST DUP1 PUSH1 0x1F ADD PUSH1 0x20 DUP1 SWAP2 DIV MUL PUSH1 0x20 ADD PUSH1 0x40 MLOAD SWAP1 DUP2 ADD PUSH1 0x40 MSTORE DUP1 SWAP3 SWAP2 SWAP1 DUP2 DUP2 MSTORE PUSH1 0x20 ADD DUP3 DUP1 SLOAD PUSH2 0x456 SWAP1 PUSH2 0x188A JUMP JUMPDEST DUP1 ISZERO PUSH2 0x4A3 JUMPI DUP1 PUSH1 0x1F LT PUSH2 0x478 JUMPI PUSH2 0x100 DUP1 DUP4 SLOAD DIV MUL DUP4 MSTORE SWAP2 PUSH1 0x20 ADD SWAP2 PUSH2 0x4A3 JUMP JUMPDEST DUP3 ADD SWAP2 SWAP1 PUSH1 0x0 MSTORE PUSH1 0x20 PUSH1 0x0 KECCAK256 SWAP1 JUMPDEST DUP2 SLOAD DUP2 MSTORE SWAP1 PUSH1 0x1 ADD SWAP1 PUSH1 0x20 ADD DUP1 DUP4 GT PUSH2 0x486 JUMPI DUP3 SWAP1 SUB PUSH1 0x1F AND DUP3 ADD SWAP2 JUMPDEST POP POP POP POP POP SWAP1 DUP1 PUSH1 0x2 ADD SLOAD SWAP1 DUP1 PUSH1 0x3 ADD PUSH1 0x0 SWAP1 SLOAD SWAP1 PUSH2 0x100 EXP SWAP1 DIV PUSH20 0xFFFFFFFFFFFFFFFFFFFFFFFFFFFFFFFFFFFFFFFF AND SWAP1 DUP1 PUSH1 0x4 ADD SLOAD SWAP1 DUP1 PUSH1 0x5 ADD SLOAD SWAP1 DUP1 PUSH1 0x6 ADD PUSH1 0x0 SWAP1 SLOAD SWAP1 PUSH2 0x100 EXP SWAP1 DIV PUSH1 0xFF AND SWAP1 POP DUP8 JUMP JUMPDEST CALLER PUSH20 0xFFFFFFFFFFFFFFFFFFFFFFFFFFFFFFFFFFFFFFFF AND PUSH1 0xB PUSH1 0x0 SWAP1 SLOAD SWAP1 PUSH2 0x100 EXP SWAP1 DIV PUSH20 0xFFFFFFFFFFFFFFFFFFFFFFFFFFFFFFFFFFFFFFFF AND PUSH20 0xFFFFFFFFFFFFFFFFFFFFFFFFFFFFFFFFFFFFFFFF AND EQ PUSH2 0x588 JUMPI PUSH1 0x40 MLOAD PUSH32 0x8C379A000000000000000000000000000000000000000000000000000000000 DUP2 MSTORE PUSH1 0x4 ADD PUSH2 0x57F SWAP1 PUSH2 0x1907 JUMP JUMPDEST PUSH1 0x40 MLOAD DUP1 SWAP2 SUB SWAP1 REVERT JUMPDEST PUSH1 0x0 PUSH1 0x4 PUSH1 0x0 DUP4 DUP2 MSTORE PUSH1 0x20 ADD SWAP1 DUP2 MSTORE PUSH1 0x20 ADD PUSH1 0x0 KECCAK256 SWAP1 POP PUSH1 0x0 ISZERO ISZERO DUP2 PUSH1 0x6 ADD PUSH1 0x0 SWAP1 SLOAD SWAP1 PUSH2 0x100 EXP SWAP1 DIV PUSH1 0xFF AND ISZERO ISZERO EQ PUSH2 0x5F7 JUMPI PUSH1 0x40 MLOAD PUSH32 0x8C379A000000000000000000000000000000000000000000000000000000000 DUP2 MSTORE PUSH1 0x4 ADD PUSH2 0x5EE SWAP1 PUSH2 0x1999 JUMP JUMPDEST PUSH1 0x40 MLOAD DUP1 SWAP2 SUB SWAP1 REVERT JUMPDEST DUP1 PUSH1 0x5 ADD SLOAD TIMESTAMP LT ISZERO PUSH2 0x63E JUMPI PUSH1 0x40 MLOAD PUSH32 0x8C379A000000000000000000000000000000000000000000000000000000000 DUP2 MSTORE PUSH1 0x4 ADD PUSH2 0x635 SWAP1 PUSH2 0x1A2B JUMP JUMPDEST PUSH1 0x40 MLOAD DUP1 SWAP2 SUB SWAP1 REVERT JUMPDEST PUSH1 0x0 JUMPDEST PUSH1 0xA SLOAD DUP2 LT ISZERO PUSH2 0x6BB JUMPI PUSH1 0x4 PUSH1 0x0 DUP3 DUP2 MSTORE PUSH1 0x20 ADD SWAP1 DUP2 MSTORE PUSH1 0x20 ADD PUSH1 0x0 KECCAK256 PUSH1 0x4 ADD SLOAD DUP3 PUSH1 0x4 ADD SLOAD LT ISZERO PUSH2 0x6A8 JUMPI PUSH1 0x40 MLOAD PUSH32 0x8C379A000000000000000000000000000000000000000000000000000000000 DUP2 MSTORE PUSH1 0x4 ADD PUSH2 0x69F SWAP1 PUSH2 0x1ABD JUMP JUMPDEST PUSH1 0x40 MLOAD DUP1 SWAP2 SUB SWAP1 REVERT JUMPDEST DUP1 DUP1 PUSH2 0x6B3 SWAP1 PUSH2 0x1B0C JUMP JUMPDEST SWAP2 POP POP PUSH2 0x641 JUMP JUMPDEST POP POP POP JUMP JUMPDEST PUSH1 0x8 SLOAD DUP2 JUMP JUMPDEST PUSH1 0xA SLOAD DUP2 JUMP JUMPDEST PUSH1 0x3 DUP2 DUP2 SLOAD DUP2 LT PUSH2 0x6DC JUMPI PUSH1 0x0 DUP1 REVERT JUMPDEST SWAP1 PUSH1 0x0 MSTORE PUSH1 0x20 PUSH1 0x0 KECCAK256 ADD PUSH1 0x0 SWAP2 POP SLOAD SWAP1 PUSH2 0x100 EXP SWAP1 DIV PUSH20 0xFFFFFFFFFFFFFFFFFFFFFFFFFFFFFFFFFFFFFFFF AND DUP2 JUMP JUMPDEST PUSH1 0x1 ISZERO ISZERO PUSH1 0x0 DUP1 CALLER PUSH20 0xFFFFFFFFFFFFFFFFFFFFFFFFFFFFFFFFFFFFFFFF AND PUSH20 0xFFFFFFFFFFFFFFFFFFFFFFFFFFFFFFFFFFFFFFFF AND DUP2 MSTORE PUSH1 0x20 ADD SWAP1 DUP2 MSTORE PUSH1 0x20 ADD PUSH1 0x0 KECCAK256 PUSH1 0x0 SWAP1 SLOAD SWAP1 PUSH2 0x100 EXP SWAP1 DIV PUSH1 0xFF AND ISZERO ISZERO EQ PUSH2 0x79D JUMPI PUSH1 0x40 MLOAD PUSH32 0x8C379A000000000000000000000000000000000000000000000000000000000 DUP2 MSTORE PUSH1 0x4 ADD PUSH2 0x794 SWAP1 PUSH2 0x1907 JUMP JUMPDEST PUSH1 0x40 MLOAD DUP1 SWAP2 SUB SWAP1 REVERT JUMPDEST PUSH1 0x1 PUSH1 0x0 CALLER PUSH20 0xFFFFFFFFFFFFFFFFFFFFFFFFFFFFFFFFFFFFFFFF AND PUSH20 0xFFFFFFFFFFFFFFFFFFFFFFFFFFFFFFFFFFFFFFFF AND DUP2 MSTORE PUSH1 0x20 ADD SWAP1 DUP2 MSTORE PUSH1 0x20 ADD PUSH1 0x0 KECCAK256 SLOAD DUP3 GT ISZERO PUSH2 0x81F JUMPI PUSH1 0x40 MLOAD PUSH32 0x8C379A000000000000000000000000000000000000000000000000000000000 DUP2 MSTORE PUSH1 0x4 ADD PUSH2 0x816 SWAP1 PUSH2 0x1BA0 JUMP JUMPDEST PUSH1 0x40 MLOAD DUP1 SWAP2 SUB SWAP1 REVERT JUMPDEST DUP2 PUSH1 0x1 PUSH1 0x0 CALLER PUSH20 0xFFFFFFFFFFFFFFFFFFFFFFFFFFFFFFFFFFFFFFFF AND PUSH20 0xFFFFFFFFFFFFFFFFFFFFFFFFFFFFFFFFFFFFFFFF AND DUP2 MSTORE PUSH1 0x20 ADD SWAP1 DUP2 MSTORE PUSH1 0x20 ADD PUSH1 0x0 KECCAK256 PUSH1 0x0 DUP3 DUP3 SLOAD PUSH2 0x86E SWAP2 SWAP1 PUSH2 0x1BC0 JUMP JUMPDEST SWAP3 POP POP DUP2 SWAP1 SSTORE POP PUSH2 0x87D PUSH2 0x138C JUMP JUMPDEST DUP1 PUSH20 0xFFFFFFFFFFFFFFFFFFFFFFFFFFFFFFFFFFFFFFFF AND PUSH2 0x8FC DUP4 SWAP1 DUP2 ISZERO MUL SWAP1 PUSH1 0x40 MLOAD PUSH1 0x0 PUSH1 0x40 MLOAD DUP1 DUP4 SUB DUP2 DUP6 DUP9 DUP9 CALL SWAP4 POP POP POP POP ISZERO DUP1 ISZERO PUSH2 0x8C3 JUMPI RETURNDATASIZE PUSH1 0x0 DUP1 RETURNDATACOPY RETURNDATASIZE PUSH1 0x0 REVERT JUMPDEST POP PUSH1 0x1 ISZERO ISZERO PUSH1 0x0 DUP1 DUP4 PUSH20 0xFFFFFFFFFFFFFFFFFFFFFFFFFFFFFFFFFFFFFFFF AND PUSH20 0xFFFFFFFFFFFFFFFFFFFFFFFFFFFFFFFFFFFFFFFF AND DUP2 MSTORE PUSH1 0x20 ADD SWAP1 DUP2 MSTORE PUSH1 0x20 ADD PUSH1 0x0 KECCAK256 PUSH1 0x0 SWAP1 SLOAD SWAP1 PUSH2 0x100 EXP SWAP1 DIV PUSH1 0xFF AND ISZERO ISZERO EQ PUSH2 0x97F JUMPI PUSH1 0x3 DUP2 SWAP1 DUP1 PUSH1 0x1 DUP2 SLOAD ADD DUP1 DUP3 SSTORE DUP1 SWAP2 POP POP PUSH1 0x1 SWAP1 SUB SWAP1 PUSH1 0x0 MSTORE PUSH1 0x20 PUSH1 0x0 KECCAK256 ADD PUSH1 0x0 SWAP1 SWAP2 SWAP1 SWAP2 SWAP1 SWAP2 PUSH2 0x100 EXP DUP2 SLOAD DUP2 PUSH20 0xFFFFFFFFFFFFFFFFFFFFFFFFFFFFFFFFFFFFFFFF MUL NOT AND SWAP1 DUP4 PUSH20 0xFFFFFFFFFFFFFFFFFFFFFFFFFFFFFFFFFFFFFFFF AND MUL OR SWAP1 SSTORE POP JUMPDEST PUSH1 0x1 PUSH1 0x0 DUP1 DUP4 PUSH20 0xFFFFFFFFFFFFFFFFFFFFFFFFFFFFFFFFFFFFFFFF AND PUSH20 0xFFFFFFFFFFFFFFFFFFFFFFFFFFFFFFFFFFFFFFFF AND DUP2 MSTORE PUSH1 0x20 ADD SWAP1 DUP2 MSTORE PUSH1 0x20 ADD PUSH1 0x0 KECCAK256 PUSH1 0x0 PUSH2 0x100 EXP DUP2 SLOAD DUP2 PUSH1 0xFF MUL NOT AND SWAP1 DUP4 ISZERO ISZERO MUL OR SWAP1 SSTORE POP DUP2 PUSH1 0x1 PUSH1 0x0 DUP4 PUSH20 0xFFFFFFFFFFFFFFFFFFFFFFFFFFFFFFFFFFFFFFFF AND PUSH20 0xFFFFFFFFFFFFFFFFFFFFFFFFFFFFFFFFFFFFFFFF AND DUP2 MSTORE PUSH1 0x20 ADD SWAP1 DUP2 MSTORE PUSH1 0x20 ADD PUSH1 0x0 KECCAK256 PUSH1 0x0 DUP3 DUP3 SLOAD PUSH2 0xA25 SWAP2 SWAP1 PUSH2 0x1BF4 JUMP JUMPDEST SWAP3 POP POP DUP2 SWAP1 SSTORE POP POP POP JUMP JUMPDEST PUSH1 0x9 SLOAD DUP2 JUMP JUMPDEST PUSH1 0xB PUSH1 0x0 SWAP1 SLOAD SWAP1 PUSH2 0x100 EXP SWAP1 DIV PUSH20 0xFFFFFFFFFFFFFFFFFFFFFFFFFFFFFFFFFFFFFFFF AND DUP2 JUMP JUMPDEST PUSH1 0x6 SLOAD TIMESTAMP GT ISZERO PUSH2 0xAA1 JUMPI PUSH1 0x40 MLOAD PUSH32 0x8C379A000000000000000000000000000000000000000000000000000000000 DUP2 MSTORE PUSH1 0x4 ADD PUSH2 0xA98 SWAP1 PUSH2 0x1C74 JUMP JUMPDEST PUSH1 0x40 MLOAD DUP1 SWAP2 SUB SWAP1 REVERT JUMPDEST PUSH1 0x0 CALLVALUE GT PUSH2 0xAE4 JUMPI PUSH1 0x40 MLOAD PUSH32 0x8C379A000000000000000000000000000000000000000000000000000000000 DUP2 MSTORE PUSH1 0x4 ADD PUSH2 0xADB SWAP1 PUSH2 0x1CE0 JUMP JUMPDEST PUSH1 0x40 MLOAD DUP1 SWAP2 SUB SWAP1 REVERT JUMPDEST PUSH1 0x1 PUSH1 0x0 DUP1 CALLER PUSH20 0xFFFFFFFFFFFFFFFFFFFFFFFFFFFFFFFFFFFFFFFF AND PUSH20 0xFFFFFFFFFFFFFFFFFFFFFFFFFFFFFFFFFFFFFFFF AND DUP2 MSTORE PUSH1 0x20 ADD SWAP1 DUP2 MSTORE PUSH1 0x20 ADD PUSH1 0x0 KECCAK256 PUSH1 0x0 PUSH2 0x100 EXP DUP2 SLOAD DUP2 PUSH1 0xFF MUL NOT AND SWAP1 DUP4 ISZERO ISZERO MUL OR SWAP1 SSTORE POP PUSH1 0x3 CALLER SWAP1 DUP1 PUSH1 0x1 DUP2 SLOAD ADD DUP1 DUP3 SSTORE DUP1 SWAP2 POP POP PUSH1 0x1 SWAP1 SUB SWAP1 PUSH1 0x0 MSTORE PUSH1 0x20 PUSH1 0x0 KECCAK256 ADD PUSH1 0x0 SWAP1 SWAP2 SWAP1 SWAP2 SWAP1 SWAP2 PUSH2 0x100 EXP DUP2 SLOAD DUP2 PUSH20 0xFFFFFFFFFFFFFFFFFFFFFFFFFFFFFFFFFFFFFFFF MUL NOT AND SWAP1 DUP4 PUSH20 0xFFFFFFFFFFFFFFFFFFFFFFFFFFFFFFFFFFFFFFFF AND MUL OR SWAP1 SSTORE POP CALLVALUE PUSH1 0x1 PUSH1 0x0 CALLER PUSH20 0xFFFFFFFFFFFFFFFFFFFFFFFFFFFFFFFFFFFFFFFF AND PUSH20 0xFFFFFFFFFFFFFFFFFFFFFFFFFFFFFFFFFFFFFFFF AND DUP2 MSTORE PUSH1 0x20 ADD SWAP1 DUP2 MSTORE PUSH1 0x20 ADD PUSH1 0x0 KECCAK256 DUP2 SWAP1 SSTORE POP CALLVALUE PUSH1 0x5 PUSH1 0x0 DUP3 DUP3 SLOAD PUSH2 0xBF4 SWAP2 SWAP1 PUSH2 0x1BF4 JUMP JUMPDEST SWAP3 POP POP DUP2 SWAP1 SSTORE POP CALLVALUE PUSH1 0x9 PUSH1 0x0 DUP3 DUP3 SLOAD PUSH2 0xC0D SWAP2 SWAP1 PUSH2 0x1BF4 JUMP JUMPDEST SWAP3 POP POP DUP2 SWAP1 SSTORE POP JUMP JUMPDEST PUSH1 0x1 PUSH1 0x20 MSTORE DUP1 PUSH1 0x0 MSTORE PUSH1 0x40 PUSH1 0x0 KECCAK256 PUSH1 0x0 SWAP2 POP SWAP1 POP SLOAD DUP2 JUMP JUMPDEST CALLER PUSH20 0xFFFFFFFFFFFFFFFFFFFFFFFFFFFFFFFFFFFFFFFF AND PUSH1 0xB PUSH1 0x0 SWAP1 SLOAD SWAP1 PUSH2 0x100 EXP SWAP1 DIV PUSH20 0xFFFFFFFFFFFFFFFFFFFFFFFFFFFFFFFFFFFFFFFF AND PUSH20 0xFFFFFFFFFFFFFFFFFFFFFFFFFFFFFFFFFFFFFFFF AND EQ PUSH2 0xCBE JUMPI PUSH1 0x40 MLOAD PUSH32 0x8C379A000000000000000000000000000000000000000000000000000000000 DUP2 MSTORE PUSH1 0x4 ADD PUSH2 0xCB5 SWAP1 PUSH2 0x1907 JUMP JUMPDEST PUSH1 0x40 MLOAD DUP1 SWAP2 SUB SWAP1 REVERT JUMPDEST DUP2 PUSH1 0x9 SLOAD LT ISZERO PUSH2 0xD03 JUMPI PUSH1 0x40 MLOAD PUSH32 0x8C379A000000000000000000000000000000000000000000000000000000000 DUP2 MSTORE PUSH1 0x4 ADD PUSH2 0xCFA SWAP1 PUSH2 0x1D72 JUMP JUMPDEST PUSH1 0x40 MLOAD DUP1 SWAP2 SUB SWAP1 REVERT JUMPDEST PUSH1 0x40 MLOAD DUP1 PUSH1 0xE0 ADD PUSH1 0x40 MSTORE DUP1 PUSH1 0xA SLOAD DUP2 MSTORE PUSH1 0x20 ADD DUP6 DUP6 DUP1 DUP1 PUSH1 0x1F ADD PUSH1 0x20 DUP1 SWAP2 DIV MUL PUSH1 0x20 ADD PUSH1 0x40 MLOAD SWAP1 DUP2 ADD PUSH1 0x40 MSTORE DUP1 SWAP4 SWAP3 SWAP2 SWAP1 DUP2 DUP2 MSTORE PUSH1 0x20 ADD DUP4 DUP4 DUP1 DUP3 DUP5 CALLDATACOPY PUSH1 0x0 DUP2 DUP5 ADD MSTORE PUSH1 0x1F NOT PUSH1 0x1F DUP3 ADD AND SWAP1 POP DUP1 DUP4 ADD SWAP3 POP POP POP POP POP POP POP DUP2 MSTORE PUSH1 0x20 ADD DUP4 DUP2 MSTORE PUSH1 0x20 ADD DUP3 PUSH20 0xFFFFFFFFFFFFFFFFFFFFFFFFFFFFFFFFFFFFFFFF AND DUP2 MSTORE PUSH1 0x20 ADD PUSH1 0x0 DUP2 MSTORE PUSH1 0x20 ADD PUSH1 0x7 SLOAD TIMESTAMP PUSH2 0xD97 SWAP2 SWAP1 PUSH2 0x1BF4 JUMP JUMPDEST DUP2 MSTORE PUSH1 0x20 ADD PUSH1 0x0 ISZERO ISZERO DUP2 MSTORE POP PUSH1 0x4 PUSH1 0x0 PUSH1 0xA SLOAD DUP2 MSTORE PUSH1 0x20 ADD SWAP1 DUP2 MSTORE PUSH1 0x20 ADD PUSH1 0x0 KECCAK256 PUSH1 0x0 DUP3 ADD MLOAD DUP2 PUSH1 0x0 ADD SSTORE PUSH1 0x20 DUP3 ADD MLOAD DUP2 PUSH1 0x1 ADD SWAP1 DUP2 PUSH2 0xDD7 SWAP2 SWAP1 PUSH2 0x1F6D JUMP JUMPDEST POP PUSH1 0x40 DUP3 ADD MLOAD DUP2 PUSH1 0x2 ADD SSTORE PUSH1 0x60 DUP3 ADD MLOAD DUP2 PUSH1 0x3 ADD PUSH1 0x0 PUSH2 0x100 EXP DUP2 SLOAD DUP2 PUSH20 0xFFFFFFFFFFFFFFFFFFFFFFFFFFFFFFFFFFFFFFFF MUL NOT AND SWAP1 DUP4 PUSH20 0xFFFFFFFFFFFFFFFFFFFFFFFFFFFFFFFFFFFFFFFF AND MUL OR SWAP1 SSTORE POP PUSH1 0x80 DUP3 ADD MLOAD DUP2 PUSH1 0x4 ADD SSTORE PUSH1 0xA0 DUP3 ADD MLOAD DUP2 PUSH1 0x5 ADD SSTORE PUSH1 0xC0 DUP3 ADD MLOAD DUP2 PUSH1 0x6 ADD PUSH1 0x0 PUSH2 0x100 EXP DUP2 SLOAD DUP2 PUSH1 0xFF MUL NOT AND SWAP1 DUP4 ISZERO ISZERO MUL OR SWAP1 SSTORE POP SWAP1 POP POP PUSH1 0xA PUSH1 0x0 DUP2 SLOAD DUP1 SWAP3 SWAP2 SWAP1 PUSH2 0xE73 SWAP1 PUSH2 0x1B0C JUMP JUMPDEST SWAP2 SWAP1 POP SSTORE POP POP POP POP POP JUMP JUMPDEST PUSH1 0x5 SLOAD DUP2 JUMP JUMPDEST PUSH1 0x1 ISZERO ISZERO PUSH1 0x0 DUP1 CALLER PUSH20 0xFFFFFFFFFFFFFFFFFFFFFFFFFFFFFFFFFFFFFFFF AND PUSH20 0xFFFFFFFFFFFFFFFFFFFFFFFFFFFFFFFFFFFFFFFF AND DUP2 MSTORE PUSH1 0x20 ADD SWAP1 DUP2 MSTORE PUSH1 0x20 ADD PUSH1 0x0 KECCAK256 PUSH1 0x0 SWAP1 SLOAD SWAP1 PUSH2 0x100 EXP SWAP1 DIV PUSH1 0xFF AND ISZERO ISZERO EQ PUSH2 0xF16 JUMPI PUSH1 0x40 MLOAD PUSH32 0x8C379A000000000000000000000000000000000000000000000000000000000 DUP2 MSTORE PUSH1 0x4 ADD PUSH2 0xF0D SWAP1 PUSH2 0x1907 JUMP JUMPDEST PUSH1 0x40 MLOAD DUP1 SWAP2 SUB SWAP1 REVERT JUMPDEST PUSH1 0x0 PUSH1 0x4 PUSH1 0x0 DUP4 DUP2 MSTORE PUSH1 0x20 ADD SWAP1 DUP2 MSTORE PUSH1 0x20 ADD PUSH1 0x0 KECCAK256 SWAP1 POP DUP1 PUSH1 0x5 ADD SLOAD TIMESTAMP GT ISZERO PUSH2 0xF74 JUMPI PUSH1 0x40 MLOAD PUSH32 0x8C379A000000000000000000000000000000000000000000000000000000000 DUP2 MSTORE PUSH1 0x4 ADD PUSH2 0xF6B SWAP1 PUSH2 0x20B1 JUMP JUMPDEST PUSH1 0x40 MLOAD DUP1 SWAP2 SUB SWAP1 REVERT JUMPDEST PUSH1 0x0 ISZERO ISZERO PUSH1 0x2 PUSH1 0x0 CALLER PUSH20 0xFFFFFFFFFFFFFFFFFFFFFFFFFFFFFFFFFFFFFFFF AND PUSH20 0xFFFFFFFFFFFFFFFFFFFFFFFFFFFFFFFFFFFFFFFF AND DUP2 MSTORE PUSH1 0x20 ADD SWAP1 DUP2 MSTORE PUSH1 0x20 ADD PUSH1 0x0 KECCAK256 PUSH1 0x0 DUP5 DUP2 MSTORE PUSH1 0x20 ADD SWAP1 DUP2 MSTORE PUSH1 0x20 ADD PUSH1 0x0 KECCAK256 PUSH1 0x0 SWAP1 SLOAD SWAP1 PUSH2 0x100 EXP SWAP1 DIV PUSH1 0xFF AND ISZERO ISZERO EQ PUSH2 0x1018 JUMPI PUSH1 0x40 MLOAD PUSH32 0x8C379A000000000000000000000000000000000000000000000000000000000 DUP2 MSTORE PUSH1 0x4 ADD PUSH2 0x100F SWAP1 PUSH2 0x2143 JUMP JUMPDEST PUSH1 0x40 MLOAD DUP1 SWAP2 SUB SWAP1 REVERT JUMPDEST PUSH1 0x0 ISZERO ISZERO DUP2 PUSH1 0x6 ADD PUSH1 0x0 SWAP1 SLOAD SWAP1 PUSH2 0x100 EXP SWAP1 DIV PUSH1 0xFF AND ISZERO ISZERO EQ PUSH2 0x1070 JUMPI PUSH1 0x40 MLOAD PUSH32 0x8C379A000000000000000000000000000000000000000000000000000000000 DUP2 MSTORE PUSH1 0x4 ADD PUSH2 0x1067 SWAP1 PUSH2 0x1999 JUMP JUMPDEST PUSH1 0x40 MLOAD DUP1 SWAP2 SUB SWAP1 REVERT JUMPDEST PUSH1 0x1 PUSH1 0x2 PUSH1 0x0 CALLER PUSH20 0xFFFFFFFFFFFFFFFFFFFFFFFFFFFFFFFFFFFFFFFF AND PUSH20 0xFFFFFFFFFFFFFFFFFFFFFFFFFFFFFFFFFFFFFFFF AND DUP2 MSTORE PUSH1 0x20 ADD SWAP1 DUP2 MSTORE PUSH1 0x20 ADD PUSH1 0x0 KECCAK256 PUSH1 0x0 DUP5 DUP2 MSTORE PUSH1 0x20 ADD SWAP1 DUP2 MSTORE PUSH1 0x20 ADD PUSH1 0x0 KECCAK256 PUSH1 0x0 PUSH2 0x100 EXP DUP2 SLOAD DUP2 PUSH1 0xFF MUL NOT AND SWAP1 DUP4 ISZERO ISZERO MUL OR SWAP1 SSTORE POP PUSH1 0x1 PUSH1 0x0 CALLER PUSH20 0xFFFFFFFFFFFFFFFFFFFFFFFFFFFFFFFFFFFFFFFF AND PUSH20 0xFFFFFFFFFFFFFFFFFFFFFFFFFFFFFFFFFFFFFFFF AND DUP2 MSTORE PUSH1 0x20 ADD SWAP1 DUP2 MSTORE PUSH1 0x20 ADD PUSH1 0x0 KECCAK256 SLOAD DUP2 PUSH1 0x4 ADD PUSH1 0x0 DUP3 DUP3 SLOAD PUSH2 0x112C SWAP2 SWAP1 PUSH2 0x1BF4 JUMP JUMPDEST SWAP3 POP POP DUP2 SWAP1 SSTORE POP POP POP JUMP JUMPDEST PUSH1 0x2 PUSH1 0x20 MSTORE DUP2 PUSH1 0x0 MSTORE PUSH1 0x40 PUSH1 0x0 KECCAK256 PUSH1 0x20 MSTORE DUP1 PUSH1 0x0 MSTORE PUSH1 0x40 PUSH1 0x0 KECCAK256 PUSH1 0x0 SWAP2 POP SWAP2 POP SWAP1 SLOAD SWAP1 PUSH2 0x100 EXP SWAP1 DIV PUSH1 0xFF AND DUP2 JUMP JUMPDEST PUSH1 0x1 ISZERO ISZERO PUSH1 0x0 DUP1 CALLER PUSH20 0xFFFFFFFFFFFFFFFFFFFFFFFFFFFFFFFFFFFFFFFF AND PUSH20 0xFFFFFFFFFFFFFFFFFFFFFFFFFFFFFFFFFFFFFFFF AND DUP2 MSTORE PUSH1 0x20 ADD SWAP1 DUP2 MSTORE PUSH1 0x20 ADD PUSH1 0x0 KECCAK256 PUSH1 0x0 SWAP1 SLOAD SWAP1 PUSH2 0x100 EXP SWAP1 DIV PUSH1 0xFF AND ISZERO ISZERO EQ PUSH2 0x11F8 JUMPI PUSH1 0x40 MLOAD PUSH32 0x8C379A000000000000000000000000000000000000000000000000000000000 DUP2 MSTORE PUSH1 0x4 ADD PUSH2 0x11EF SWAP1 PUSH2 0x1907 JUMP JUMPDEST PUSH1 0x40 MLOAD DUP1 SWAP2 SUB SWAP1 REVERT JUMPDEST PUSH1 0x1 PUSH1 0x0 CALLER PUSH20 0xFFFFFFFFFFFFFFFFFFFFFFFFFFFFFFFFFFFFFFFF AND PUSH20 0xFFFFFFFFFFFFFFFFFFFFFFFFFFFFFFFFFFFFFFFF AND DUP2 MSTORE PUSH1 0x20 ADD SWAP1 DUP2 MSTORE PUSH1 0x20 ADD PUSH1 0x0 KECCAK256 SLOAD DUP2 GT ISZERO PUSH2 0x127A JUMPI PUSH1 0x40 MLOAD PUSH32 0x8C379A000000000000000000000000000000000000000000000000000000000 DUP2 MSTORE PUSH1 0x4 ADD PUSH2 0x1271 SWAP1 PUSH2 0x1BA0 JUMP JUMPDEST PUSH1 0x40 MLOAD DUP1 SWAP2 SUB SWAP1 REVERT JUMPDEST DUP1 PUSH1 0x9 SLOAD LT ISZERO PUSH2 0x12BF JUMPI PUSH1 0x40 MLOAD PUSH32 0x8C379A000000000000000000000000000000000000000000000000000000000 DUP2 MSTORE PUSH1 0x4 ADD PUSH2 0x12B6 SWAP1 PUSH2 0x21AF JUMP JUMPDEST PUSH1 0x40 MLOAD DUP1 SWAP2 SUB SWAP1 REVERT JUMPDEST DUP1 PUSH1 0x1 PUSH1 0x0 CALLER PUSH20 0xFFFFFFFFFFFFFFFFFFFFFFFFFFFFFFFFFFFFFFFF AND PUSH20 0xFFFFFFFFFFFFFFFFFFFFFFFFFFFFFFFFFFFFFFFF AND DUP2 MSTORE PUSH1 0x20 ADD SWAP1 DUP2 MSTORE PUSH1 0x20 ADD PUSH1 0x0 KECCAK256 PUSH1 0x0 DUP3 DUP3 SLOAD PUSH2 0x130E SWAP2 SWAP1 PUSH2 0x1BC0 JUMP JUMPDEST SWAP3 POP POP DUP2 SWAP1 SSTORE POP DUP1 PUSH1 0x9 PUSH1 0x0 DUP3 DUP3 SLOAD PUSH2 0x1327 SWAP2 SWAP1 PUSH2 0x1BC0 JUMP JUMPDEST SWAP3 POP POP DUP2 SWAP1 SSTORE POP PUSH2 0x1336 PUSH2 0x138C JUMP JUMPDEST CALLER PUSH20 0xFFFFFFFFFFFFFFFFFFFFFFFFFFFFFFFFFFFFFFFF AND PUSH2 0x8FC DUP3 SWAP1 DUP2 ISZERO MUL SWAP1 PUSH1 0x40 MLOAD PUSH1 0x0 PUSH1 0x40 MLOAD DUP1 DUP4 SUB DUP2 DUP6 DUP9 DUP9 CALL SWAP4 POP POP POP POP ISZERO DUP1 ISZERO PUSH2 0x137C JUMPI RETURNDATASIZE PUSH1 0x0 DUP1 RETURNDATACOPY RETURNDATASIZE PUSH1 0x0 REVERT JUMPDEST POP POP JUMP JUMPDEST PUSH1 0x6 SLOAD DUP2 JUMP JUMPDEST PUSH1 0x7 SLOAD DUP2 JUMP JUMPDEST PUSH1 0x0 PUSH1 0x1 PUSH1 0x0 CALLER PUSH20 0xFFFFFFFFFFFFFFFFFFFFFFFFFFFFFFFFFFFFFFFF AND PUSH20 0xFFFFFFFFFFFFFFFFFFFFFFFFFFFFFFFFFFFFFFFF AND DUP2 MSTORE PUSH1 0x20 ADD SWAP1 DUP2 MSTORE PUSH1 0x20 ADD PUSH1 0x0 KECCAK256 SLOAD SUB PUSH2 0x142B JUMPI PUSH1 0x0 DUP1 PUSH1 0x0 CALLER PUSH20 0xFFFFFFFFFFFFFFFFFFFFFFFFFFFFFFFFFFFFFFFF AND PUSH20 0xFFFFFFFFFFFFFFFFFFFFFFFFFFFFFFFFFFFFFFFF AND DUP2 MSTORE PUSH1 0x20 ADD SWAP1 DUP2 MSTORE PUSH1 0x20 ADD PUSH1 0x0 KECCAK256 PUSH1 0x0 PUSH2 0x100 EXP DUP2 SLOAD DUP2 PUSH1 0xFF MUL NOT AND SWAP1 DUP4 ISZERO ISZERO MUL OR SWAP1 SSTORE POP JUMPDEST JUMP JUMPDEST PUSH1 0x0 DUP1 REVERT JUMPDEST PUSH1 0x0 DUP1 REVERT JUMPDEST PUSH1 0x0 DUP2 SWAP1 POP SWAP2 SWAP1 POP JUMP JUMPDEST PUSH2 0x144A DUP2 PUSH2 0x1437 JUMP JUMPDEST DUP2 EQ PUSH2 0x1455 JUMPI PUSH1 0x0 DUP1 REVERT JUMPDEST POP JUMP JUMPDEST PUSH1 0x0 DUP2 CALLDATALOAD SWAP1 POP PUSH2 0x1467 DUP2 PUSH2 0x1441 JUMP JUMPDEST SWAP3 SWAP2 POP POP JUMP JUMPDEST PUSH1 0x0 PUSH1 0x20 DUP3 DUP5 SUB SLT ISZERO PUSH2 0x1483 JUMPI PUSH2 0x1482 PUSH2 0x142D JUMP JUMPDEST JUMPDEST PUSH1 0x0 PUSH2 0x1491 DUP5 DUP3 DUP6 ADD PUSH2 0x1458 JUMP JUMPDEST SWAP2 POP POP SWAP3 SWAP2 POP POP JUMP JUMPDEST PUSH2 0x14A3 DUP2 PUSH2 0x1437 JUMP JUMPDEST DUP3 MSTORE POP POP JUMP JUMPDEST PUSH1 0x0 DUP2 MLOAD SWAP1 POP SWAP2 SWAP1 POP JUMP JUMPDEST PUSH1 0x0 DUP3 DUP3 MSTORE PUSH1 0x20 DUP3 ADD SWAP1 POP SWAP3 SWAP2 POP POP JUMP JUMPDEST PUSH1 0x0 JUMPDEST DUP4 DUP2 LT ISZERO PUSH2 0x14E3 JUMPI DUP1 DUP3 ADD MLOAD DUP2 DUP5 ADD MSTORE PUSH1 0x20 DUP2 ADD SWAP1 POP PUSH2 0x14C8 JUMP JUMPDEST PUSH1 0x0 DUP5 DUP5 ADD MSTORE POP POP POP POP JUMP JUMPDEST PUSH1 0x0 PUSH1 0x1F NOT PUSH1 0x1F DUP4 ADD AND SWAP1 POP SWAP2 SWAP1 POP JUMP JUMPDEST PUSH1 0x0 PUSH2 0x150B DUP3 PUSH2 0x14A9 JUMP JUMPDEST PUSH2 0x1515 DUP2 DUP6 PUSH2 0x14B4 JUMP JUMPDEST SWAP4 POP PUSH2 0x1525 DUP2 DUP6 PUSH1 0x20 DUP7 ADD PUSH2 0x14C5 JUMP JUMPDEST PUSH2 0x152E DUP2 PUSH2 0x14EF JUMP JUMPDEST DUP5 ADD SWAP2 POP POP SWAP3 SWAP2 POP POP JUMP JUMPDEST PUSH1 0x0 PUSH20 0xFFFFFFFFFFFFFFFFFFFFFFFFFFFFFFFFFFFFFFFF DUP3 AND SWAP1 POP SWAP2 SWAP1 POP JUMP JUMPDEST PUSH1 0x0 PUSH2 0x1564 DUP3 PUSH2 0x1539 JUMP JUMPDEST SWAP1 POP SWAP2 SWAP1 POP JUMP JUMPDEST PUSH2 0x1574 DUP2 PUSH2 0x1559 JUMP JUMPDEST DUP3 MSTORE POP POP JUMP JUMPDEST PUSH1 0x0 DUP2 ISZERO ISZERO SWAP1 POP SWAP2 SWAP1 POP JUMP JUMPDEST PUSH2 0x158F DUP2 PUSH2 0x157A JUMP JUMPDEST DUP3 MSTORE POP POP JUMP JUMPDEST PUSH1 0x0 PUSH1 0xE0 DUP3 ADD SWAP1 POP PUSH2 0x15AA PUSH1 0x0 DUP4 ADD DUP11 PUSH2 0x149A JUMP JUMPDEST DUP2 DUP2 SUB PUSH1 0x20 DUP4 ADD MSTORE PUSH2 0x15BC DUP2 DUP10 PUSH2 0x1500 JUMP JUMPDEST SWAP1 POP PUSH2 0x15CB PUSH1 0x40 DUP4 ADD DUP9 PUSH2 0x149A JUMP JUMPDEST PUSH2 0x15D8 PUSH1 0x60 DUP4 ADD DUP8 PUSH2 0x156B JUMP JUMPDEST PUSH2 0x15E5 PUSH1 0x80 DUP4 ADD DUP7 PUSH2 0x149A JUMP JUMPDEST PUSH2 0x15F2 PUSH1 0xA0 DUP4 ADD DUP6 PUSH2 0x149A JUMP JUMPDEST PUSH2 0x15FF PUSH1 0xC0 DUP4 ADD DUP5 PUSH2 0x1586 JUMP JUMPDEST SWAP9 SWAP8 POP POP POP POP POP POP POP POP JUMP JUMPDEST PUSH1 0x0 PUSH1 0x20 DUP3 ADD SWAP1 POP PUSH2 0x1620 PUSH1 0x0 DUP4 ADD DUP5 PUSH2 0x149A JUMP JUMPDEST SWAP3 SWAP2 POP POP JUMP JUMPDEST PUSH1 0x0 PUSH2 0x1631 DUP3 PUSH2 0x1539 JUMP JUMPDEST SWAP1 POP SWAP2 SWAP1 POP JUMP JUMPDEST PUSH2 0x1641 DUP2 PUSH2 0x1626 JUMP JUMPDEST DUP3 MSTORE POP POP JUMP JUMPDEST PUSH1 0x0 PUSH1 0x20 DUP3 ADD SWAP1 POP PUSH2 0x165C PUSH1 0x0 DUP4 ADD DUP5 PUSH2 0x1638 JUMP JUMPDEST SWAP3 SWAP2 POP POP JUMP JUMPDEST PUSH2 0x166B DUP2 PUSH2 0x1626 JUMP JUMPDEST DUP2 EQ PUSH2 0x1676 JUMPI PUSH1 0x0 DUP1 REVERT JUMPDEST POP JUMP JUMPDEST PUSH1 0x0 DUP2 CALLDATALOAD SWAP1 POP PUSH2 0x1688 DUP2 PUSH2 0x1662 JUMP JUMPDEST SWAP3 SWAP2 POP POP JUMP JUMPDEST PUSH1 0x0 DUP1 PUSH1 0x40 DUP4 DUP6 SUB SLT ISZERO PUSH2 0x16A5 JUMPI PUSH2 0x16A4 PUSH2 0x142D JUMP JUMPDEST JUMPDEST PUSH1 0x0 PUSH2 0x16B3 DUP6 DUP3 DUP7 ADD PUSH2 0x1458 JUMP JUMPDEST SWAP3 POP POP PUSH1 0x20 PUSH2 0x16C4 DUP6 DUP3 DUP7 ADD PUSH2 0x1679 JUMP JUMPDEST SWAP2 POP POP SWAP3 POP SWAP3 SWAP1 POP JUMP JUMPDEST PUSH1 0x0 PUSH1 0x20 DUP3 DUP5 SUB SLT ISZERO PUSH2 0x16E4 JUMPI PUSH2 0x16E3 PUSH2 0x142D JUMP JUMPDEST JUMPDEST PUSH1 0x0 PUSH2 0x16F2 DUP5 DUP3 DUP6 ADD PUSH2 0x1679 JUMP JUMPDEST SWAP2 POP POP SWAP3 SWAP2 POP POP JUMP JUMPDEST PUSH1 0x0 DUP1 REVERT JUMPDEST PUSH1 0x0 DUP1 REVERT JUMPDEST PUSH1 0x0 DUP1 REVERT JUMPDEST PUSH1 0x0 DUP1 DUP4 PUSH1 0x1F DUP5 ADD SLT PUSH2 0x1720 JUMPI PUSH2 0x171F PUSH2 0x16FB JUMP JUMPDEST JUMPDEST DUP3 CALLDATALOAD SWAP1 POP PUSH8 0xFFFFFFFFFFFFFFFF DUP2 GT ISZERO PUSH2 0x173D JUMPI PUSH2 0x173C PUSH2 0x1700 JUMP JUMPDEST JUMPDEST PUSH1 0x20 DUP4 ADD SWAP2 POP DUP4 PUSH1 0x1 DUP3 MUL DUP4 ADD GT ISZERO PUSH2 0x1759 JUMPI PUSH2 0x1758 PUSH2 0x1705 JUMP JUMPDEST JUMPDEST SWAP3 POP SWAP3 SWAP1 POP JUMP JUMPDEST PUSH2 0x1769 DUP2 PUSH2 0x1559 JUMP JUMPDEST DUP2 EQ PUSH2 0x1774 JUMPI PUSH1 0x0 DUP1 REVERT JUMPDEST POP JUMP JUMPDEST PUSH1 0x0 DUP2 CALLDATALOAD SWAP1 POP PUSH2 0x1786 DUP2 PUSH2 0x1760 JUMP JUMPDEST SWAP3 SWAP2 POP POP JUMP JUMPDEST PUSH1 0x0 DUP1 PUSH1 0x0 DUP1 PUSH1 0x60 DUP6 DUP8 SUB SLT ISZERO PUSH2 0x17A6 JUMPI PUSH2 0x17A5 PUSH2 0x142D JUMP JUMPDEST JUMPDEST PUSH1 0x0 DUP6 ADD CALLDATALOAD PUSH8 0xFFFFFFFFFFFFFFFF DUP2 GT ISZERO PUSH2 0x17C4 JUMPI PUSH2 0x17C3 PUSH2 0x1432 JUMP JUMPDEST JUMPDEST PUSH2 0x17D0 DUP8 DUP3 DUP9 ADD PUSH2 0x170A JUMP JUMPDEST SWAP5 POP SWAP5 POP POP PUSH1 0x20 PUSH2 0x17E3 DUP8 DUP3 DUP9 ADD PUSH2 0x1458 JUMP JUMPDEST SWAP3 POP POP PUSH1 0x40 PUSH2 0x17F4 DUP8 DUP3 DUP9 ADD PUSH2 0x1777 JUMP JUMPDEST SWAP2 POP POP SWAP3 SWAP6 SWAP2 SWAP5 POP SWAP3 POP JUMP JUMPDEST PUSH1 0x0 DUP1 PUSH1 0x40 DUP4 DUP6 SUB SLT ISZERO PUSH2 0x1817 JUMPI PUSH2 0x1816 PUSH2 0x142D JUMP JUMPDEST JUMPDEST PUSH1 0x0 PUSH2 0x1825 DUP6 DUP3 DUP7 ADD PUSH2 0x1679 JUMP JUMPDEST SWAP3 POP POP PUSH1 0x20 PUSH2 0x1836 DUP6 DUP3 DUP7 ADD PUSH2 0x1458 JUMP JUMPDEST SWAP2 POP POP SWAP3 POP SWAP3 SWAP1 POP JUMP JUMPDEST PUSH1 0x0 PUSH1 0x20 DUP3 ADD SWAP1 POP PUSH2 0x1855 PUSH1 0x0 DUP4 ADD DUP5 PUSH2 0x1586 JUMP JUMPDEST SWAP3 SWAP2 POP POP JUMP JUMPDEST PUSH32 0x4E487B7100000000000000000000000000000000000000000000000000000000 PUSH1 0x0 MSTORE PUSH1 0x22 PUSH1 0x4 MSTORE PUSH1 0x24 PUSH1 0x0 REVERT JUMPDEST PUSH1 0x0 PUSH1 0x2 DUP3 DIV SWAP1 POP PUSH1 0x1 DUP3 AND DUP1 PUSH2 0x18A2 JUMPI PUSH1 0x7F DUP3 AND SWAP2 POP JUMPDEST PUSH1 0x20 DUP3 LT DUP2 SUB PUSH2 0x18B5 JUMPI PUSH2 0x18B4 PUSH2 0x185B JUMP JUMPDEST JUMPDEST POP SWAP2 SWAP1 POP JUMP JUMPDEST PUSH32 0x596F7520617265206E6F7420616E20696E766573746F72000000000000000000 PUSH1 0x0 DUP3 ADD MSTORE POP JUMP JUMPDEST PUSH1 0x0 PUSH2 0x18F1 PUSH1 0x17 DUP4 PUSH2 0x14B4 JUMP JUMPDEST SWAP2 POP PUSH2 0x18FC DUP3 PUSH2 0x18BB JUMP JUMPDEST PUSH1 0x20 DUP3 ADD SWAP1 POP SWAP2 SWAP1 POP JUMP JUMPDEST PUSH1 0x0 PUSH1 0x20 DUP3 ADD SWAP1 POP DUP2 DUP2 SUB PUSH1 0x0 DUP4 ADD MSTORE PUSH2 0x1920 DUP2 PUSH2 0x18E4 JUMP JUMPDEST SWAP1 POP SWAP2 SWAP1 POP JUMP JUMPDEST PUSH32 0x546869732050726F706F73616C2068617320616C7265616479206265656E2065 PUSH1 0x0 DUP3 ADD MSTORE PUSH32 0x7865637574656400000000000000000000000000000000000000000000000000 PUSH1 0x20 DUP3 ADD MSTORE POP JUMP JUMPDEST PUSH1 0x0 PUSH2 0x1983 PUSH1 0x27 DUP4 PUSH2 0x14B4 JUMP JUMPDEST SWAP2 POP PUSH2 0x198E DUP3 PUSH2 0x1927 JUMP JUMPDEST PUSH1 0x40 DUP3 ADD SWAP1 POP SWAP2 SWAP1 POP JUMP JUMPDEST PUSH1 0x0 PUSH1 0x20 DUP3 ADD SWAP1 POP DUP2 DUP2 SUB PUSH1 0x0 DUP4 ADD MSTORE PUSH2 0x19B2 DUP2 PUSH2 0x1976 JUMP JUMPDEST SWAP1 POP SWAP2 SWAP1 POP JUMP JUMPDEST PUSH32 0x566F74696E672074696D6520666F7220746869732050726F706F73616C206861 PUSH1 0x0 DUP3 ADD MSTORE PUSH32 0x736E277420656E64656420796574000000000000000000000000000000000000 PUSH1 0x20 DUP3 ADD MSTORE POP JUMP JUMPDEST PUSH1 0x0 PUSH2 0x1A15 PUSH1 0x2E DUP4 PUSH2 0x14B4 JUMP JUMPDEST SWAP2 POP PUSH2 0x1A20 DUP3 PUSH2 0x19B9 JUMP JUMPDEST PUSH1 0x40 DUP3 ADD SWAP1 POP SWAP2 SWAP1 POP JUMP JUMPDEST PUSH1 0x0 PUSH1 0x20 DUP3 ADD SWAP1 POP DUP2 DUP2 SUB PUSH1 0x0 DUP4 ADD MSTORE PUSH2 0x1A44 DUP2 PUSH2 0x1A08 JUMP JUMPDEST SWAP1 POP SWAP2 SWAP1 POP JUMP JUMPDEST PUSH32 0x546869732050726F706F73616C206973206E6F74207468652068696768657374 PUSH1 0x0 DUP3 ADD MSTORE PUSH32 0x20766F7465640000000000000000000000000000000000000000000000000000 PUSH1 0x20 DUP3 ADD MSTORE POP JUMP JUMPDEST PUSH1 0x0 PUSH2 0x1AA7 PUSH1 0x26 DUP4 PUSH2 0x14B4 JUMP JUMPDEST SWAP2 POP PUSH2 0x1AB2 DUP3 PUSH2 0x1A4B JUMP JUMPDEST PUSH1 0x40 DUP3 ADD SWAP1 POP SWAP2 SWAP1 POP JUMP JUMPDEST PUSH1 0x0 PUSH1 0x20 DUP3 ADD SWAP1 POP DUP2 DUP2 SUB PUSH1 0x0 DUP4 ADD MSTORE PUSH2 0x1AD6 DUP2 PUSH2 0x1A9A JUMP JUMPDEST SWAP1 POP SWAP2 SWAP1 POP JUMP JUMPDEST PUSH32 0x4E487B7100000000000000000000000000000000000000000000000000000000 PUSH1 0x0 MSTORE PUSH1 0x11 PUSH1 0x4 MSTORE PUSH1 0x24 PUSH1 0x0 REVERT JUMPDEST PUSH1 0x0 PUSH2 0x1B17 DUP3 PUSH2 0x1437 JUMP JUMPDEST SWAP2 POP PUSH32 0xFFFFFFFFFFFFFFFFFFFFFFFFFFFFFFFFFFFFFFFFFFFFFFFFFFFFFFFFFFFFFFFF DUP3 SUB PUSH2 0x1B49 JUMPI PUSH2 0x1B48 PUSH2 0x1ADD JUMP JUMPDEST JUMPDEST PUSH1 0x1 DUP3 ADD SWAP1 POP SWAP2 SWAP1 POP JUMP JUMPDEST PUSH32 0x596F7520646F6E2774206861766520656E6F75676820746F6B656E7300000000 PUSH1 0x0 DUP3 ADD MSTORE POP JUMP JUMPDEST PUSH1 0x0 PUSH2 0x1B8A PUSH1 0x1C DUP4 PUSH2 0x14B4 JUMP JUMPDEST SWAP2 POP PUSH2 0x1B95 DUP3 PUSH2 0x1B54 JUMP JUMPDEST PUSH1 0x20 DUP3 ADD SWAP1 POP SWAP2 SWAP1 POP JUMP JUMPDEST PUSH1 0x0 PUSH1 0x20 DUP3 ADD SWAP1 POP DUP2 DUP2 SUB PUSH1 0x0 DUP4 ADD MSTORE PUSH2 0x1BB9 DUP2 PUSH2 0x1B7D JUMP JUMPDEST SWAP1 POP SWAP2 SWAP1 POP JUMP JUMPDEST PUSH1 0x0 PUSH2 0x1BCB DUP3 PUSH2 0x1437 JUMP JUMPDEST SWAP2 POP PUSH2 0x1BD6 DUP4 PUSH2 0x1437 JUMP JUMPDEST SWAP3 POP DUP3 DUP3 SUB SWAP1 POP DUP2 DUP2 GT ISZERO PUSH2 0x1BEE JUMPI PUSH2 0x1BED PUSH2 0x1ADD JUMP JUMPDEST JUMPDEST SWAP3 SWAP2 POP POP JUMP JUMPDEST PUSH1 0x0 PUSH2 0x1BFF DUP3 PUSH2 0x1437 JUMP JUMPDEST SWAP2 POP PUSH2 0x1C0A DUP4 PUSH2 0x1437 JUMP JUMPDEST SWAP3 POP DUP3 DUP3 ADD SWAP1 POP DUP1 DUP3 GT ISZERO PUSH2 0x1C22 JUMPI PUSH2 0x1C21 PUSH2 0x1ADD JUMP JUMPDEST JUMPDEST SWAP3 SWAP2 POP POP JUMP JUMPDEST PUSH32 0x436F6E747269627574696F6E2054696D6520456E646564000000000000000000 PUSH1 0x0 DUP3 ADD MSTORE POP JUMP JUMPDEST PUSH1 0x0 PUSH2 0x1C5E PUSH1 0x17 DUP4 PUSH2 0x14B4 JUMP JUMPDEST SWAP2 POP PUSH2 0x1C69 DUP3 PUSH2 0x1C28 JUMP JUMPDEST PUSH1 0x20 DUP3 ADD SWAP1 POP SWAP2 SWAP1 POP JUMP JUMPDEST PUSH1 0x0 PUSH1 0x20 DUP3 ADD SWAP1 POP DUP2 DUP2 SUB PUSH1 0x0 DUP4 ADD MSTORE PUSH2 0x1C8D DUP2 PUSH2 0x1C51 JUMP JUMPDEST SWAP1 POP SWAP2 SWAP1 POP JUMP JUMPDEST PUSH32 0x53656E64206D6F7265207468616E203020657468657273000000000000000000 PUSH1 0x0 DUP3 ADD MSTORE POP JUMP JUMPDEST PUSH1 0x0 PUSH2 0x1CCA PUSH1 0x17 DUP4 PUSH2 0x14B4 JUMP JUMPDEST SWAP2 POP PUSH2 0x1CD5 DUP3 PUSH2 0x1C94 JUMP JUMPDEST PUSH1 0x20 DUP3 ADD SWAP1 POP SWAP2 SWAP1 POP JUMP JUMPDEST PUSH1 0x0 PUSH1 0x20 DUP3 ADD SWAP1 POP DUP2 DUP2 SUB PUSH1 0x0 DUP4 ADD MSTORE PUSH2 0x1CF9 DUP2 PUSH2 0x1CBD JUMP JUMPDEST SWAP1 POP SWAP2 SWAP1 POP JUMP JUMPDEST PUSH32 0x4E6F742073756666696369656E742066756E647320746F206D6174636820796F PUSH1 0x0 DUP3 ADD MSTORE PUSH32 0x757220616D6F756E740000000000000000000000000000000000000000000000 PUSH1 0x20 DUP3 ADD MSTORE POP JUMP JUMPDEST PUSH1 0x0 PUSH2 0x1D5C PUSH1 0x29 DUP4 PUSH2 0x14B4 JUMP JUMPDEST SWAP2 POP PUSH2 0x1D67 DUP3 PUSH2 0x1D00 JUMP JUMPDEST PUSH1 0x40 DUP3 ADD SWAP1 POP SWAP2 SWAP1 POP JUMP JUMPDEST PUSH1 0x0 PUSH1 0x20 DUP3 ADD SWAP1 POP DUP2 DUP2 SUB PUSH1 0x0 DUP4 ADD MSTORE PUSH2 0x1D8B DUP2 PUSH2 0x1D4F JUMP JUMPDEST SWAP1 POP SWAP2 SWAP1 POP JUMP JUMPDEST PUSH32 0x4E487B7100000000000000000000000000000000000000000000000000000000 PUSH1 0x0 MSTORE PUSH1 0x41 PUSH1 0x4 MSTORE PUSH1 0x24 PUSH1 0x0 REVERT JUMPDEST PUSH1 0x0 DUP2 SWAP1 POP DUP2 PUSH1 0x0 MSTORE PUSH1 0x20 PUSH1 0x0 KECCAK256 SWAP1 POP SWAP2 SWAP1 POP JUMP JUMPDEST PUSH1 0x0 PUSH1 0x20 PUSH1 0x1F DUP4 ADD DIV SWAP1 POP SWAP2 SWAP1 POP JUMP JUMPDEST PUSH1 0x0 DUP3 DUP3 SHL SWAP1 POP SWAP3 SWAP2 POP POP JUMP JUMPDEST PUSH1 0x0 PUSH1 0x8 DUP4 MUL PUSH2 0x1E23 PUSH32 0xFFFFFFFFFFFFFFFFFFFFFFFFFFFFFFFFFFFFFFFFFFFFFFFFFFFFFFFFFFFFFFFF DUP3 PUSH2 0x1DE6 JUMP JUMPDEST PUSH2 0x1E2D DUP7 DUP4 PUSH2 0x1DE6 JUMP JUMPDEST SWAP6 POP DUP1 NOT DUP5 AND SWAP4 POP DUP1 DUP7 AND DUP5 OR SWAP3 POP POP POP SWAP4 SWAP3 POP POP POP JUMP JUMPDEST PUSH1 0x0 DUP2 SWAP1 POP SWAP2 SWAP1 POP JUMP JUMPDEST PUSH1 0x0 PUSH2 0x1E6A PUSH2 0x1E65 PUSH2 0x1E60 DUP5 PUSH2 0x1437 JUMP JUMPDEST PUSH2 0x1E45 JUMP JUMPDEST PUSH2 0x1437 JUMP JUMPDEST SWAP1 POP SWAP2 SWAP1 POP JUMP JUMPDEST PUSH1 0x0 DUP2 SWAP1 POP SWAP2 SWAP1 POP JUMP JUMPDEST PUSH2 0x1E84 DUP4 PUSH2 0x1E4F JUMP JUMPDEST PUSH2 0x1E98 PUSH2 0x1E90 DUP3 PUSH2 0x1E71 JUMP JUMPDEST DUP5 DUP5 SLOAD PUSH2 0x1DF3 JUMP JUMPDEST DUP3 SSTORE POP POP POP POP JUMP JUMPDEST PUSH1 0x0 SWAP1 JUMP JUMPDEST PUSH2 0x1EAD PUSH2 0x1EA0 JUMP JUMPDEST PUSH2 0x1EB8 DUP2 DUP5 DUP5 PUSH2 0x1E7B JUMP JUMPDEST POP POP POP JUMP JUMPDEST JUMPDEST DUP2 DUP2 LT ISZERO PUSH2 0x1EDC JUMPI PUSH2 0x1ED1 PUSH1 0x0 DUP3 PUSH2 0x1EA5 JUMP JUMPDEST PUSH1 0x1 DUP2 ADD SWAP1 POP PUSH2 0x1EBE JUMP JUMPDEST POP POP JUMP JUMPDEST PUSH1 0x1F DUP3 GT ISZERO PUSH2 0x1F21 JUMPI PUSH2 0x1EF2 DUP2 PUSH2 0x1DC1 JUMP JUMPDEST PUSH2 0x1EFB DUP5 PUSH2 0x1DD6 JUMP JUMPDEST DUP2 ADD PUSH1 0x20 DUP6 LT ISZERO PUSH2 0x1F0A JUMPI DUP2 SWAP1 POP JUMPDEST PUSH2 0x1F1E PUSH2 0x1F16 DUP6 PUSH2 0x1DD6 JUMP JUMPDEST DUP4 ADD DUP3 PUSH2 0x1EBD JUMP JUMPDEST POP POP JUMPDEST POP POP POP JUMP JUMPDEST PUSH1 0x0 DUP3 DUP3 SHR SWAP1 POP SWAP3 SWAP2 POP POP JUMP JUMPDEST PUSH1 0x0 PUSH2 0x1F44 PUSH1 0x0 NOT DUP5 PUSH1 0x8 MUL PUSH2 0x1F26 JUMP JUMPDEST NOT DUP1 DUP4 AND SWAP2 POP POP SWAP3 SWAP2 POP POP JUMP JUMPDEST PUSH1 0x0 PUSH2 0x1F5D DUP4 DUP4 PUSH2 0x1F33 JUMP JUMPDEST SWAP2 POP DUP3 PUSH1 0x2 MUL DUP3 OR SWAP1 POP SWAP3 SWAP2 POP POP JUMP JUMPDEST PUSH2 0x1F76 DUP3 PUSH2 0x14A9 JUMP JUMPDEST PUSH8 0xFFFFFFFFFFFFFFFF DUP2 GT ISZERO PUSH2 0x1F8F JUMPI PUSH2 0x1F8E PUSH2 0x1D92 JUMP JUMPDEST JUMPDEST PUSH2 0x1F99 DUP3 SLOAD PUSH2 0x188A JUMP JUMPDEST PUSH2 0x1FA4 DUP3 DUP3 DUP6 PUSH2 0x1EE0 JUMP JUMPDEST PUSH1 0x0 PUSH1 0x20 SWAP1 POP PUSH1 0x1F DUP4 GT PUSH1 0x1 DUP2 EQ PUSH2 0x1FD7 JUMPI PUSH1 0x0 DUP5 ISZERO PUSH2 0x1FC5 JUMPI DUP3 DUP8 ADD MLOAD SWAP1 POP JUMPDEST PUSH2 0x1FCF DUP6 DUP3 PUSH2 0x1F51 JUMP JUMPDEST DUP7 SSTORE POP PUSH2 0x2037 JUMP JUMPDEST PUSH1 0x1F NOT DUP5 AND PUSH2 0x1FE5 DUP7 PUSH2 0x1DC1 JUMP JUMPDEST PUSH1 0x0 JUMPDEST DUP3 DUP2 LT ISZERO PUSH2 0x200D JUMPI DUP5 DUP10 ADD MLOAD DUP3 SSTORE PUSH1 0x1 DUP3 ADD SWAP2 POP PUSH1 0x20 DUP6 ADD SWAP5 POP PUSH1 0x20 DUP2 ADD SWAP1 POP PUSH2 0x1FE8 JUMP JUMPDEST DUP7 DUP4 LT ISZERO PUSH2 0x202A JUMPI DUP5 DUP10 ADD MLOAD PUSH2 0x2026 PUSH1 0x1F DUP10 AND DUP3 PUSH2 0x1F33 JUMP JUMPDEST DUP4 SSTORE POP JUMPDEST PUSH1 0x1 PUSH1 0x2 DUP9 MUL ADD DUP9 SSTORE POP POP POP JUMPDEST POP POP POP POP POP POP JUMP JUMPDEST PUSH32 0x566F74696E6720686173206265656E20636C6F73656420666F72207468697320 PUSH1 0x0 DUP3 ADD MSTORE PUSH32 0x50726F706F73616C000000000000000000000000000000000000000000000000 PUSH1 0x20 DUP3 ADD MSTORE POP JUMP JUMPDEST PUSH1 0x0 PUSH2 0x209B PUSH1 0x28 DUP4 PUSH2 0x14B4 JUMP JUMPDEST SWAP2 POP PUSH2 0x20A6 DUP3 PUSH2 0x203F JUMP JUMPDEST PUSH1 0x40 DUP3 ADD SWAP1 POP SWAP2 SWAP1 POP JUMP JUMPDEST PUSH1 0x0 PUSH1 0x20 DUP3 ADD SWAP1 POP DUP2 DUP2 SUB PUSH1 0x0 DUP4 ADD MSTORE PUSH2 0x20CA DUP2 PUSH2 0x208E JUMP JUMPDEST SWAP1 POP SWAP2 SWAP1 POP JUMP JUMPDEST PUSH32 0x596F75206861766520616C726561647920766F746564206F6E20746869732050 PUSH1 0x0 DUP3 ADD MSTORE PUSH32 0x726F706F73616C00000000000000000000000000000000000000000000000000 PUSH1 0x20 DUP3 ADD MSTORE POP JUMP JUMPDEST PUSH1 0x0 PUSH2 0x212D PUSH1 0x27 DUP4 PUSH2 0x14B4 JUMP JUMPDEST SWAP2 POP PUSH2 0x2138 DUP3 PUSH2 0x20D1 JUMP JUMPDEST PUSH1 0x40 DUP3 ADD SWAP1 POP SWAP2 SWAP1 POP JUMP JUMPDEST PUSH1 0x0 PUSH1 0x20 DUP3 ADD SWAP1 POP DUP2 DUP2 SUB PUSH1 0x0 DUP4 ADD MSTORE PUSH2 0x215C DUP2 PUSH2 0x2120 JUMP JUMPDEST SWAP1 POP SWAP2 SWAP1 POP JUMP JUMPDEST PUSH32 0x4E6F7420656E6F7567682066756E647320617661696C61626C65000000000000 PUSH1 0x0 DUP3 ADD MSTORE POP JUMP JUMPDEST PUSH1 0x0 PUSH2 0x2199 PUSH1 0x1A DUP4 PUSH2 0x14B4 JUMP JUMPDEST SWAP2 POP PUSH2 0x21A4 DUP3 PUSH2 0x2163 JUMP JUMPDEST PUSH1 0x20 DUP3 ADD SWAP1 POP SWAP2 SWAP1 POP JUMP JUMPDEST PUSH1 0x0 PUSH1 0x20 DUP3 ADD SWAP1 POP DUP2 DUP2 SUB PUSH1 0x0 DUP4 ADD MSTORE PUSH2 0x21C8 DUP2 PUSH2 0x218C JUMP JUMPDEST SWAP1 POP SWAP2 SWAP1 POP JUMP INVALID LOG2 PUSH5 0x6970667358 0x22 SLT KECCAK256 0xB4 0x2A DUP11 CALLVALUE 0x4B LOG2 0xF6 BALANCE DIV PUSH3 0xF40707 GASLIMIT RETURNDATACOPY 0x4C CREATE BYTE 0xD8 0xEC JUMP SIGNEXTEND 0x2D 0xEF OR DUP3 PUSH2 0x1F66 0x2D 0x4D 0xB8 PUSH5 0x736F6C6343 STOP ADDMOD SLT STOP CALLER "
				},
				"gasEstimates": {
					"creation": {
						"codeDepositCost": "1741800",
						"executionCost": "infinite",
						"totalCost": "infinite"
					},
					"external": {
						"availableFunds()": "2496",
						"contribution()": "infinite",
						"contributionTimeEnd()": "2517",
						"createProposal(string,uint256,address)": "infinite",
						"executeProposal(uint256)": "infinite",
						"investorsList(uint256)": "4979",
						"isVoted(address,uint256)": "3131",
						"manager()": "2603",
						"nextProposalId()": "2519",
						"numberOfTokens(address)": "2859",
						"proposals(uint256)": "infinite",
						"quorum()": "2497",
						"redeemTokens(uint256)": "infinite",
						"totalTokens()": "2518",
						"trasferTokens(uint256,address)": "infinite",
						"voteProposal(uint256)": "infinite",
						"voteTime()": "2539"
					},
					"internal": {
						"checkInvestorStatus()": "26583"
					}
				},
				"methodIdentifiers": {
					"availableFunds()": "46fcff4c",
					"contribution()": "50520b1f",
					"contributionTimeEnd()": "afc8275b",
					"createProposal(string,uint256,address)": "6ac1e01f",
					"executeProposal(uint256)": "0d61b519",
					"investorsList(uint256)": "2ccc8727",
					"isVoted(address,uint256)": "8ee36f05",
					"manager()": "481c6a75",
					"nextProposalId()": "2ab09d14",
					"numberOfTokens(address)": "584117ff",
					"proposals(uint256)": "013cf08b",
					"quorum()": "1703a018",
					"redeemTokens(uint256)": "a6e158f8",
					"totalTokens()": "7e1c0c09",
					"trasferTokens(uint256,address)": "2ed2cd8f",
					"voteProposal(uint256)": "807896d5",
					"voteTime()": "bcf93dd6"
				}
			},
			"storageLayout": {
				"storage": [
					{
						"astId": 20,
						"contract": "contracts/DAO.sol:DAO",
						"label": "isInvestor",
						"offset": 0,
						"slot": "0",
						"type": "t_mapping(t_address,t_bool)"
					},
					{
						"astId": 24,
						"contract": "contracts/DAO.sol:DAO",
						"label": "numberOfTokens",
						"offset": 0,
						"slot": "1",
						"type": "t_mapping(t_address,t_uint256)"
					},
					{
						"astId": 30,
						"contract": "contracts/DAO.sol:DAO",
						"label": "isVoted",
						"offset": 0,
						"slot": "2",
						"type": "t_mapping(t_address,t_mapping(t_uint256,t_bool))"
					},
					{
						"astId": 33,
						"contract": "contracts/DAO.sol:DAO",
						"label": "investorsList",
						"offset": 0,
						"slot": "3",
						"type": "t_array(t_address)dyn_storage"
					},
					{
						"astId": 38,
						"contract": "contracts/DAO.sol:DAO",
						"label": "proposals",
						"offset": 0,
						"slot": "4",
						"type": "t_mapping(t_uint256,t_struct(Proposal)16_storage)"
					},
					{
						"astId": 40,
						"contract": "contracts/DAO.sol:DAO",
						"label": "totalTokens",
						"offset": 0,
						"slot": "5",
						"type": "t_uint256"
					},
					{
						"astId": 42,
						"contract": "contracts/DAO.sol:DAO",
						"label": "contributionTimeEnd",
						"offset": 0,
						"slot": "6",
						"type": "t_uint256"
					},
					{
						"astId": 44,
						"contract": "contracts/DAO.sol:DAO",
						"label": "voteTime",
						"offset": 0,
						"slot": "7",
						"type": "t_uint256"
					},
					{
						"astId": 46,
						"contract": "contracts/DAO.sol:DAO",
						"label": "quorum",
						"offset": 0,
						"slot": "8",
						"type": "t_uint256"
					},
					{
						"astId": 48,
						"contract": "contracts/DAO.sol:DAO",
						"label": "availableFunds",
						"offset": 0,
						"slot": "9",
						"type": "t_uint256"
					},
					{
						"astId": 50,
						"contract": "contracts/DAO.sol:DAO",
						"label": "nextProposalId",
						"offset": 0,
						"slot": "10",
						"type": "t_uint256"
					},
					{
						"astId": 52,
						"contract": "contracts/DAO.sol:DAO",
						"label": "manager",
						"offset": 0,
						"slot": "11",
						"type": "t_address"
					}
				],
				"types": {
					"t_address": {
						"encoding": "inplace",
						"label": "address",
						"numberOfBytes": "20"
					},
					"t_address_payable": {
						"encoding": "inplace",
						"label": "address payable",
						"numberOfBytes": "20"
					},
					"t_array(t_address)dyn_storage": {
						"base": "t_address",
						"encoding": "dynamic_array",
						"label": "address[]",
						"numberOfBytes": "32"
					},
					"t_bool": {
						"encoding": "inplace",
						"label": "bool",
						"numberOfBytes": "1"
					},
					"t_mapping(t_address,t_bool)": {
						"encoding": "mapping",
						"key": "t_address",
						"label": "mapping(address => bool)",
						"numberOfBytes": "32",
						"value": "t_bool"
					},
					"t_mapping(t_address,t_mapping(t_uint256,t_bool))": {
						"encoding": "mapping",
						"key": "t_address",
						"label": "mapping(address => mapping(uint256 => bool))",
						"numberOfBytes": "32",
						"value": "t_mapping(t_uint256,t_bool)"
					},
					"t_mapping(t_address,t_uint256)": {
						"encoding": "mapping",
						"key": "t_address",
						"label": "mapping(address => uint256)",
						"numberOfBytes": "32",
						"value": "t_uint256"
					},
					"t_mapping(t_uint256,t_bool)": {
						"encoding": "mapping",
						"key": "t_uint256",
						"label": "mapping(uint256 => bool)",
						"numberOfBytes": "32",
						"value": "t_bool"
					},
					"t_mapping(t_uint256,t_struct(Proposal)16_storage)": {
						"encoding": "mapping",
						"key": "t_uint256",
						"label": "mapping(uint256 => struct DAO.Proposal)",
						"numberOfBytes": "32",
						"value": "t_struct(Proposal)16_storage"
					},
					"t_string_storage": {
						"encoding": "bytes",
						"label": "string",
						"numberOfBytes": "32"
					},
					"t_struct(Proposal)16_storage": {
						"encoding": "inplace",
						"label": "struct DAO.Proposal",
						"members": [
							{
								"astId": 3,
								"contract": "contracts/DAO.sol:DAO",
								"label": "id",
								"offset": 0,
								"slot": "0",
								"type": "t_uint256"
							},
							{
								"astId": 5,
								"contract": "contracts/DAO.sol:DAO",
								"label": "description",
								"offset": 0,
								"slot": "1",
								"type": "t_string_storage"
							},
							{
								"astId": 7,
								"contract": "contracts/DAO.sol:DAO",
								"label": "amount",
								"offset": 0,
								"slot": "2",
								"type": "t_uint256"
							},
							{
								"astId": 9,
								"contract": "contracts/DAO.sol:DAO",
								"label": "receipient",
								"offset": 0,
								"slot": "3",
								"type": "t_address_payable"
							},
							{
								"astId": 11,
								"contract": "contracts/DAO.sol:DAO",
								"label": "votes",
								"offset": 0,
								"slot": "4",
								"type": "t_uint256"
							},
							{
								"astId": 13,
								"contract": "contracts/DAO.sol:DAO",
								"label": "end",
								"offset": 0,
								"slot": "5",
								"type": "t_uint256"
							},
							{
								"astId": 15,
								"contract": "contracts/DAO.sol:DAO",
								"label": "isExecuted",
								"offset": 0,
								"slot": "6",
								"type": "t_bool"
							}
						],
						"numberOfBytes": "224"
					},
					"t_uint256": {
						"encoding": "inplace",
						"label": "uint256",
						"numberOfBytes": "32"
					}
				}
			},
			"userdoc": {
				"kind": "user",
				"methods": {},
				"version": 1
			}
		}
	}
}