{
	"data": {
		"bytecode": {
			"linkReferences": {},
			"object": "60806040527f61000000000000000000000000000000000000000000000000000000000000005f806101000a81548160ff021916908360f81c0217905550348015610048575f80fd5b50610180806100565f395ff3fe608060405234801561000f575f80fd5b5060043610610034575f3560e01c8063119552a11461003857806386ae30d914610056575b5f80fd5b610040610072565b60405161004d91906100d8565b60405180910390f35b610070600480360381019061006b919061011f565b610082565b005b5f8054906101000a900460f81b81565b805f806101000a81548160ff021916908360f81c021790555050565b5f7fff0000000000000000000000000000000000000000000000000000000000000082169050919050565b6100d28161009e565b82525050565b5f6020820190506100eb5f8301846100c9565b92915050565b5f80fd5b6100fe8161009e565b8114610108575f80fd5b50565b5f81359050610119816100f5565b92915050565b5f60208284031215610134576101336100f1565b5b5f6101418482850161010b565b9150509291505056fea264697066735822122033127d36aacbbe0c20c4be21001160238d8bb87406b3b8959d23ef193fdf124964736f6c63430008140033",
			"opcodes": "PUSH1 0x80 PUSH1 0x40 MSTORE PUSH32 0x6100000000000000000000000000000000000000000000000000000000000000 PUSH0 DUP1 PUSH2 0x100 EXP DUP2 SLOAD DUP2 PUSH1 0xFF MUL NOT AND SWAP1 DUP4 PUSH1 0xF8 SHR MUL OR SWAP1 SSTORE POP CALLVALUE DUP1 ISZERO PUSH2 0x48 JUMPI PUSH0 DUP1 REVERT JUMPDEST POP PUSH2 0x180 DUP1 PUSH2 0x56 PUSH0 CODECOPY PUSH0 RETURN INVALID PUSH1 0x80 PUSH1 0x40 MSTORE CALLVALUE DUP1 ISZERO PUSH2 0xF JUMPI PUSH0 DUP1 REVERT JUMPDEST POP PUSH1 0x4 CALLDATASIZE LT PUSH2 0x34 JUMPI PUSH0 CALLDATALOAD PUSH1 0xE0 SHR DUP1 PUSH4 0x119552A1 EQ PUSH2 0x38 JUMPI DUP1 PUSH4 0x86AE30D9 EQ PUSH2 0x56 JUMPI JUMPDEST PUSH0 DUP1 REVERT JUMPDEST PUSH2 0x40 PUSH2 0x72 JUMP JUMPDEST PUSH1 0x40 MLOAD PUSH2 0x4D SWAP2 SWAP1 PUSH2 0xD8 JUMP JUMPDEST PUSH1 0x40 MLOAD DUP1 SWAP2 SUB SWAP1 RETURN JUMPDEST PUSH2 0x70 PUSH1 0x4 DUP1 CALLDATASIZE SUB DUP2 ADD SWAP1 PUSH2 0x6B SWAP2 SWAP1 PUSH2 0x11F JUMP JUMPDEST PUSH2 0x82 JUMP JUMPDEST STOP JUMPDEST PUSH0 DUP1 SLOAD SWAP1 PUSH2 0x100 EXP SWAP1 DIV PUSH1 0xF8 SHL DUP2 JUMP JUMPDEST DUP1 PUSH0 DUP1 PUSH2 0x100 EXP DUP2 SLOAD DUP2 PUSH1 0xFF MUL NOT AND SWAP1 DUP4 PUSH1 0xF8 SHR MUL OR SWAP1 SSTORE POP POP JUMP JUMPDEST PUSH0 PUSH32 0xFF00000000000000000000000000000000000000000000000000000000000000 DUP3 AND SWAP1 POP SWAP2 SWAP1 POP JUMP JUMPDEST PUSH2 0xD2 DUP2 PUSH2 0x9E JUMP JUMPDEST DUP3 MSTORE POP POP JUMP JUMPDEST PUSH0 PUSH1 0x20 DUP3 ADD SWAP1 POP PUSH2 0xEB PUSH0 DUP4 ADD DUP5 PUSH2 0xC9 JUMP JUMPDEST SWAP3 SWAP2 POP POP JUMP JUMPDEST PUSH0 DUP1 REVERT JUMPDEST PUSH2 0xFE DUP2 PUSH2 0x9E JUMP JUMPDEST DUP2 EQ PUSH2 0x108 JUMPI PUSH0 DUP1 REVERT JUMPDEST POP JUMP JUMPDEST PUSH0 DUP2 CALLDATALOAD SWAP1 POP PUSH2 0x119 DUP2 PUSH2 0xF5 JUMP JUMPDEST SWAP3 SWAP2 POP POP JUMP JUMPDEST PUSH0 PUSH1 0x20 DUP3 DUP5 SUB SLT ISZERO PUSH2 0x134 JUMPI PUSH2 0x133 PUSH2 0xF1 JUMP JUMPDEST JUMPDEST PUSH0 PUSH2 0x141 DUP5 DUP3 DUP6 ADD PUSH2 0x10B JUMP JUMPDEST SWAP2 POP POP SWAP3 SWAP2 POP POP JUMP INVALID LOG2 PUSH5 0x6970667358 0x22 SLT KECCAK256 CALLER SLT PUSH30 0x36AACBBE0C20C4BE21001160238D8BB87406B3B8959D23EF193FDF124964 PUSH20 0x6F6C634300081400330000000000000000000000 "
		},
		"gasEstimates": {
			"creation": {
				"codeDepositCost": "76800",
				"executionCost": "24387",
				"totalCost": "101187"
			},
			"external": {
				"a1()": "2441",
				"fun1(bytes1)": "24673"
			}
		},
		"methodIdentifiers": {
			"a1()": "119552a1",
			"fun1(bytes1)": "86ae30d9"
		}
	},
	"abi": [
		{
			"inputs": [],
			"name": "a1",
			"outputs": [
				{
					"internalType": "bytes1",
					"name": "",
					"type": "bytes1"
				}
			],
			"stateMutability": "view",
			"type": "function"
		},
		{
			"inputs": [
				{
					"internalType": "bytes1",
					"name": "value",
					"type": "bytes1"
				}
			],
			"name": "fun1",
			"outputs": [],
			"stateMutability": "nonpayable",
			"type": "function"
		}
	]
}